:04000000C2EF08F053
:08000800046ED8CF05F0E0CF33
:1000100006F00001E9CF0CF0EACF07F0E1CF08F0DD
:10002000E2CF09F0D9CF0AF0DACF0BF0F3CF12F01C
:10003000F4CF13F0FACF14F0F5CF15F0F6CF16F099
:10004000F7CF17F000C00EF001C00FF002C010F0A3
:1000500003C011F09DA030EF00F09EB072EF00F0F1
:100060009DAA36EF00F09EBA5DEF00F00EC000F0E2
:100070000FC001F010C002F011C003F00CC0E9FF86
:1000800007C0EAFF078E08C0E1FF09C0E2FF0AC00F
:10009000D9FF0BC0DAFF12C0F3FF13C0F4FF14C086
:1000A000FAFF15C0F5FF16C0F6FF17C0F7FF0450A2
:1000B00006C0E0FF05C0D8FF1000AECF19F1B35164
:1000C000B32B036A810FE96E000E0320EA6E19C19B
:1000D000EFFFB351320801E2B36BB66BB7819E9A62
:1000E00036EF00F0F90ECF6EF80ECE6E1B88BA2BED
:1000F000D8B4BB2BBB5303E1BA51040805E21B8003
:100100001B821B8ABB6BBA6BB82BD8B4B92BB95105
:10011000120808E2FF0A03E1B851870803E21B84D2
:10012000B96BB86B010EBC27D8B0BD2BD8B4BE2BB1
:10013000D8B4BF2BBF530AE1BE5308E1BD51C2087A
:100140000AE2FF0A03E1BC514F0805E21B86BF6BC0
:10015000BE6BBD6BBC6B9E9036EF00F0010EEA6E7D
:100160000E0EE96EEF500DE00A0E016E006A002ED1
:10017000FED7012EFBD75F0E006E002EFED7EF2EAE
:10018000F3D71200E06BDF51E05D1BE2E051DD25AB
:10019000016E000EDE21036E0150E96E03C0EAFF1E
:1001A000E051DC25E36FF2CFE4F0F29EE3C0A9FF5B
:1001B000A69CA69EA680A850E4BFF28EEF6EE02B10
:1001C000E2D71200DAC0E9FFDBC0EAFFEFCFDEF0D2
:1001D000DDC003F0DCC0E9FFDDC0EAFFEF50DE5D0B
:1001E00015E1DBC003F0DAC0E9FF03C0EAFFEF521C
:1001F00003E1000E016E1FD0DBC003F0DA51DA2BF1
:10020000D8B4DB2BDC2BD8B4DD2BDCD7DBC003F080
:10021000DAC0E9FFDBC0EAFFEFCFDEF0DDC003F0BC
:10022000DCC0E9FFDDC0EAFFEF50DE5D02E2FF0E59
:1002300001D0010E016E8BEF01F00101146B13511F
:10024000145D27E214511025166F14511125016E0B
:10025000000E1221036E0150E96E03C0EAFFEFCFDA
:1002600017F1F250006EF29E16C1A9FF17C1A8FF48
:10027000A69CA69EA6840F01550EA76EAA0EA76E79
:10028000A682A6B2FED7A6940050F2120101142B4A
:10029000D6D7156B146B1351145D1FE21451112541
:1002A000016E000E1221036E0150E96E03C0EAFFD9
:1002B000EFCF16F114511025176FF2CF18F1F29EFF
:1002C00017C1A9FFA69CA69EA680A85018BFF28EB3
:1002D000165D01E0152B142BDED7155304E0000E3C
:1002E000016E03D002D0010E016E00011200FF0E5C
:1002F000926EF80E936E800E946EDC6FDE6BD10EF4
:10030000DD6F090EDF6F3EDFDB6BD10EDA6FDD6B69
:10031000780EDC6F57D7015226E0696A6A6A6B6A09
:100320006C6A6D6A6F6A050E6E6E716A0F0E706E82
:10033000736A726E756A746E776A766E800E0101EA
:10034000106F126B780E116F090E136F000175DFBD
:10035000690EDA6F0101106B126B116F0F0E136FC4
:1003600000016BDF71D0C20EDA6FDC6BDE6BDD6F0C
:100370000F0EDF6F07DFC251020802E2020E01D04A
:10038000C251696EC351010802E2000E01D0C3518F
:100390006A6EC451010802E2000E01D0C4516B6EB6
:1003A000C551010802E2000E01D0C5516C6EC65164
:1003B000010802E2000E01D0C6516D6EC85303E180
:1003C000C751050803E2036A050E03D0C8C003F055
:1003D000C7516E6E03C06FF0CA5303E1C9510F08D5
:1003E00003E2036A0F0E03D0CAC003F0C951706E56
:1003F00003C071F0CC5303E1CB510F0803E2036A51
:100400000F0E03D0CCC003F0CB51726E03C073F05B
:10041000CE5303E1CD510F0803E2036A0F0E03D060
:10042000CEC003F0CD51746E03C075F0D05303E11C
:10043000CF510F0803E2036A0F0E03D0D0C003F0C0
:10044000CF51766E03C077F069B002D08B9001D0A7
:100450008B809490D8906930010B02E18B9201D08F
:100460008B8294926BB002D08A9001D08A80939054
:100470006AB002D08A9201D08A8293926DB002D083
:100480008B9801D08B8894986CB002D08B9A01D055
:100490008B8A949A6FC050F06EC04FF071C056F0C6
:1004A00070C055F073C05CF072C05BF075C062F054
:1004B00074C061F077C068F076C067F057EF09F05C
:1004C00093948A94AB980000AB88AB9E0000AB8EEF
:1004D00059EF09F0010114691369156B1251155D8B
:1004E0001CE215511025E96E000E1121EA6EEF5045
:1004F000131B080E166F16530EE01351010B176FE6
:10050000D89014331333172D04D0010E131BA00EF3
:10051000141B1607F0D7152BE1D713C101F014C136
:1005200002F00001120093948A849EA8FED793944F
:100530008A8401010FC1ADFF0000ACA2FED79394E5
:100540008A940001120093948A849EA8FED7939403
:100550008A8401010EC1ADFF0000ACA2FED79394C6
:100560008A940001120081C0B4F0B42D4DD282C033
:10057000B5F0B551030A07E0660AD8B4B7D0010A4E
:10058000D8B472D13BD283C0D2F084C0D1F085C040
:10059000D4F086C0D3F0D890D335026ED43502C0E3
:1005A000D5F00101116B810E106F060E126F000164
:1005B00091DF02C00AF101C009F188C003F0875140
:1005C0000101095D03E103500A5D04E0000E016EC4
:1005D0001ED26DD00001D25303E1D151110806E2C1
:1005E000000E016E010113D262D00001D890D33504
:1005F00001010E6F0001D43501010F6F0F5303E1AC
:100600000E51440804E2000E016E01D250D0050ED6
:100610000001D525D66F010ED76F030ED86FD5C058
:10062000D9F001010F6B470E0E6FD8900001D13544
:10063000026ED235036E025001010E2703500F23C4
:10064000EA6ADA0EE96E0FC1E2FF0EC1E1FF0001B6
:10065000D551016E04E0E6CFEEFF012EFCD7030E6C
:10066000D52501010E6F116BD70E106F0EC112F15F
:10067000000130DF02C00AF101C009F1030ED525E7
:10068000036AD70FE96E000E0320EA6E010109C16B
:1006900000F000C0EFFF040E0001D525036AD70F5C
:1006A000E96E000E0320EA6E01010A51EF6E040E9E
:1006B0000E6F000153DDC16BD651C15D0CE2036AC0
:1006C000C151D70FE96E000E0320EA6EEFCF0FF194
:1006D0002ADFC12BF1D70D0E01010E6F000133DFB0
:1006E0000A0E01010E6F00012EDF8DD183C0D2F002
:1006F00084C0D1F001010C6B85C00BF10B510F08C8
:1007000002E10C5303E0000E016E81D1050E0B25B2
:100710000E6F000E0C210F6F116B810E106F0EC14A
:1007200012F10001D7DE02C00AF101C009F1870E03
:1007300001010B25E96E000E0C21EA6EEFCF03F0EC
:10074000860E0B25E96E000E0C21EA6EEFCF13F139
:100750001351095D03E103500A5D03E0000E016ED1
:1007600056D1EA6A690EE96EE26A860EE16E0CC144
:1007700002F00BC101F0015202E0022A02D0025243
:1007800006E0E6CFEEFF012EFCD7022EFAD769B0C5
:1007900002D08B9001D08B809490D8906930010B5F
:1007A00002E18B9201D08B8294926BB002D08A903E
:1007B00001D08A8093906AB002D08A9201D08A8256
:1007C00093926FC050F06EC04FF071C056F070C081
:1007D00055F073C05CF072C05BF075C062F074C01D
:1007E00061F077C068F076C067F0690E0E6FD1C017
:1007F00010F1126B116F0F0E136F00011EDD070E4B
:10080000D66F010ED76F650ED86FD2C0D9F0000138
:10081000D1C0DAF00BC1DBF00101116BD70E106F04
:10082000050E126F000156DE02C00AF101C009F187
:1008300009C1DCF000010AC1DDF00001040E010174
:100840000E6F00018BDCC16BD651C15D0CE2036AF7
:10085000C151D70FE96E000E0320EA6EEFCF0FF102
:1008600062DEC12BF1D7CFD083C0D2F084C0D1F0EB
:1008700001010C6B85C00BF1116B810E106F050E21
:10088000126F000127DE02C00AF101C009F187C022
:1008900003F086510101095D03E103500A5D04E0A4
:1008A000000E016EB4D014D00B510001D12501010E
:1008B0000E6F0C510001D22101010F6F000808E2F8
:1008C000FF0A03E10E51000803E2000E016E9FD003
:1008D0000D6B0D510D2B036AD70FE96E000E03202F
:1008E000EA6E010EEF6E0D510D2B036AD70FE96E04
:1008F000000E0320EA6E640EEF6E0D510D2B036A9D
:10090000D70FE96E000E0320EA6E0001D2C0EFFFA0
:1009100001010D510D2B036AD70FE96E000E032064
:10092000EA6E0001D1C0EFFF01010D510D2B036AEA
:10093000D70FE96E000E0320EA6E0BC1EFFF000136
:10094000C16B01010C5305E10B510001C15D1DE2BA
:1009500001010D510D2B036AD70FE96E000E032024
:10096000EA6E0001C151D1250101106FF2CF11F1E2
:10097000F29E10C1A9FFA69CA69EA680A85011BFFA
:10098000F28EEF6E0001C12BDCD70101116BD70E87
:10099000106F0DC112F100019DDD02C00AF101C00E
:1009A00009F101010D510D2B036AD70FE96E000EFD
:1009B0000320EA6E09C1EFFF0D510D2B036AD70F1B
:1009C000E96E000E0320EA6E0AC1EFFF040E0E6FFF
:1009D0000001AEEC00F0C16B01010D510001C15DE1
:1009E0000CE2036AC151D70FE96E000E0320EA6ED4
:1009F000EFCF0FF198DDC12BEFD705D0000E016EC0
:100A0000010105D0000103D0000E016E01010001BB
:100A100077EF09F0928C80AC14D0C02BC0516308E2
:100A20000FE26D5203E194988B8802D094988B98D2
:100A30006C5203E1949A8B8A02D0949A8B9AC06B81
:100A400005D0C06B94988B98949A8B9A7EEF09F09E
:100A5000D8B203D0EA6ADD0EE96E006A016A026A62
:100A6000036ADD6BDE6BDF6BE06BDC51DB11DA11EF
:100A7000D9112CE0200EE16FD890D537D637D73773
:100A8000D837DD37DE37DF37E037DC51E05D08E1AE
:100A9000DB51DF5D05E1DA51DE5D02E1D951DD5D5B
:100AA0000FE3D951DD5FDA51D8A0DA3DDE5FDB51CB
:100AB000D8A0DB3DDF5FDC51D8A0DC3DE05FD88013
:100AC0000036013602360336E12FD6D7DDC0EFFF00
:100AD000DEC0ECFFDFC0ECFFE0C0ECFF1200D46B27
:100AE000470ED36F000E016EC250C30B0110C26ED1
:100AF000070E006E002EFED700D0C282C2B2FED713
:100B0000C4CFD2F0C3CFD1F01D50D25D08E303E1D2
:100B1000D1511C5C04E2D2C01DF0D1C01CF0D251F6
:100B20001F5C08E303E11E50D15D04E2D2C01FF058
:100B3000D1C01EF0040E016EC250C30B0110C26E74
:100B4000070E006E002EFED700D0C282C2B2FED7C2
:100B5000C4CFD2F0C3CFD1F02150D25D08E303E17E
:100B6000D151205C04E2D2C021F0D1C020F0D2519A
:100B7000235C08E303E12250D15D04E2D2C023F0FC
:100B8000D1C022F0080E016EC250C30B0110C26E1C
:100B9000070E006E002EFED700D0C282C2B2FED772
:100BA000C4CFD2F0C3CFD1F02550D25D08E303E12A
:100BB000D151245C04E2D2C025F0D1C024F0D2513E
:100BC000275C08E303E12650D15D04E2D2C027F0A0
:100BD000D1C026F00C0E016EC250C30B0110C26EC4
:100BE000070E006E002EFED700D0C282C2B2FED722
:100BF000C4CFD2F0C3CFD1F02950D25D08E303E1D6
:100C0000D151285C04E2D2C029F0D1C028F0D251E1
:100C10002B5C08E303E12A50D15D04E2D2C02BF043
:100C2000D1C02AF0446A1F501D5C0CE303E11E5042
:100C30001C5C08E31E501C5C006E1F501D58036EA8
:100C4000005002D0036A000E2C6E03C02DF02C5011
:100C500034262D503522000E362237222350215CB7
:100C60000CE303E12250205C08E32250205C006E7C
:100C700023502158036E005002D0036A000E2E6EDE
:100C800003C02FF02E5038262F503922000E3A2262
:100C90003B222750255C0CE303E12650245C08E34B
:100CA0002650245C006E27502558036E005002D059
:100CB000036A000E306E03C031F030503C263150D4
:100CC0003D22000E3E223F222B50295C0CE303E123
:100CD0002A50285C08E32A50285C006E2B502958C3
:100CE000036E005002D0036A000E326E03C033F070
:100CF0003250402633504122000E42224322452AE0
:100D0000D8B4462A46501208D8B03AD2FF0A04E1B5
:100D100045508708D8B034D21B8C466A456AD892B1
:100D200037C0D8F036C0D7F035C0D6F034C0D5F0D3
:100D3000DC6BDB6B130EDA6F880ED96F89DE03C0B4
:100D400037F002C036F001C035F000C034F0D89260
:100D50003BC0D8F03AC0D7F039C0D6F038C0D5F093
:100D6000DC6BDB6B130EDA6F880ED96F71DE03C09C
:100D70003BF002C03AF001C039F000C038F0D89220
:100D80003FC0D8F03EC0D7F03DC0D6F03CC0D5F053
:100D9000DC6BDB6B130EDA6F880ED96F59DE03C084
:100DA0003FF002C03EF001C03DF000C03CF0D892E0
:100DB00043C0D8F042C0D7F041C0D6F040C0D5F013
:100DC000DC6BDB6B130EDA6F880ED96F41DE03C06C
:100DD00043F002C042F001C041F000C040F00E0EEE
:100DE000D325E96E000ED421EA6EECCF03F0ED526C
:100DF000EFCF01F037520EE136520CE13550035C73
:100E000009E303E10150345C05E2006A016A026A09
:100E1000036A15D00E0ED325E96E000ED421EA6EBA
:100E2000ECCF03F0ED52EF50345C006E03503558B8
:100E3000016E000E3658026E000E3758036E03C066
:100E400037F002C036F001C035F000C034F0140EA7
:100E5000D325E96E000ED421EA6EECCF03F0ED52FB
:100E6000EFCF01F03B520EE13A520CE13950035CF6
:100E700009E303E10150385C05E2006A016A026A95
:100E8000036A15D0140ED325E96E000ED421EA6E44
:100E9000ECCF03F0ED52EF50385C006E0350395840
:100EA000016E000E3A58026E000E3B58036E03C0EE
:100EB0003BF002C03AF001C039F000C038F01A0E21
:100EC000D325E96E000ED421EA6EECCF03F0ED528B
:100ED000EFCF01F03F520EE13E520CE13D50035C7A
:100EE00009E303E101503C5C05E2006A016A026A21
:100EF000036A15D01A0ED325E96E000ED421EA6ECE
:100F0000ECCF03F0ED52EF503C5C006E03503D58C7
:100F1000016E000E3E58026E000E3F58036E03C075
:100F20003FF002C03EF001C03DF000C03CF0200E9A
:100F3000D325E96E000ED421EA6EECCF03F0ED521A
:100F4000EFCF01F043520EE142520CE14150035CFD
:100F500009E303E10150405C05E2006A016A026AAC
:100F6000036A15D0200ED325E96E000ED421EA6E57
:100F7000ECCF03F0ED52EF50405C006E035041584F
:100F8000016E000E4258026E000E4358036E03C0FD
:100F900043F002C042F001C041F000C040F00C0E2E
:100FA000D325E96E000ED421EA6E35C0ECFFED5278
:100FB00034C0EFFF120ED325E96E000ED421EA6E85
:100FC00039C0ECFFED5238C0EFFF180ED325E96EA3
:100FD000000ED421EA6E3DC0ECFFED523CC0EFFFA5
:100FE0001E0ED325E96E000ED421EA6E41C0ECFF3F
:100FF000ED5240C0EFFF0A0ED325016E000ED42142
:10100000036E01C0D5F0D66F080ED325E96E000E31
:10101000D421EA6EECCF03F0ED52EFCF01F037525E
:1010200009E1365207E10350355C06E303E1015064
:10103000345C02E3010E01D0000ED6C0EAFFD5C039
:10104000E9FFEF6E100ED325016E000ED421036E62
:1010500001C0D5F0D66F080ED325E96E000ED4215D
:10106000EA6EECCF03F0ED52EFCF01F03B5209E115
:101070003A5207E10350395C06E303E10150385C62
:1010800002E3010E01D0000ED6C0EAFFD5C0E9FF91
:10109000EF6E160ED325016E000ED421036E01C033
:1010A000D5F0D66F080ED325E96E000ED421EA6E76
:1010B000ECCF03F0ED52EFCF01F03F5209E13E5289
:1010C00007E103503D5C06E303E101503C5C02E3B1
:1010D000010E01D0000ED6C0EAFFD5C0E9FFEF6EC9
:1010E0001C0ED325016E000ED421036E01C0D5F075
:1010F000D66F080ED325E96E000ED421EA6EECCF30
:1011000003F0ED52EFCF01F0435209E1425207E103
:101110000350415C06E303E10150405C02E3010E31
:1011200001D0000ED6C0EAFFD5C0E9FFEF6E020E77
:101130001D6E1C6A1F6E1E6A2D6A2C6A376A366A1B
:10114000356A346A216E206A236E226A2F6A2E6AFB
:101150003B6A3A6A396A386A256E246A276E266ABB
:10116000316A306A3F6A3E6A3D6A3C6A296E286A83
:101170002B6E2A6A336A326A436A426A416A406A5B
:1011800089EF09F0F86AD09E078E700ED36E400E7C
:101190009B6ED350B886440EAF6E000EB06EA60E96
:1011A000AC6E900EAB6E93948A94B886440EAF6E7C
:1011B000000EB06EA60EAC6E900EAB6E93948A9439
:1011C000C150C00B0F09C16E070EB46E1B901B926D
:1011D0001B941B961B981B9A1B9C1B9EB79110D0AF
:1011E00002001900005C401C000980532D436C6113
:1011F000737344000400B3000000001940B80000FD
:10120000000EF86E110EF76EE00EF66E0900F55046
:10121000006E000A13E00900F550016EE8BE05D02B
:101220003F0BEA6E0900F5CFE9FF01BC090001ACF4
:101230000900F5CFEEFF004EE9D7F9D7F86A850E21
:10124000CD6EF90ECF6EE40ECE6EC150C00B0B0901
:10125000C16EC050C00B3609C06EC08EC280C69A27
:10126000949A94889496010EC66E000EC76E949858
:101270008B98949A8B9A93928A8293908A80780E14
:10128000D16FFA0E01010E6F0001AEEC00F0D12F0C
:10129000F8D793928A9293908A9094948B849496A0
:1012A0008B8694908B9094928B9277EF01F060EF05
:1012B00002F09D809D8AC00EF212B66BB7910400B9
:1012C0001BA211D0ABA203D0AB980000AB88B7A192
:1012D00009D0B62BB651140805E2AB98B791B36BA1
:1012E0001B8EB66B1B921BAE04D0B3EF02F0AB8823
:1012F0001B9E1BA003D01B900AEF05F01BA601D07C
:101300001B961BA401D01B941BAA03D01B9A6FEF42
:0613100005F0D5D7030033
:020000040030CA
:0E00000000C8161B0087B10003C003E00340D8
:00000001FF
;PIC18F2321
;CRC=E52D  CREATED="18-Mar-22 11:01"
