:04000000FEEF08F017
:08000800046ED8CF05F0E0CF33
:1000100006F00001E9CF0CF0EACF07F0E1CF08F0DD
:10002000E2CF09F0D9CF0AF0DACF0BF0F3CF12F01C
:10003000F4CF13F0FACF14F0F5CF15F0F6CF16F099
:10004000F7CF17F000C00EF001C00FF002C010F0A3
:1000500003C011F09DA030EF00F09EB072EF00F0F1
:100060009DAA36EF00F09EBA5DEF00F00EC000F0E2
:100070000FC001F010C002F011C003F00CC0E9FF86
:1000800007C0EAFF078E08C0E1FF09C0E2FF0AC00F
:10009000D9FF0BC0DAFF12C0F3FF13C0F4FF14C086
:1000A000FAFF15C0F5FF16C0F6FF17C0F7FF0450A2
:1000B00006C0E0FF05C0D8FF1000AECF1BF1B35162
:1000C000B32B036A810FE96E000E0320EA6E1BC199
:1000D000EFFFB351320801E2B36BB66BB7819E9A62
:1000E00036EF00F0F90ECF6EF80ECE6E00001B88D2
:1000F000BA2BD8B4BB2BBB5303E1BA51040805E2B9
:100100001B801B821B8ABB6BBA6BB82BD8B4B92B74
:10011000B951120808E2FF0A03E1B851870803E267
:100120001B84B96BB86B010EBC27D8B0BD2BD8B4FB
:10013000BE2BD8B4BF2BBF530AE1BE5308E1BD515B
:10014000C2080AE2FF0A03E1BC514F0805E21B8620
:10015000BF6BBE6BBD6BBC6B9E9036EF00F0010EAB
:10016000EA6E100EE96EEF500DE00A0E016E006AA5
:10017000002EFED7012EFBD75F0E006E002EFED79D
:10018000EF2EF3D71200E26BE151E25D1BE2E25188
:10019000DF25016E000EE021036E0150E96E03C001
:1001A000EAFFE251DE25E56FF2CFE6F0F29EE5C010
:1001B000A9FFA69CA69EA680A850E6BFF28EEF6E71
:1001C000E22BE2D71200DCC0E9FFDDC0EAFFEFCF8F
:1001D000E0F0DFC003F0DEC0E9FFDFC0EAFFEF5070
:1001E000E05D15E1DDC003F0DCC0E9FF03C0EAFF1C
:1001F000EF5203E1000E016E1FD0DDC003F0DC51B1
:10020000DC2BD8B4DD2BDE2BD8B4DF2BDCD7DDC064
:1002100003F0DCC0E9FFDDC0EAFFEFCFE0F0DFC0B4
:1002200003F0DEC0E9FFDFC0EAFFEF50E05D02E26D
:10023000FF0E01D0010E016E8CEF01F00101166B73
:100240001551165D27E216511225186F1651132508
:10025000016E000E1421036E0150E96E03C0EAFF27
:10026000EFCF19F1F250006EF29E18C1A9FF19C12B
:10027000A8FFA69CA69EA6840F01550EA76EAA0EE7
:10028000A76EA682A6B2FED7A6940050F212010174
:10029000162BD6D7176B166B1551165D1FE216512C
:1002A0001325016E000E1421036E0150E96E03C088
:1002B000EAFFEFCF18F116511225196FF2CF1AF19C
:1002C000F29E19C1A9FFA69CA69EA680A8501ABF9F
:1002D000F28E185D01E0172B162BDED7175304E0C2
:1002E000000E016E03D002D0010E016E000112005B
:1002F000FF0E926EF80E936E800E946EDE6FE06BC2
:10030000D30EDF6F090EE16F3EDFDD6BD30EDC6FC6
:10031000DF6B780EDE6F57D7015236E0696A6A6A82
:100320006B6A6C6A6D6A6F6A050E6E6E716A0F0E8B
:10033000706E736A726E756A746E776A766E010E8D
:10034000D26F020ED16F800E0101126F146B780E06
:10035000136F090E156F000171DF690EDC6F01016B
:10036000126B146B136F0F0E156F000167DFD10E48
:10037000DC6F900E0101126F146BDCC013F1020EE2
:10038000156F00015BDF71D0C20EDC6FDE6BE06BBE
:10039000DF6F0F0EE16FF7DEC251020802E2020EBC
:1003A00001D0C251696EC351010802E2000E01D0B2
:1003B000C3516A6EC451010802E2000E01D0C4515B
:1003C0006B6EC551010802E2000E01D0C5516C6E82
:1003D000C651010802E2000E01D0C6516D6EC8532D
:1003E00003E1C751050803E2036A050E03D0C8C044
:1003F00003F0C7516E6E03C06FF0CA5303E1C951D9
:100400000F0803E2036A0F0E03D0CAC003F0C951FC
:10041000706E03C071F0CC5303E1CB510F0803E2BF
:10042000036A0F0E03D0CCC003F0CB51726E03C031
:1004300073F0CE5303E1CD510F0803E2036A0F0EB0
:1004400003D0CEC003F0CD51746E03C075F0D0530D
:1004500003E1CF510F0803E2036A0F0E03D0D0C0AF
:1004600003F0CF51766E03C077F069B002D08B9065
:1004700001D08B809490D8906930010B02E18B926F
:1004800001D08B8294926BB002D08A9001D08A8086
:1004900093906AB002D08A9201D08A8293926DB012
:1004A00002D08B9801D08B8894986CB002D08B9A34
:1004B00001D08B8A949A6FC050F06EC04FF071C01B
:1004C00056F070C055F073C05CF072C05BF075C040
:1004D00062F074C061F077C068F076C067F08DEFAD
:1004E00009F093948A94AB980000AB88AB9E00000F
:1004F000AB8E8FEF09F0010116691569176B145166
:10050000175D1CE217511225E96E000E1321EA6EE9
:10051000EF50151B080E186F18530EE01551010B04
:10052000196FD89016331533192D04D0010E151BF1
:10053000A00E161B1807F0D7172BE1D715C101F035
:1005400016C102F00001120093948A849EA8FED77F
:1005500093948A84010111C1ADFF0000ACA2FED7C3
:1005600093948A940001120093948A849EA8FED7E3
:1005700093948A84010110C1ADFF0000ACA2FED7A4
:1005800093948A940001120081C0B4F0B42D41D23A
:1005900082C0B5F0B551030A07E0660AD8B4B7D0F7
:1005A000010AD8B466D12FD283C0D4F084C0D3F06E
:1005B00085C0D6F086C0D5F0D890D535026ED63538
:1005C00002C0D7F00101136B810E126F060E146F7B
:1005D000000191DF02C00CF101C00BF188C003F0F3
:1005E000875101010B5D03E103500C5D04E0000E37
:1005F000016E12D26DD00001D45303E1D351110822
:1006000006E2000E016E010107D262D00001D8900F
:10061000D5350101106F0001D6350101116F11535D
:1006200003E11051440804E2000E016EF5D150D0F0
:10063000050E0001D725D86F010ED96F030EDA6FB2
:10064000D7C0DBF00101116B470E106FD89000018D
:10065000D335026ED435036E0250010110270350CA
:100660001123EA6ADC0EE96E11C1E2FF10C1E1FF5D
:100670000001D751016E04E0E6CFEEFF012EFCD75A
:10068000030ED7250101106F136BD90E126F10C125
:1006900014F1000130DF02C00CF101C00BF1030EB8
:1006A000D725036AD90FE96E000E0320EA6E010117
:1006B0000BC100F000C0EFFF040E0001D725036A54
:1006C000D90FE96E000E0320EA6E01010C51EF6EA6
:1006D000040E106F000143DDC16BD851C15D0CE207
:1006E000036AC151D90FE96E000E0320EA6EEFCF05
:1006F00011F12ADFC12BF1D70D0E0101106F00019E
:1007000033DF0A0E0101106F00012EDF81D183C09B
:10071000D4F084C0D3F001010E6B85C00DF10D51F2
:100720000F0802E10E5303E0000E016E75D1050EB5
:100730000D25106F000E0E21116F136B810E126FBD
:1007400010C114F10001D7DE02C00CF101C00BF1A1
:10075000870E01010D25E96E000E0E21EA6EEFCF26
:1007600003F0860E0D25E96E000E0E21EA6EEFCF26
:1007700015F115510B5D03E103500C5D03E0000E14
:10078000016E4AD1EA6A690EE96EE26A860EE16E8E
:100790000EC102F00DC101F0015202E0022A02D0A6
:1007A000025206E0E6CFEEFF012EFCD7022EFAD76A
:1007B00069B002D08B9001D08B809490D890693032
:1007C000010B02E18B9201D08B8294926FC050F0AA
:1007D0006EC04FF071C056F070C055F073C05CF041
:1007E00072C05BF075C062F074C061F077C068F0F1
:1007F00076C067F0690E106FD3C012F1146B136FDF
:100800000F0E156F00011ADD070ED86F010ED96F9C
:10081000650EDA6FD4C0DBF00001D3C0DCF00DC18F
:10082000DDF00101136BD90E126F050E146F00017C
:1008300062DE02C00CF101C00BF10BC1DEF0000161
:100840000CC1DFF00001040E0101106F000187DC14
:10085000C16BD851C15D0CE2036AC151D90FE96E79
:10086000000E0320EA6EEFCF11F16EDEC12BF1D73F
:10087000CFD083C0D4F084C0D3F001010E6B85C00B
:100880000DF1136B810E126F050E146F000133DE34
:1008900002C00CF101C00BF187C003F086510101C9
:1008A0000B5D03E103500C5D04E0000E016EB4D05B
:1008B00014D00D510001D3250101106F0E5100011C
:1008C000D4210101116F000808E2FF0A03E1105171
:1008D000000803E2000E016E9FD00F6B0F510F2B2B
:1008E000036AD90FE96E000E0320EA6E010EEF6E67
:1008F0000F510F2B036AD90FE96E000E0320EA6E29
:10090000640EEF6E0F510F2B036AD90FE96E000EC4
:100910000320EA6E0001D4C0EFFF01010F510F2B3D
:10092000036AD90FE96E000E0320EA6E0001D3C0FE
:10093000EFFF01010F510F2B036AD90FE96E000E73
:100940000320EA6E0DC1EFFF0001C16B01010E53E0
:1009500005E10D510001C15D1DE201010F510F2B99
:10096000036AD90FE96E000E0320EA6E0001C1513F
:10097000D3250101126FF2CF13F1F29E12C1A9FF2C
:10098000A69CA69EA680A85013BFF28EEF6E000113
:10099000C12BDCD70101136BD90E126F0FC114F1FB
:1009A0000001A9DD02C00CF101C00BF101010F51E2
:1009B0000F2B036AD90FE96E000E0320EA6E0BC1FC
:1009C000EFFF0F510F2B036AD90FE96E000E0320C2
:1009D000EA6E0CC1EFFF040E106F0001AFEC00F0E7
:1009E000C16B01010F510001C15D0CE2036AC151ED
:1009F000D90FE96E000E0320EA6EEFCF11F1A4DDEE
:100A0000C12BEFD705D0000E016E010105D000010A
:100A100003D0000E016E01010001AFEF09F0D46BAD
:100A2000470ED36F928C80AC14D0C02BC05163089A
:100A30000FE26D5203E194988B8802D094988B98C2
:100A40006C5203E1949A8B8A02D0949A8B9AC06B71
:100A500005D0C06B94988B98949A8B9A928880A8B2
:100A600009D0020ED325E96E000ED421EA6E010EE4
:100A7000EF6E0ED0020ED325E96E000ED421EA6E81
:100A8000EF6A6B2C03D093908A8002D093908A9067
:100A9000928A80AA09D0010ED325E96E000ED421D6
:100AA000EA6E010EEF6E0ED0010ED325E96E000E38
:100AB000D421EA6EEF6A6A2C03D093928A8202D024
:100AC00093928A92B6EF09F0D8B203D0EA6ADF0EA9
:100AD000E96E006A016A026A036ADF6BE06BE16B30
:100AE000E26BDE51DD11DC11DB112CE0200EE36F37
:100AF000D890D737D837D937DA37DF37E037E1370B
:100B0000E237DE51E25D08E1DD51E15D05E1DC51F6
:100B1000E05D02E1DB51DF5D0FE3DB51DF5FDC51C4
:100B2000D8A0DC3DE05FDD51D8A0DD3DE15FDE51C6
:100B3000D8A0DE3DE25FD8800036013602360336AB
:100B4000E32FD6D7DFC0EFFFE0C0ECFFE1C0ECFF42
:100B5000E2C0ECFF1200D66B470ED56F000E016E9F
:100B6000C250C30B0110C26E070E006E002EFED7DE
:100B700000D0C282C2B2FED7C4CFD4F0C3CFD3F06C
:100B80001D50D45D08E303E1D3511C5C04E2D4C0E2
:100B90001DF0D3C01CF0D4511F5C08E303E11E50CC
:100BA000D35D04E2D4C01FF0D3C01EF0040E016E6A
:100BB000C250C30B0110C26E070E006E002EFED78E
:100BC00000D0C282C2B2FED7C4CFD4F0C3CFD3F01C
:100BD0002150D45D08E303E1D351205C04E2D4C08A
:100BE00021F0D3C020F0D451235C08E303E122506C
:100BF000D35D04E2D4C023F0D3C022F0080E016E0E
:100C0000C250C30B0110C26E070E006E002EFED73D
:100C100000D0C282C2B2FED7C4CFD4F0C3CFD3F0CB
:100C20002550D45D08E303E1D351245C04E2D4C031
:100C300025F0D3C024F0D451275C08E303E126500B
:100C4000D35D04E2D4C027F0D3C026F00C0E016EB1
:100C5000C250C30B0110C26E070E006E002EFED7ED
:100C600000D0C282C2B2FED7C4CFD4F0C3CFD3F07B
:100C70002950D45D08E303E1D351285C04E2D4C0D9
:100C800029F0D3C028F0D4512B5C08E303E12A50AB
:100C9000D35D04E2D4C02BF0D3C02AF0446A1F50C5
:100CA0001D5C0CE303E11E501C5C08E31E501C5C41
:100CB000006E1F501D58036E005002D0036A000ED4
:100CC0002C6E03C02DF02C5034262D503522000EF2
:100CD000362237222350215C0CE303E12250205CB2
:100CE00008E32250205C006E23502158036E005010
:100CF00002D0036A000E2E6E03C02FF02E5038264D
:100D00002F503922000E3A223B222750255C0CE35B
:100D100003E12650245C08E32650245C006E275033
:100D20002558036E005002D0036A000E306E03C0D7
:100D300031F030503C2631503D22000E3E223F2201
:100D40002B50295C0CE303E12A50285C08E32A506D
:100D5000285C006E2B502958036E005002D0036AA5
:100D6000000E326E03C033F0325040263350412221
:100D7000000E42224322452AD8B4462A4650120881
:100D8000D8B03AD2FF0A04E145508708D8B034D22F
:100D90001B8C466A456AD89237C0DAF036C0D9F063
:100DA00035C0D8F034C0D7F0DE6BDD6B130EDC6FCE
:100DB000880EDB6F89DE03C037F002C036F001C059
:100DC00035F000C034F0D8923BC0DAF03AC0D9F028
:100DD00039C0D8F038C0D7F0DE6BDD6B130EDC6F96
:100DE000880EDB6F71DE03C03BF002C03AF001C039
:100DF00039F000C038F0D8923FC0DAF03EC0D9F0E8
:100E00003DC0D8F03CC0D7F0DE6BDD6B130EDC6F5D
:100E1000880EDB6F59DE03C03FF002C03EF001C018
:100E20003DF000C03CF0D89243C0DAF042C0D9F0A7
:100E300041C0D8F040C0D7F0DE6BDD6B130EDC6F25
:100E4000880EDB6F41DE03C043F002C042F001C0F8
:100E500041F000C040F00E0ED525E96E000ED621FF
:100E6000EA6EECCF03F0ED52EFCF01F037520EE116
:100E700036520CE13550035C09E303E10150345C68
:100E800005E2006A016A026A036A15D00E0ED525D2
:100E9000E96E000ED621EA6EECCF03F0ED52EF5072
:100EA000345C006E03503558016E000E3658026EE9
:100EB000000E3758036E03C037F002C036F001C091
:100EC00035F000C034F0140ED525E96E000ED621A1
:100ED000EA6EECCF03F0ED52EFCF01F03B520EE1A2
:100EE0003A520CE13950035C09E303E10150385CEC
:100EF00005E2006A016A026A036A15D0140ED5255C
:100F0000E96E000ED621EA6EECCF03F0ED52EF5001
:100F1000385C006E03503958016E000E3A58026E6C
:100F2000000E3B58036E03C03BF002C03AF001C014
:100F300039F000C038F01A0ED525E96E000ED62122
:100F4000EA6EECCF03F0ED52EFCF01F03F520EE12D
:100F50003E520CE13D50035C09E303E101503C5C6F
:100F600005E2006A016A026A036A15D01A0ED525E5
:100F7000E96E000ED621EA6EECCF03F0ED52EF5091
:100F80003C5C006E03503D58016E000E3E58026EF0
:100F9000000E3F58036E03C03FF002C03EF001C098
:100FA0003DF000C03CF0200ED525E96E000ED621A4
:100FB000EA6EECCF03F0ED52EFCF01F043520EE1B9
:100FC00042520CE14150035C09E303E10150405CF3
:100FD00005E2006A016A026A036A15D0200ED5256F
:100FE000E96E000ED621EA6EECCF03F0ED52EF5021
:100FF000405C006E03504158016E000E4258026E74
:10100000000E4358036E03C043F002C042F001C01B
:1010100041F000C040F00C0ED525E96E000ED6213F
:10102000EA6E35C0ECFFED5234C0EFFF120ED5254D
:10103000E96E000ED621EA6E39C0ECFFED5238C0E1
:10104000EFFF180ED525E96E000ED621EA6E3DC0E1
:10105000ECFFED523CC0EFFF1E0ED525E96E000EF1
:10106000D621EA6E41C0ECFFED5240C0EFFF0A0E00
:10107000D525016E000ED621036E01C0D7F0D86FC2
:10108000080ED525E96E000ED621EA6EECCF03F0EE
:10109000ED52EFCF01F0375209E1365207E103502C
:1010A000355C06E303E10150345C02E3010E01D03C
:1010B000000ED8C0EAFFD7C0E9FFEF6E100ED525AD
:1010C000016E000ED621036E01C0D7F0D86F080E56
:1010D000D525E96E000ED621EA6EECCF03F0ED5275
:1010E000EFCF01F03B5209E13A5207E10350395C7E
:1010F00006E303E10150385C02E3010E01D0000E6B
:10110000D8C0EAFFD7C0E9FFEF6E160ED525016EF5
:10111000000ED621036E01C0D7F0D86F080ED5257A
:10112000E96E000ED621EA6EECCF03F0ED52EFCF60
:1011300001F03F5209E13E5207E103503D5C06E3F6
:1011400003E101503C5C02E3010E01D0000ED8C067
:10115000EAFFD7C0E9FFEF6E1C0ED525016E000E29
:10116000D621036E01C0D7F0D86F080ED525E96EE1
:10117000000ED621EA6EECCF03F0ED52EFCF01F076
:10118000435209E1425207E10350415C06E303E1A7
:101190000150405C02E3010E01D0000ED8C0EAFF0E
:1011A000D7C0E9FFEF6E020E1D6E1C6A1F6E1E6A2D
:1011B0002D6A2C6A376A366A356A346A216E206A6B
:1011C000236E226A2F6A2E6A3B6A3A6A396A386A43
:1011D000256E246A276E266A316A306A3F6A3E6A43
:1011E0003D6A3C6A296E286A2B6E2A6A336A326A23
:1011F000436A426A416A406AC3EF09F0F86AD09EC6
:10120000078E700ED36E400E9B6ED350B886440E80
:10121000AF6E000EB06EA60EAC6E900EAB6E9394D9
:101220008A94B886440EAF6E000EB06EA60EAC6EF9
:10123000900EAB6E93948A94C150C00B0F09C16E8F
:10124000070EB46E1B901B921B941B961B981B9A47
:101250001B9C1B9EB79110D002001900005C401C23
:10126000000980532D436C61737344000400B30084
:101270000000001B40B80000000EF86E120EF76E62
:10128000580EF66E0900F550006E000A13E00900D2
:10129000F550016EE8BE05D03F0BEA6E0900F5CFB0
:1012A000E9FF01BC090001AC0900F5CFEEFF004EDB
:1012B000E9D7F9D7F86A850ECD6EF90ECF6EE40E38
:1012C000CE6E0000C150C00B0809C16EC050C00BEB
:1012D0003609C06EC08EC280D19094988B98949A33
:1012E0008B9A93928A8293908A800C0ED36FFA0E17
:1012F0000101106F0001AFEC00F0D32FF8D79392EB
:101300008A9293908A9094948B8494968B869490EE
:101310008B9094928B9278EF01F071EF02F0D18074
:10132000D1809D809D8AC00EF212B66BB7910400E9
:101330001BA211D0ABA203D0AB980000AB88B7A121
:1013400009D0B62BB651140805E2AB98B791B36B30
:101350001B8EB66B1B921BAE04D0C4EF02F0AB88A1
:101360001B9E1BA003D01B900FEF05F01BA601D006
:101370001B961BA403D093988A781B941BAA03D0B6
:0A1380001B9AABEF05F0D3D7030072
:020000040030CA
:0E00000000C8161B0087B100008003E003401B
:00000001FF
;PIC18F2321
;CRC=2853  CREATED="26-Jul-22 07:57"
