:0400000041EF09F0D3
:08000800046ED8CF05F0E0CF33
:1000100006F00001E9CF0CF0EACF07F0E1CF08F0DD
:10002000E2CF09F0D9CF0AF0DACF0BF0F3CF12F01C
:10003000F4CF13F0FACF14F0F5CF15F0F6CF16F099
:10004000F7CF17F000C00EF001C00FF002C010F0A3
:1000500003C011F09DA030EF00F09EB072EF00F0F1
:100060009DAA36EF00F09EBA5DEF00F00EC000F0E2
:100070000FC001F010C002F011C003F00CC0E9FF86
:1000800007C0EAFF078E08C0E1FF09C0E2FF0AC00F
:10009000D9FF0BC0DAFF12C0F3FF13C0F4FF14C086
:1000A000FAFF15C0F5FF16C0F6FF17C0F7FF0450A2
:1000B00006C0E0FF05C0D8FF1000AECF23F1B3515A
:1000C000B32B036A810FE96E000E0320EA6E23C191
:1000D000EFFFB351320801E2B36BB66BB7819E9A62
:1000E00036EF00F0F90ECF6EF80ECE6E1B88BA2BED
:1000F000D8B4BB2BBB5303E1BA51040805E21B8003
:100100001B821B8ABB6BBA6BB82BD8B4B92BB95105
:10011000120808E2FF0A03E1B851870803E21B84D2
:10012000B96BB86B010EBC27D8B0BD2BD8B4BE2BB1
:10013000D8B4BF2BBF530AE1BE5308E1BD51C2087A
:100140000AE2FF0A03E1BC514F0805E21B86BF6BC0
:10015000BE6BBD6BBC6B9E9036EF00F0010EEA6E7D
:10016000180EE96EEF500DE00A0E016E006A002EC7
:10017000FED7012EFBD75F0E006E002EFED7EF2EAE
:10018000F3D71200EA6BE951EA5D1BE2EA51E72579
:10019000016E000EE821036E0150E96E03C0EAFF14
:1001A000EA51E625ED6FF2CFEEF0F29EEDC0A9FF29
:1001B000A69CA69EA680A850EEBFF28EEF6EEA2BFC
:1001C000E2D71200E4C0E9FFE5C0EAFFEFCFE8F0B4
:1001D000E7C003F0E6C0E9FFE7C0EAFFEF50E85DE3
:1001E00015E1E5C003F0E4C0E9FF03C0EAFFEF5208
:1001F00003E1000E016E1FD0E5C003F0E451E42BD3
:10020000D8B4E52BE62BD8B4E72BDCD7E5C003F058
:10021000E4C0E9FFE5C0EAFFEFCFE8F0E7C003F094
:10022000E6C0E9FFE7C0EAFFEF50E85D02E2FF0E3B
:1002300001D0010E016E8BEF01F001011E6B1D510B
:100240001E5D27E21E511A25206F1E511B25016ECF
:10025000000E1C21036E0150E96E03C0EAFFEFCFD0
:1002600021F1F250006EF29E20C1A9FF21C1A8FF2A
:10027000A69CA69EA6840F01550EA76EAA0EA76E79
:10028000A682A6B2FED7A6940050F21201011E2B40
:10029000D6D71F6B1E6B1D511E5D1FE21E511B2505
:1002A000016E000E1C21036E0150E96E03C0EAFFCF
:1002B000EFCF20F11E511A25216FF2CF22F1F29ECD
:1002C00021C1A9FFA69CA69EA680A85022BFF28E9F
:1002D000205D01E01F2B1E2BDED71F5304E0000E14
:1002E000016E03D002D0010E016E00011200FF0E5C
:1002F000926EF80E936E800E946EE66FE86BDB0ED6
:10030000E76F090EE96F3EDFE56BDB0EE46FE76B2D
:10031000780EE66F57D7015236E0696A6A6A6B6AEF
:100320006C6A6D6A6F6A050E6E6E716A0F0E706E82
:10033000736A726E756A746E776A766E010EDA6F22
:10034000030ED96F800E01011A6F1C6B780E1B6FA4
:10035000090E1D6F000171DF690EE46F01011A6B58
:100360001C6B1B6F0F0E1D6F000167DFD90EE46F52
:10037000900E01011A6F1C6BE4C01BF1020E1D6F81
:1003800000015BDF71D0CA0EE46FE66BE86BE76FCC
:100390000F0EE96FF7DECA51020802E2020E01D029
:1003A000CA51696ECB51010802E2000E01D0CB5157
:1003B0006A6ECC51010802E2000E01D0CC516B6E86
:1003C000CD51010802E2000E01D0CD516C6ECE512C
:1003D000010802E2000E01D0CE516D6ED05303E150
:1003E000CF51050803E2036A050E03D0D0C003F025
:1003F000CF516E6E03C06FF0D25303E1D1510F089D
:1004000003E2036A0F0E03D0D2C003F0D151706E25
:1004100003C071F0D45303E1D3510F0803E2036A20
:100420000F0E03D0D4C003F0D351726E03C073F02B
:10043000D65303E1D5510F0803E2036A0F0E03D030
:10044000D6C003F0D551746E03C075F0D85303E1E4
:10045000D7510F0803E2036A0F0E03D0D8C003F090
:10046000D751766E03C077F069B002D08B9001D07F
:100470008B809490D8906930010B02E18B9201D06F
:100480008B8294926BB002D08A9001D08A80939034
:100490006AB002D08A9201D08A8293926DB002D063
:1004A0008B9801D08B8894986CB002D08B9A01D035
:1004B0008B8A949A6FC050F06EC04FF071C056F0A6
:1004C00070C055F073C05CF072C05BF075C062F034
:1004D00074C061F077C068F076C067F0D7EF09F0BC
:1004E00093948A94AB980000AB88AB9E0000AB8ECF
:1004F000D9EF09F001011E691D691F6B1C511F5DB9
:100500001CE21F511A25E96E000E1B21EA6EEF5006
:100510001D1B080E206F20530EE01D51010B216F93
:10052000D8901E331D33212D04D0010E1D1BA00EAB
:100530001E1B2007F0D71F2BE1D71DC101F01EC1E4
:1005400002F00001120093948A849EA8FED793942F
:100550008A84010119C1ADFF0000ACA2FED79394BB
:100560008A940001120093948A849EA8FED79394E3
:100570008A84010118C1ADFF0000ACA2FED793949C
:100580008A940001120081C0B4F0B42D41D282C01F
:10059000B5F0B551030A07E0660AD8B4B7D0010A2E
:1005A000D8B466D12FD283C0DCF084C0DBF085C024
:1005B000DEF086C0DDF0D890DD35026EDE3502C09B
:1005C000DFF001011B6B810E1A6F060E1C6F00011C
:1005D00091DF02C014F101C013F188C003F087510C
:1005E0000101135D03E10350145D04E0000E016E90
:1005F00012D26DD00001DC5303E1DB51110806E299
:10060000000E016E010107D262D00001D890DD35E5
:100610000101186F0001DE350101196F195303E163
:100620001851440804E2000E016EF5D150D0050EB9
:100630000001DF25E06F010EE16F030EE26FDFC006
:10064000E3F00101196B470E186FD8900001DB35FC
:10065000026EDC35036E0250010118270350192386
:10066000EA6AE40EE96E19C1E2FF18C1E1FF000178
:10067000DF51016E04E0E6CFEEFF012EFCD7030E42
:10068000DF250101186F1B6BE10E1A6F18C11CF1F9
:10069000000130DF02C014F101C013F1030EDF25A9
:1006A000036AE10FE96E000E0320EA6E010113C137
:1006B00000F000C0EFFF040E0001DF25036AE10F28
:1006C000E96E000E0320EA6E01011451EF6E040E74
:1006D000186F000143DDC96BE051C95D0CE2036A8C
:1006E000C951E10FE96E000E0320EA6EEFCF19F158
:1006F0002ADFC92BF1D70D0E0101186F000133DF7E
:100700000A0E0101186F00012EDF81D183C0DCF0D9
:1007100084C0DBF00101166B85C015F115510F087F
:1007200002E1165303E0000E016E75D1050E15258A
:10073000186F000E1621196F1B6B810E1A6F18C1EE
:100740001CF10001D7DE02C014F101C013F1870EC5
:1007500001011525E96E000E1621EA6EEFCF03F0B8
:10076000860E1525E96E000E1621EA6EEFCF1DF1FB
:100770001D51135D03E10350145D03E0000E016E93
:100780004AD1EA6A690EE96EE26A860EE16E16C126
:1007900002F015C101F0015202E0022A02D0025219
:1007A00006E0E6CFEEFF012EFCD7022EFAD769B0A5
:1007B00002D08B9001D08B809490D8906930010B3F
:1007C00002E18B9201D08B8294926FC050F06EC088
:1007D0004FF071C056F070C055F073C05CF072C03D
:1007E0005BF075C062F074C061F077C068F076C0ED
:1007F00067F0690E186FDBC01AF11C6B1B6F0F0ED0
:100800001D6F00011ADD070EE06F010EE16F650E2E
:10081000E26FDCC0E3F00001DBC0E4F015C1E5F0FD
:1008200001011B6BE10E1A6F050E1C6F000162DEE9
:1008300002C014F101C013F113C1E6F0000114C1AC
:10084000E7F00001040E0101186F000187DCC96B9D
:10085000E051C95D0CE2036AC951E10FE96E000E77
:100860000320EA6EEFCF19F16EDEC92BF1D7CFD09E
:1008700083C0DCF084C0DBF00101166B85C015F18C
:100880001B6B810E1A6F050E1C6F000133DE02C058
:1008900014F101C013F187C003F086510101135D0B
:1008A00003E10350145D04E0000E016EB4D014D0D7
:1008B00015510001DB250101186F16510001DC21E3
:1008C0000101196F000808E2FF0A03E1185100084E
:1008D00003E2000E016E9FD0176B1751172B036AAE
:1008E000E10FE96E000E0320EA6E010EEF6E175164
:1008F000172B036AE10FE96E000E0320EA6E640E07
:10090000EF6E1751172B036AE10FE96E000E0320FB
:10091000EA6E0001DCC0EFFF01011751172B036ADB
:10092000E10FE96E000E0320EA6E0001DBC0EFFF6D
:1009300001011751172B036AE10FE96E000E032026
:10094000EA6E15C1EFFF0001C96B0101165305E105
:1009500015510001C95D1DE201011751172B036AF2
:10096000E10FE96E000E0320EA6E0001C951DB259C
:1009700001011A6FF2CF1BF1F29E1AC1A9FFA69CCA
:10098000A69EA680A8501BBFF28EEF6E0001C92B59
:10099000DCD701011B6BE10E1A6F17C11CF10001BE
:1009A000A9DD02C014F101C013F101011751172B89
:1009B000036AE10FE96E000E0320EA6E13C1EFFF38
:1009C0001751172B036AE10FE96E000E0320EA6E40
:1009D00014C1EFFF040E186F0001AEEC00F0C96BFC
:1009E000010117510001C95D0CE2036AC951E10F11
:1009F000E96E000E0320EA6EEFCF19F1A4DDC92BDA
:100A0000EFD705D0000E016E010105D0000103D023
:100A1000000E016E01010001F9EF09F0DC6B470ED9
:100A2000DB6F928C80AC14D0C02BC05163080FE2F6
:100A30006D5203E194988B8802D094988B986C52F5
:100A400003E1949A8B8A02D0949A8B9AC06B05D05A
:100A5000C06B94988B98949A8B9A928880A81AD09D
:100A6000C46BC36BC12BD8B4C22BC251060811E2B0
:100A7000FF0A03E1C151CF080CE2020EDB25E96E4B
:100A8000000EDC21EA6E010EEF6E93908A80C26B3D
:100A9000C16B1FD0C26BC16B6B2C05D093908A8049
:100AA000C46BC36B16D0C32BD8B4C42BC4511E085F
:100AB00010E2FF0A03E1C3513F080BE2020EDB25FF
:100AC000E96E000EDC21EA6EEF6A93908A90C46BA7
:100AD000C36B928A80AA1AD0C86BC76BC52BD8B4D7
:100AE000C62BC651060811E2FF0A03E1C551CF0823
:100AF0000CE293928A82010EDB25E96E000EDC2166
:100B0000EA6E010EEF6EC66BC56B1FD0C66BC56B70
:100B10006A2C05D093928A82C86BC76B16D0C72BFC
:100B2000D8B4C82BC8511E0810E2FF0A03E1C75110
:100B30003F080BE2010EDB25E96E000EDC21EA6EB8
:100B4000EF6A93928A92C86BC76B00EF0AF0D8B233
:100B500003D0EA6AE70EE96E006A016A026A036A74
:100B6000E76BE86BE96BEA6BE651E511E411E31121
:100B70002CE0200EEB6FD890DF37E037E137E2371B
:100B8000E737E837E937EA37E651EA5D08E1E5514A
:100B9000E95D05E1E451E85D02E1E351E75D0FE362
:100BA000E351E75FE451D8A0E43DE85FE551D8A008
:100BB000E53DE95FE651D8A0E63DEA5FD880003622
:100BC000013602360336EB2FD6D7E7C0EFFFE8C079
:100BD000ECFFE9C0ECFFEAC0ECFF1200DE6B470E51
:100BE000DD6F000E016EC250C30B0110C26E070E06
:100BF000006E002EFED700D0C282C2B2FED7C4CF94
:100C0000DCF0C3CFDBF01D50DC5D08E303E1DB511A
:100C10001C5C04E2DCC01DF0DBC01CF0DC511F5C7E
:100C200008E303E11E50DB5D04E2DCC01FF0DBC023
:100C30001EF0040E016EC250C30B0110C26E070EEF
:100C4000006E002EFED700D0C282C2B2FED7C4CF43
:100C5000DCF0C3CFDBF02150DC5D08E303E1DB51C6
:100C6000205C04E2DCC021F0DBC020F0DC51235C1E
:100C700008E303E12250DB5D04E2DCC023F0DBC0CB
:100C800022F0080E016EC250C30B0110C26E070E97
:100C9000006E002EFED700D0C282C2B2FED7C4CFF3
:100CA000DCF0C3CFDBF02550DC5D08E303E1DB5172
:100CB000245C04E2DCC025F0DBC024F0DC51275CBE
:100CC00008E303E12650DB5D04E2DCC027F0DBC073
:100CD00026F00C0E016EC250C30B0110C26E070E3F
:100CE000006E002EFED700D0C282C2B2FED7C4CFA3
:100CF000DCF0C3CFDBF02950DC5D08E303E1DB511E
:100D0000285C04E2DCC029F0DBC028F0DC512B5C5D
:100D100008E303E12A50DB5D04E2DCC02BF0DBC01A
:100D20002AF0446A1F501D5C0CE303E11E501C5C5A
:100D300008E31E501C5C006E1F501D58036E0050CF
:100D400002D0036A000E2C6E03C02DF02C50342606
:100D50002D503522000E362237222350215C0CE321
:100D600003E12250205C08E32250205C006E2350F7
:100D70002158036E005002D0036A000E2E6E03C08D
:100D80002FF02E5038262F503922000E3A223B22C7
:100D90002750255C0CE303E12650245C08E3265031
:100DA000245C006E27502558036E005002D0036A61
:100DB000000E306E03C031F030503C2631503D22E1
:100DC000000E3E223F222B50295C0CE303E12A5007
:100DD000285C08E32A50285C006E2B502958036ECB
:100DE000005002D0036A000E326E03C033F032505E
:100DF000402633504122000E42224322452AD8B4D5
:100E0000462A46501208D8B03AD2FF0A04E14550AB
:100E10008708D8B034D21B8C466A456AD89237C04E
:100E2000E2F036C0E1F035C0E0F034C0DFF0E66B50
:100E3000E56B130EE46F880EE36F89DE03C037F0B5
:100E400002C036F001C035F000C034F0D8923BC08B
:100E5000E2F03AC0E1F039C0E0F038C0DFF0E66B14
:100E6000E56B130EE46F880EE36F71DE03C03BF099
:100E700002C03AF001C039F000C038F0D8923FC04B
:100E8000E2F03EC0E1F03DC0E0F03CC0DFF0E66BD8
:100E9000E56B130EE46F880EE36F59DE03C03FF07D
:100EA00002C03EF001C03DF000C03CF0D89243C00B
:100EB000E2F042C0E1F041C0E0F040C0DFF0E66B9C
:100EC000E56B130EE46F880EE36F41DE03C043F061
:100ED00002C042F001C041F000C040F00E0EDD251E
:100EE000E96E000EDE21EA6EECCF03F0ED52EFCF9B
:100EF00001F037520EE136520CE13550035C09E344
:100F000003E10150345C05E2006A016A026A036A87
:100F100015D00E0EDD25E96E000EDE21EA6EECCF57
:100F200003F0ED52EF50345C006E03503558016E03
:100F3000000E3658026E000E3758036E03C037F0AD
:100F400002C036F001C035F000C034F0140EDD25CB
:100F5000E96E000EDE21EA6EECCF03F0ED52EFCF2A
:100F600001F03B520EE13A520CE13950035C09E3C7
:100F700003E10150385C05E2006A016A026A036A13
:100F800015D0140EDD25E96E000EDE21EA6EECCFE1
:100F900003F0ED52EF50385C006E03503958016E8B
:100FA000000E3A58026E000E3B58036E03C03BF031
:100FB00002C03AF001C039F000C038F01A0EDD2549
:100FC000E96E000EDE21EA6EECCF03F0ED52EFCFBA
:100FD00001F03F520EE13E520CE13D50035C09E34B
:100FE00003E101503C5C05E2006A016A026A036A9F
:100FF00015D01A0EDD25E96E000EDE21EA6EECCF6B
:1010000003F0ED52EF503C5C006E03503D58016E12
:10101000000E3E58026E000E3F58036E03C03FF0B4
:1010200002C03EF001C03DF000C03CF0200EDD25C6
:10103000E96E000EDE21EA6EECCF03F0ED52EFCF49
:1010400001F043520EE142520CE14150035C09E3CE
:1010500003E10150405C05E2006A016A026A036A2A
:1010600015D0200EDD25E96E000EDE21EA6EECCFF4
:1010700003F0ED52EF50405C006E03504158016E9A
:10108000000E4258026E000E4358036E03C043F038
:1010900002C042F001C041F000C040F00C0EDD255E
:1010A000E96E000EDE21EA6E35C0ECFFED5234C071
:1010B000EFFF120EDD25E96E000EDE21EA6E39C06B
:1010C000ECFFED5238C0EFFF180EDD25E96E000E83
:1010D000DE21EA6E3DC0ECFFED523CC0EFFF1E0E7C
:1010E000DD25E96E000EDE21EA6E41C0ECFFED5217
:1010F00040C0EFFF0A0EDD25016E000EDE21036EFB
:1011000001C0DFF0E06F080EDD25E96E000EDE2184
:10111000EA6EECCF03F0ED52EFCF01F0375209E168
:10112000365207E10350355C06E303E10150345CBD
:1011300002E3010E01D0000EE0C0EAFFDFC0E9FFCC
:10114000EF6E100EDD25016E000EDE21036E01C074
:10115000DFF0E06F080EDD25E96E000EDE21EA6E9D
:10116000ECCF03F0ED52EFCF01F03B5209E13A52E0
:1011700007E10350395C06E303E10150385C02E308
:10118000010E01D0000EE0C0EAFFDFC0E9FFEF6E04
:10119000160EDD25016E000EDE21036E01C0DFF0AC
:1011A000E06F080EDD25E96E000EDE21EA6EECCF61
:1011B00003F0ED52EFCF01F03F5209E13E5207E15B
:1011C00003503D5C06E303E101503C5C02E3010E89
:1011D00001D0000EE0C0EAFFDFC0E9FFEF6E1C0E99
:1011E000DD25016E000EDE21036E01C0DFF0E06F31
:1011F000080EDD25E96E000EDE21EA6EECCF03F06D
:10120000ED52EFCF01F0435209E1425207E10350A2
:10121000415C06E303E10150405C02E3010E01D0B2
:10122000000EE0C0EAFFDFC0E9FFEF6E020E1D6EA8
:101230001C6A1F6E1E6A2D6A2C6A376A366A356A06
:10124000346A216E206A236E226A2F6A2E6A3B6AF4
:101250003A6A396A386A256E246A276E266A316AC4
:10126000306A3F6A3E6A3D6A3C6A296E286A2B6E84
:101270002A6A336A326A436A426A416A406A0BEFF9
:101280000AF0F86AD09E078E700ED36E400E9B6EE9
:10129000D350B886440EAF6E000EB06EA60EAC6E84
:1012A000900EAB6E93948A94B886440EAF6E000E87
:1012B000B06EA60EAC6E900EAB6E93948A94C15035
:1012C000C00B0F09C16E070EB46E1B901B921B94CE
:1012D0001B961B981B9A1B9C1B9EB79110D002005B
:1012E0001900005C401C000980532D436C6173732E
:1012F00044000400B3000000002340B80000000ECA
:10130000F86E120EF76EDE0EF66E0900F550006EE6
:10131000000A13E00900F550016EE8BE05D03F0B4E
:10132000EA6E0900F5CFE9FF01BC090001AC090034
:10133000F5CFEEFF004EE9D7F9D7F86A850ECD6EEE
:10134000F90ECF6EE40ECE6EC150C00B0B09C16E0C
:10135000C050C00B3609C06EC08EC280C69A949A27
:1013600094889496010EC66E000EC76ED190949824
:101370008B98949A8B9A93928A8293908A800C0E7F
:10138000DB6FFA0E0101186F0001AEEC00F0DB2FED
:10139000F8D793928A9293908A9094948B8494969F
:1013A0008B8694908B9094928B9277EF01F070EFF4
:1013B00002F0D180D1809D809D8AC00EF212B66B62
:1013C000B79104001BA211D0ABA203D0AB980000D0
:1013D000AB88B7A109D0B62BB651140805E2AB987B
:1013E000B791B36B1B8EB66B1B921BAE04D0C3EFD1
:1013F00002F0AB881B9E1BA003D01B900EEF05F0E4
:101400001BA601D01B961BA401D01B941BAA03D0C2
:0A1410001B9AEEEF05F0D5D703009C
:020000040030CA
:0E00000000C8061B0087B100008003E003402B
:00000001FF
;PIC18F2321
;CRC=CAB0  CREATED="31-Jul-22 18:46"
