:04000000D2EF08F043
:08000800046ED8CF05F0E0CF33
:1000100006F00001E9CF0CF0EACF07F0E1CF08F0DD
:10002000E2CF09F0D9CF0AF0DACF0BF0F3CF12F01C
:10003000F4CF13F0FACF14F0F5CF15F0F6CF16F099
:10004000F7CF17F000C00EF001C00FF002C010F0A3
:1000500003C011F09DA030EF00F09EB072EF00F0F1
:100060009DAA36EF00F09EBA5DEF00F00EC000F0E2
:100070000FC001F010C002F011C003F00CC0E9FF86
:1000800007C0EAFF078E08C0E1FF09C0E2FF0AC00F
:10009000D9FF0BC0DAFF12C0F3FF13C0F4FF14C086
:1000A000FAFF15C0F5FF16C0F6FF17C0F7FF0450A2
:1000B00006C0E0FF05C0D8FF1000AECF18F1B35165
:1000C000B32B036A810FE96E000E0320EA6E18C19C
:1000D000EFFFB351320801E2B36BB66B1B8E9E9AF1
:1000E00036EF00F0F30ECF6EA40ECE6E1B88B92B48
:1000F000D8B4BA2BBA5303E1B951040804E21B8007
:100100001B82BA6BB96BB72BD8B4B82BB851120895
:1001100008E2FF0A03E1B751870803E21B84B86BCA
:10012000B76B010EBB27D8B0BC2BD8B4BD2BD8B44D
:10013000BE2BBE530AE1BD5308E1BC51C2080AE21E
:10014000FF0A03E1BB514F0805E21B86BE6BBD6B86
:10015000BC6BBB6B9E9036EF00F0010EEA6E0D0E8D
:10016000E96EEF500EE0140E016E006A002EFED70D
:10017000012EFBD7BF0E006E002EFED700D0EF2E53
:10018000F2D71200DF6BDE51DF5D1CE2DF51DC25B0
:10019000016E000EDD21036E0150E96E03C0EAFF1F
:1001A000DF51DB25E26FF2CFE3F0F29EAA6AE2C0F4
:1001B000A9FFA69CA69EA680A850E3BFF28EEF6E74
:1001C000DF2BE1D71200D9C0E9FFDAC0EAFFEFCF99
:1001D000DDF0DCC003F0DBC0E9FFDCC0EAFFEF507C
:1001E000DD5D15E1DAC003F0D9C0E9FF03C0EAFF25
:1001F000EF5203E1000E016E1FD0DAC003F0D951B7
:10020000D92BD8B4DA2BDB2BD8B4DC2BDCD7DAC073
:1002100003F0D9C0E9FFDAC0EAFFEFCFDDF0DCC0C0
:1002200003F0DBC0E9FFDCC0EAFFEF50DD5D02E276
:10023000FF0E01D0010E016E93EF01F00101136B6F
:100240001251135D28E213510F25156F135110251C
:10025000016E000E1121036E0150E96E03C0EAFF2A
:10026000EFCF16F1F250006EF29EAA6A15C1A9FFF7
:1002700016C1A8FFA69CA69EA6840F01550EA76EC8
:10028000AA0EA76EA682A6B2FED7A6940050F212BE
:100290000101132BD5D7146B136B1251135D20E2A0
:1002A00013511025016E000E1121036E0150E96EED
:1002B00003C0EAFFEFCF15F113510F25166FF2CFF0
:1002C00017F1F29EAA6A16C1A9FFA69CA69EA68057
:1002D000A85017BFF28E155D01E0142B132BDDD74C
:1002E000145304E0000E016E03D002D0010E016E23
:1002F00000011200FF0E926EF80E936E800E946E47
:100300000F013A6B396BE80E0001DB6FDD6BD00E2D
:10031000DC6F090EDE6F36DFDA6BD00ED96FDC6B67
:10032000780EDB6F50D7015226E0696B6A6B6B6BFE
:100330006C6B6D6B6F6B050E6E6F716B0F0E706F6C
:10034000736B726F756B746F776B766FE80E01016C
:100350000F6F116B780E106F090E126F00016EDFB8
:10036000690ED96F01010F6B116B106F0F0E126FB9
:10037000000164DF71D0C10ED96FDB6BDD6BDC6F08
:100380000F0EDE6FFFDEC151020802E2020E01D045
:10039000C151696FC251010802E2000E01D0C25181
:1003A0006A6FC351010802E2000E01D0C3516B6FA6
:1003B000C451010802E2000E01D0C4516C6FC55156
:1003C000010802E2000E01D0C5516D6FC75303E171
:1003D000C651050803E2036A050E03D0C7C003F047
:1003E000C6516E6F03C06FF0C95303E1C8510F08C7
:1003F00003E2036A0F0E03D0C9C003F0C851706F47
:1004000003C071F0CB5303E1CA510F0803E2036A42
:100410000F0E03D0CBC003F0CA51726F03C073F04C
:10042000CD5303E1CC510F0803E2036A0F0E03D052
:10043000CDC003F0CC51746F03C075F0CF5303E10E
:10044000CE510F0803E2036A0F0E03D0CFC003F0B2
:10045000CE51766F03C077F069B102D08B9001D096
:100460008B809490D8906931010B02E18B9201D07E
:100470008B8294926BB102D08A9001D08A80939043
:100480006AB102D08A9201D08A8293926DB102D071
:100490008B9801D08B8894986CB102D08B9A01D044
:1004A0008B8A949A6FC050F06EC04FF071C056F0B6
:1004B00070C055F073C05CF072C05BF075C062F044
:1004C00074C061F077C068F076C067F069EF09F03A
:1004D00093948A94AB980000AB88AB9E0000AB8EDF
:1004E0006BEF09F0010113691269146B1151145D6E
:1004F0001CE214510F25E96E000E1021EA6EEF5038
:10050000121B080E156F15530EE01251010B166FDA
:10051000D89013331233162D04D0010E121BA00EE7
:10052000131B1507F0D7142BE1D712C101F013C12B
:1005300002F00001120093948A849EA8FED793943F
:100540008A8401010EC1ADFF0000ACA2FED79394D6
:100550008A940001120093948A849EA8FED79394F3
:100560008A8401010DC1ADFF0000ACA2FED79394B7
:100570008A940001120081C0B4F0B42D50D282C020
:10058000B5F0B551030A07E0660AD8B4B7D0010A3E
:10059000D8B474D13ED283C0D1F084C0D0F085C02D
:1005A000D3F086C0D2F0D890D235026ED33502C0D7
:1005B000D4F00101106B810E0F6F060E116F000158
:1005C00091DF02C009F101C008F188C003F0875132
:1005D0000101085D03E10350095D04E0000E016EB6
:1005E00021D26DD00001D15303E1D051110806E2B0
:1005F000000E016E010116D262D00001D890D235F2
:1006000001010D6F0001D33501010E6F0E5303E19F
:100610000D51440804E2000E016E04D250D0050EC4
:100620000001D425D56F010ED66F030ED76FD4C04D
:10063000D8F001010E6B470E0D6FD8900001D03538
:10064000026ED135036E025001010D2703500E23B7
:10065000EA6AD90EE96E0EC1E2FF0DC1E1FF0001A9
:10066000D451016E04E0E6CFEEFF012EFCD7030E5D
:10067000D42501010D6F106BD60E0F6F0DC111F156
:10068000000130DF02C009F101C008F1030ED425DA
:10069000036AD60FE96E000E0320EA6E010108C15D
:1006A00000F000C0EFFF040E0001D425036AD60F4E
:1006B000E96E000E0320EA6E01010951EF6E040E8F
:1006C0000D6F00014ADDC06BD551C05D0CE2036ABD
:1006D000C051D60FE96E000E0320EA6EEFCF0EF187
:1006E0002ADFC02BF1D70D0E01010D6F000133DFA2
:1006F0000A0E01010D6F00012EDF90D183C0D1F0F1
:1007000084C0D0F001010B6B85C00AF10A510F08BB
:1007100002E10B5303E0000E016E84D1050E0A25A1
:100720000D6F000E0B210E6F106B810E0F6F0DC140
:1007300011F10001D7DE02C009F101C008F1870EF6
:1007400001010A25E96E000E0B21EA6EEFCF03F0DE
:10075000860E0A25E96E000E0B21EA6EEFCF12F12C
:100760001251085D03E10350095D03E0000E016EC4
:1007700059D1EA6A690EE96EE26A860EE16E0BC132
:1007800002F00AC101F0015202E0022A02D0025234
:1007900006E0E6CFEEFF012EFCD7022EFAD70001CD
:1007A00069B102D08B9001D08B809490D890693140
:1007B000010B02E18B9201D08B8294926BB102D03B
:1007C0008A9001D08A8093906AB102D08A9201D037
:1007D0008A8293926FC050F06EC04FF071C056F095
:1007E00070C055F073C05CF072C05BF075C062F011
:1007F00074C061F077C068F076C067F00101690EDF
:100800000D6FD0C00FF1116B106F0F0E126F000142
:1008100015DD070ED56F010ED66F650ED76FD1C0EF
:10082000D8F00001D0C0D9F00AC1DAF00101106B94
:10083000D60E0F6F050E116F000154DE02C009F1D4
:1008400001C008F108C1DBF0000109C1DCF00001C2
:10085000040E01010D6F000180DCC06BD551C05D3D
:100860000CE2036AC051D60FE96E000E0320EA6E57
:10087000EFCF0EF160DEC02BF1D7D0D083C0D1F026
:1008800084C0D0F001010B6B85C00AF1106B810EA2
:100890000F6F050E116F000125DE02C009F101C0C6
:1008A00008F187C003F086510101085D03E10350A0
:1008B000095D04E0000E016EB5D014D00A510001AC
:1008C000D02501010D6F0B510001D12101010E6FE7
:1008D000000808E2FF0A03E10D51000803E2000EE0
:1008E000016EA0D00C6B0C510C2B036AD60FE96E75
:1008F000000E0320EA6E010EEF6E0C510C2B036A02
:10090000D60FE96E000E0320EA6E640EEF6E0C51F6
:100910000C2B036AD60FE96E000E0320EA6E00016D
:10092000D1C0EFFF01010C510C2B036AD60FE96E09
:10093000000E0320EA6E0001D0C0EFFF01010C5150
:100940000C2B036AD60FE96E000E0320EA6E0AC173
:10095000EFFF0001C06B01010B5305E10A510001DB
:10096000C05D1EE201010C510C2B036AD60FE96E2B
:10097000000E0320EA6E0001C051D02501010F6F67
:10098000F2CF10F1F29EAA6A0FC1A9FFA69CA69E03
:10099000A680A85010BFF28EEF6E0001C02BDBD7EF
:1009A0000101106BD60E0F6F0CC111F100019ADD21
:1009B00002C009F101C008F101010C510C2B036ABE
:1009C000D60FE96E000E0320EA6E08C1EFFF0C514E
:1009D0000C2B036AD60FE96E000E0320EA6E09C1E4
:1009E000EFFF040E0D6F0001ADEC00F0C06B0101D4
:1009F0000C510001C05D0CE2036AC051D60FE96ED4
:100A0000000E0320EA6EEFCF0EF195DDC02BEFD77D
:100A100005D0000E016E010105D0000103D0000ECB
:100A2000016E0101000188EF09F0928C80AC14D0B6
:100A3000BF2BBF5163080FE26D5303E194988B887D
:100A400002D094988B986C5303E1949A8B8A02D0CD
:100A5000949A8B9ABF6B05D0BF6B94988B98949A9D
:100A60008B9A8FEF09F0D8B203D0EA6ADC0EE96EF8
:100A7000006A016A026A036ADC6BDD6BDE6BDF6BA6
:100A8000DB51DA11D911D8112CE0200EE06FD8908B
:100A9000D437D537D637D737DC37DD37DE37DF37D2
:100AA000DB51DF5D08E1DA51DE5D05E1D951DD5D45
:100AB00002E1D851DC5D0FE3D851DC5FD951D8A0F9
:100AC000D93DDD5FDA51D8A0DA3DDE5FDB51D8A039
:100AD000DB3DDF5FD8800036013602360336E02F7B
:100AE000D6D7DCC0EFFFDDC0ECFFDEC0ECFFDFC01F
:100AF000ECFF1200D36B470ED26F000E016EC25096
:100B0000830B0110C26E0F0E006E002EFED700D0B8
:100B1000C282C2B2FED7C4CFD1F0C3CFD0F01D5035
:100B2000D15D08E303E1D0511C5C04E2D1C01DF0AB
:100B3000D0C01CF0D1511F5C08E303E11E50D05D12
:100B400004E2D1C01FF0D0C01EF0040E016EC250EE
:100B5000830B0110C26E0F0E006E002EFED700D068
:100B6000C282C2B2FED7C4CFD1F0C3CFD0F02150E1
:100B7000D15D08E303E1D051205C04E2D1C021F053
:100B8000D0C020F0D151235C08E303E12250D05DB6
:100B900004E2D1C023F0D0C022F0080E016EC25092
:100BA000830B0110C26E0F0E006E002EFED700D018
:100BB000C282C2B2FED7C4CFD1F0C3CFD0F025508D
:100BC000D15D08E303E1D051245C04E2D1C025F0FB
:100BD000D0C024F0D151275C08E303E12650D05D5A
:100BE00004E2D1C027F0D0C026F00C0E016EC25036
:100BF000830B0110C26E0F0E006E002EFED700D0C8
:100C0000C282C2B2FED7C4CFD1F0C3CFD0F0295038
:100C1000D15D08E303E1D051285C04E2D1C029F0A2
:100C2000D0C028F0D1512B5C08E303E12A50D05DFD
:100C300004E2D1C02BF0D0C02AF0442A445004086A
:100C4000D8B0AED2446A1F501D5C0CE303E11E50C5
:100C50001C5C08E31E501C5C006E1F501D58036E88
:100C6000005002D0036A000E2C6E03C02DF02C50F1
:100C700034262D503522000E362237222350215C97
:100C80000CE303E12250205C08E32250205C006E5C
:100C900023502158036E005002D0036A000E2E6EBE
:100CA00003C02FF02E5038262F503922000E3A2242
:100CB0003B222750255C0CE303E12650245C08E32B
:100CC0002650245C006E27502558036E005002D039
:100CD000036A000E306E03C031F030503C263150B4
:100CE0003D22000E3E223F222B50295C0CE303E103
:100CF0002A50285C08E32A50285C006E2B502958A3
:100D0000036E005002D0036A000E326E03C033F04F
:100D10003250402633504122000E42224322452ABF
:100D2000D8B4462A46501208D8B03AD2FF0A04E195
:100D300045508708D8B034D21B8A466A456AD89293
:100D400037C0D7F036C0D6F035C0D5F034C0D4F0B7
:100D5000DB6BDA6B130ED96F880ED86F84DE03C09D
:100D600037F002C036F001C035F000C034F0D89240
:100D70003BC0D7F03AC0D6F039C0D5F038C0D4F077
:100D8000DB6BDA6B130ED96F880ED86F6CDE03C085
:100D90003BF002C03AF001C039F000C038F0D89200
:100DA0003FC0D7F03EC0D6F03DC0D5F03CC0D4F037
:100DB000DB6BDA6B130ED96F880ED86F54DE03C06D
:100DC0003FF002C03EF001C03DF000C03CF0D892C0
:100DD00043C0D7F042C0D6F041C0D5F040C0D4F0F7
:100DE000DB6BDA6B130ED96F880ED86F3CDE03C055
:100DF00043F002C042F001C041F000C040F00E0ECE
:100E0000D225E96E000ED321EA6EECCF03F0ED524D
:100E1000EFCF01F037520EE136520CE13550035C52
:100E200009E303E10150345C05E2006A016A026AE9
:100E3000036A15D00E0ED225E96E000ED321EA6E9C
:100E4000ECCF03F0ED52EF50345C006E0350355898
:100E5000016E000E3658026E000E3758036E03C046
:100E600037F002C036F001C035F000C034F0140E87
:100E7000D225E96E000ED321EA6EECCF03F0ED52DD
:100E8000EFCF01F03B520EE13A520CE13950035CD6
:100E900009E303E10150385C05E2006A016A026A75
:100EA000036A15D0140ED225E96E000ED321EA6E26
:100EB000ECCF03F0ED52EF50385C006E0350395820
:100EC000016E000E3A58026E000E3B58036E03C0CE
:100ED0003BF002C03AF001C039F000C038F01A0E01
:100EE000D225E96E000ED321EA6EECCF03F0ED526D
:100EF000EFCF01F03F520EE13E520CE13D50035C5A
:100F000009E303E101503C5C05E2006A016A026A00
:100F1000036A15D01A0ED225E96E000ED321EA6EAF
:100F2000ECCF03F0ED52EF503C5C006E03503D58A7
:100F3000016E000E3E58026E000E3F58036E03C055
:100F40003FF002C03EF001C03DF000C03CF0200E7A
:100F5000D225E96E000ED321EA6EECCF03F0ED52FC
:100F6000EFCF01F043520EE142520CE14150035CDD
:100F700009E303E10150405C05E2006A016A026A8C
:100F8000036A15D0200ED225E96E000ED321EA6E39
:100F9000ECCF03F0ED52EF50405C006E035041582F
:100FA000016E000E4258026E000E4358036E03C0DD
:100FB00043F002C042F001C041F000C040F00C0E0E
:100FC000D225E96E000ED321EA6E35C0ECFFED525A
:100FD00034C0EFFF120ED225E96E000ED321EA6E67
:100FE00039C0ECFFED5238C0EFFF180ED225E96E84
:100FF000000ED321EA6E3DC0ECFFED523CC0EFFF86
:101000001E0ED225E96E000ED321EA6E41C0ECFF20
:10101000ED5240C0EFFF0A0ED225016E000ED32123
:10102000036E01C0D4F0D56F080ED225E96E000E14
:10103000D321EA6EECCF03F0ED52EFCF01F037523F
:1010400009E1365207E10350355C06E303E1015044
:10105000345C02E3010E01D0000ED5C0EAFFD4C01B
:10106000E9FFEF6E100ED225016E000ED321036E44
:1010700001C0D4F0D56F080ED225E96E000ED32141
:10108000EA6EECCF03F0ED52EFCF01F03B5209E1F5
:101090003A5207E10350395C06E303E10150385C42
:1010A00002E3010E01D0000ED5C0EAFFD4C0E9FF73
:1010B000EF6E160ED225016E000ED321036E01C015
:1010C000D4F0D56F080ED225E96E000ED321EA6E5A
:1010D000ECCF03F0ED52EFCF01F03F5209E13E5269
:1010E00007E103503D5C06E303E101503C5C02E391
:1010F000010E01D0000ED5C0EAFFD4C0E9FFEF6EAB
:101100001C0ED225016E000ED321036E01C0D4F057
:10111000D56F080ED225E96E000ED321EA6EECCF12
:1011200003F0ED52EFCF01F0435209E1425207E1E3
:101130000350415C06E303E10150405C02E3010E11
:1011400001D0000ED5C0EAFFD4C0E9FFEF6E020E59
:101150001D6E1C6A1F6E1E6A2D6A2C6A376A366AFB
:10116000356A346A216E206A236E226A2F6A2E6ADB
:101170003B6A3A6A396A386A256E246A276E266A9B
:10118000316A306A3F6A3E6A3D6A3C6A296E286A63
:101190002B6E2A6A336A326A436A426A416A406A3B
:1011A0009AEF09F0F86AD09E078E700ED36E9B8C72
:1011B0009B9EB8868A0EAF6E000EB06EA60EAC6E09
:1011C000900EAB6E93948A94B8868A0EAF6E000E22
:1011D000B06EA60EAC6E900EAB6E93948A940F0117
:1011E000386B396B3A6B776A786A796A1B901B9215
:1011F0001B941B961B981B9A1B9C1B9E0DD00200D8
:101200001900005C401C000980532D436C6173730E
:1012100044001D40B3000000000EF86E110EF76E82
:10122000FE0EF66E0900F550006E000A13E009008C
:10123000F550016EE8BE05D03F0BEA6E0900F5CF10
:10124000E9FF01BC090001AC0900F5CFEEFF004E3B
:10125000E9D7F9D7F86A070ECD6ECC6AF30ECF6ED8
:101260006C0ECE6EC150F00BC16E0F0E386F000EBB
:10127000396F3A6FC050C00B3609C06EC08EC28045
:10128000C69A949A94889496010EC66E000EC76E04
:1012900094988B98949A8B9A93928A8293908A804E
:1012A000780E0001D06FFA0E01010D6F0001ADEC58
:1012B00000F0D02FF8D793928A9293908A909494CA
:1012C0008B8494968B8694908B9094928B927AEFE9
:1012D00001F068EF02F09D809D8AC00EF212B66B9D
:1012E0001B9E1BA211D0ABA203D0AB980000AB8811
:1012F0001BAE09D0B62BB651140805E2AB981B9E65
:10130000B36B1B8CB66B1B921BAC04D0BBEF02F013
:10131000AB881B9C1BA003D01B9015EF05F01BA6F0
:1013200001D01B961BA401D01B941BA803D01B98B3
:081330007AEF05F0D6D70300A7
:020000040030CA
:0E00000000E8061400BF81000FC00FE00F40A3
:00000001FF
;PIC18F26K22
;CRC=631A  CREATED="16-Mar-22 15:25"
