:0400000046EF09F0CE
:08000800046ED8CF05F0E0CF33
:1000100006F00001E9CF0CF0EACF07F0E1CF08F0DD
:10002000E2CF09F0D9CF0AF0DACF0BF0F3CF12F01C
:10003000F4CF13F0FACF14F0F5CF15F0F6CF16F099
:10004000F7CF17F000C00EF001C00FF002C010F0A3
:1000500003C011F09DA030EF00F09EB072EF00F0F1
:100060009DAA36EF00F09EBA5DEF00F00EC000F0E2
:100070000FC001F010C002F011C003F00CC0E9FF86
:1000800007C0EAFF078E08C0E1FF09C0E2FF0AC00F
:10009000D9FF0BC0DAFF12C0F3FF13C0F4FF14C086
:1000A000FAFF15C0F5FF16C0F6FF17C0F7FF0450A2
:1000B00006C0E0FF05C0D8FF1000AECF25F1BC514F
:1000C000BC2B036A8A0FE96E000E0320EA6E25C17D
:1000D000EFFFBC51320801E2BC6BBF6B1B8E9E9AD6
:1000E00036EF00F0F30ECF6EA40ECE6E1B88C22B3F
:1000F000D8B4C32BC35303E1C251040804E21B80EC
:100100001B82C36BC26BC02BD8B4C12BC151120868
:1001100008E2FF0A03E1C051870803E21B84C16BB8
:10012000C06B010EC427D8B0C52BD8B4C62BD8B429
:10013000C72BC7530AE1C65308E1C551C2080AE2FA
:10014000FF0A03E1C4514F0805E21B86C76BC66B6B
:10015000C56BC46B9E9036EF00F0010EEA6E180E70
:10016000E96EEF500EE0140E016E006A002EFED70D
:10017000012EFBD7BF0E006E002EFED700D0EF2E53
:10018000F2D71200EB6BEA51EB5D20E2EB51E82570
:10019000016E000EE921036E0150E96E03C0EAFF13
:1001A000EB51E625EE6F000EE721EF6FF2CFF0F096
:1001B000F29EEFC0AAFFEEC0A9FFA69CA69EA68055
:1001C000A850F0BFF28EEF6EEB2BDDD71200E4C02B
:1001D000E9FFE5C0EAFFEFCFE8F0E7C003F0E6C0D3
:1001E000E9FFE7C0EAFFEF50E85D15E1E5C003F085
:1001F000E4C0E9FF03C0EAFFEF5203E1000E016E25
:100200001FD0E5C003F0E451E42BD8B4E52BE62B76
:10021000D8B4E72BDCD7E5C003F0E4C0E9FFE5C0C4
:10022000EAFFEFCFE8F0E7C003F0E6C0E9FFE7C080
:10023000EAFFEF50E85D02E2FF0E01D0010E016E11
:10024000A2EF01F001011F6B1E511F5D2CE21F5137
:100250001A25216F000E1B21226F1F511C25016ED4
:10026000000E1D21036E0150E96E03C0EAFFEFCFBF
:1002700023F1F250006EF29E22C1AAFF21C1A9FF14
:1002800023C1A8FFA69CA69EA6840F01550EA76EAB
:10029000AA0EA76EA682A6B2FED7A6940050F212AE
:1002A00001011F2BD1D7206B1F6B1E511F5D24E254
:1002B0001F511C25016E000E1D21036E0150E96EB9
:1002C00003C0EAFFEFCF21F11F511A25226F000E64
:1002D0001B21236FF2CF24F1F29E23C1AAFF22C17A
:1002E000A9FFA69CA69EA680A85024BFF28E215DE1
:1002F00001E0202B1F2BD9D7205304E0000E016E04
:1003000003D002D0010E016E00011200FF0E926EAA
:10031000F80E936E800E946E0F0E0F01386F396BCE
:100320003A6B0001E76B800EE66FE96BDB0EE86F5E
:10033000090EEA6F27DFE56BDB0EE46FE76B780EE3
:10034000E66F45D7015244E0696B6A6B6B6B6C6B6F
:100350006D6B6F6B050E6E6F716B0F0E706F736B45
:10036000726F756B746F776B766F010EDA6F030EB9
:10037000D96F01011B6B800E1A6F1D6B780E1C6FFD
:10038000090E1E6F00015EDF690EE46F01011B6B39
:100390001A6B1D6B1C6F0F0E1E6F000153DFD90E01
:1003A000E46F01011B6B900E1A6F1D6BE4C01CF112
:1003B000020E1E6F000146DF01011B6BA00E1A6FBB
:1003C0001D6B810E1C6F090E1E6F00013BDF72D08A
:1003D000CA0EE46FE76BE66BE96BE86F0F0EEA6F2E
:1003E000D1DECA51020802E2020E01D0CA51696F81
:1003F000CB51010802E2000E01D0CB516A6FCC5103
:10040000010802E2000E01D0CC516B6FCD51010802
:1004100002E2000E01D0CD516C6FCE51010802E214
:10042000000E01D0CE516D6FD05303E1CF510508BE
:1004300003E2036A050E03D0D0C003F0CF516E6F04
:1004400003C06FF0D25303E1D1510F0803E2036AF6
:100450000F0E03D0D2C003F0D151706F03C071F002
:10046000D45303E1D3510F0803E2036A0F0E03D004
:10047000D4C003F0D351726F03C073F0D65303E1BD
:10048000D5510F0803E2036A0F0E03D0D6C003F064
:10049000D551746F03C075F0D85303E1D7510F08DD
:1004A00003E2036A0F0E03D0D8C003F0D751766F72
:1004B00003C077F069B102D08B9001D08B8094900B
:1004C000D8906931010B02E18B9201D08B8294921A
:1004D0006BB102D08A9001D08A8093906AB102D029
:1004E0008A9201D08A8293926DB102D08B9801D00A
:1004F0008B8894986CB102D08B9A01D08B8A949A95
:100500006FC050F06EC04FF071C056F070C055F023
:1005100073C05CF072C05BF075C062F074C061F0D3
:1005200077C068F076C067F0E1EF09F093948A94A1
:10053000AB980000AB88AB9E0000AB8EE3EF09F0F8
:1005400001011E691D691F6B1C511F5D1CE21F51BB
:100550001A25E96E000E1B21EA6EEF501D1B080ED6
:10056000206F20530EE01D51010B216FD8901E33D8
:100570001D33212D04D0010E1D1BA00E1E1B2007B4
:10058000F0D71F2BE1D71DC101F01EC102F0000101
:10059000120093948A849EA8FED793948A840101C2
:1005A00019C1ADFF0000ACA2FED793948A9400015C
:1005B000120093948A849EA8FED793948A840101A2
:1005C00018C1ADFF0000ACA2FED793948A9400013D
:1005D00012008AC0BDF0BD2D5BD28BC0BEF0BE51F3
:1005E000030A07E0660AD8B4B7D0010AD8B46AD1C2
:1005F00049D28CC0DCF08DC0DBF08EC0DEF08FC045
:10060000DDF0D890DD35026EDE3502C0DFF001018D
:100610001B6B8A0E1A6F060E1C6F000191DF02C061
:1006200014F101C013F191C003F090510101135D69
:1006300003E10350145D04E0000E016E2CD26DD076
:100640000001DC5303E1DB51110806E2000E016EEC
:10065000010121D262D00001D890DD350101186F6F
:100660000001DE350101196F195303E118514408E7
:1006700004E2000E016E0FD250D0050E0001DF25FE
:10068000E06F010EE16F030EE26FDFC0E3F00101E6
:10069000196B470E186FD8900001DB35026EDC3500
:1006A000036E02500101182703501923EA6AE40E71
:1006B000E96E19C1E2FF18C1E1FF0001DF51016ECF
:1006C00004E0E6CFEEFF012EFCD7030EDF2501018B
:1006D000186F1B6BE10E1A6F18C11CF1000130DF9F
:1006E00002C014F101C013F1030EDF25036AE10F0C
:1006F000E96E000E0320EA6E010113C100F000C094
:10070000EFFF040E0001DF25036AE10FE96E000E22
:100710000320EA6E01011451EF6E040E186F000100
:100720001CDDC96BE051C95D0CE2036AC951E10FE0
:10073000E96E000E0320EA6EEFCF19F12ADFC92B14
:10074000F1D70D0E0101186F000133DF0A0E010110
:10075000186F00012EDF9BD18CC0DCF08DC0DBF068
:100760000101166B8EC015F115510F0802E11653E9
:1007700003E0000E016E8FD1050E1525186F000ED7
:100780001621196F1B6B8A0E1A6F18C11CF100011C
:10079000D7DE02C014F101C013F1900E010115253E
:1007A000E96E000E1621EA6EEFCF03F08F0E1525CD
:1007B000E96E000E1621EA6EEFCF1DF11D51135D9B
:1007C00003E10350145D03E0000E016E64D1EA6A98
:1007D000690EE96EE26A8F0EE16E16C102F015C174
:1007E00001F0015202E0022A02D0025206E0E6CFF6
:1007F000EEFF012EFCD7022EFAD7000169B102D01C
:100800008B9001D08B809490D8906931010B02E1DC
:100810008B9201D08B8294926FC050F06EC04FF0DB
:1008200071C056F070C055F073C05CF072C05BF0E0
:1008300075C062F074C061F077C068F076C067F090
:100840000101690E186FDCC01BF1DBC01AF11D6BD2
:100850001C6F0F0E1E6F0001F5DC070EE06F010E1E
:10086000E16F650EE26FDCC0E3F00001DBC0E4F095
:1008700015C1E5F001011B6BE10E1A6F050E1C6F2F
:1008800000015EDE02C014F101C013F113C1E6F0F5
:10089000000114C1E7F00001040E0101186F00010E
:1008A0005CDCC96BE051C95D0CE2036AC951E10F20
:1008B000E96E000E0320EA6EEFCF19F16ADEC92B54
:1008C000F1D7E5D08CC0DCF08DC0DBF00101166BF8
:1008D0008EC015F11B6B8A0E1A6F050E1C6F00017E
:1008E0002FDE02C014F101C013F190C003F08F514C
:1008F0000101135D03E10350145D04E0000E016E7D
:10090000CAD023D015510001DB250101186F165103
:100910000001DC210101196F000809E2FF0A03E16F
:100920001851000804E2000E016EB5D00ED0050E7D
:100930001525186F000E1621196F195303E1185170
:10094000320803E2000E016EA6D0176B1751172B69
:10095000036AE10FE96E000E0320EA6E010EEF6EEE
:100960001751172B036AE10FE96E000E0320EA6EA0
:10097000640EEF6E1751172B036AE10FE96E000E3C
:100980000320EA6E0001DCC0EFFF01011751172BB5
:10099000036AE10FE96E000E0320EA6E0001DBC07E
:1009A000EFFF01011751172B036AE10FE96E000EEB
:1009B0000320EA6E15C1EFFF0001C96B0101165358
:1009C00005E115510001C95D24E201011751172B02
:1009D000036AE10FE96E000E0320EA6E0001C951BF
:1009E000DB2501011A6F000E0001DC2101011B6FE4
:1009F000F2CF1CF1F29E1BC1AAFF1AC1A9FFA69C4F
:100A0000A69EA680A8501CBFF28EEF6E0001C92BD7
:100A1000D5D701011B6BE10E1A6F17C11CF1000144
:100A20008FDD02C014F101C013F101011751172B22
:100A3000036AE10FE96E000E0320EA6E13C1EFFFB7
:100A40001751172B036AE10FE96E000E0320EA6EBF
:100A500014C1EFFF040E186F0001ADEC00F0C96B7C
:100A6000010117510001C95D0CE2036AC951E10F90
:100A7000E96E000E0320EA6EEFCF19F18ADDC92B73
:100A8000EFD705D0000E016E010105D0000103D0A3
:100A9000000E016E0101000103EF0AF0DC6B470E4E
:100AA000DB6F928C80AC14D0C82BC85163080FE266
:100AB0006D5303E194988B8802D094988B986C5373
:100AC00003E1949A8B8A02D0949A8B9AC86B05D0D2
:100AD000C86B94988B98949A8B9A928880A80BD024
:100AE000020EDB25E96E000EDC21EA6E010EEF6ED0
:100AF00093908A800ED0020EDB25E96E000EDC2179
:100B0000EA6EEF6A6B2D03D093908A8002D09390A7
:100B10008A90928A80AA0BD093928A82010EDB255A
:100B2000E96E000EDC21EA6E010EEF6E0ED0010EB2
:100B3000DB25E96E000EDC21EA6EEF6A6A2D03D038
:100B400093928A8202D093928A920AEF0AF0D8B2E4
:100B500003D0EA6AE70EE96E006A016A026A036A74
:100B6000E76BE86BE96BEA6BE651E511E411E31121
:100B70002CE0200EEB6FD890DF37E037E137E2371B
:100B8000E737E837E937EA37E651EA5D08E1E5514A
:100B9000E95D05E1E451E85D02E1E351E75D0FE362
:100BA000E351E75FE451D8A0E43DE85FE551D8A008
:100BB000E53DE95FE651D8A0E63DEA5FD880003622
:100BC000013602360336EB2FD6D7E7C0EFFFE8C079
:100BD000ECFFE9C0ECFFEAC0ECFF1200DE6B470E51
:100BE000DD6F000E016EC250830B0110C26E0F0E3E
:100BF000006E002EFED700D0C282C2B2FED7C4CF94
:100C0000DCF0C3CFDBF01D50DC5D08E303E1DB511A
:100C10001C5C04E2DCC01DF0DBC01CF0DC511F5C7E
:100C200008E303E11E50DB5D04E2DCC01FF0DBC023
:100C30001EF0040E016EC250830B0110C26E0F0E27
:100C4000006E002EFED700D0C282C2B2FED7C4CF43
:100C5000DCF0C3CFDBF02150DC5D08E303E1DB51C6
:100C6000205C04E2DCC021F0DBC020F0DC51235C1E
:100C700008E303E12250DB5D04E2DCC023F0DBC0CB
:100C800022F0080E016EC250830B0110C26E0F0ECF
:100C9000006E002EFED700D0C282C2B2FED7C4CFF3
:100CA000DCF0C3CFDBF02550DC5D08E303E1DB5172
:100CB000245C04E2DCC025F0DBC024F0DC51275CBE
:100CC00008E303E12650DB5D04E2DCC027F0DBC073
:100CD00026F00C0E016EC250830B0110C26E0F0E77
:100CE000006E002EFED700D0C282C2B2FED7C4CFA3
:100CF000DCF0C3CFDBF02950DC5D08E303E1DB511E
:100D0000285C04E2DCC029F0DBC028F0DC512B5C5D
:100D100008E303E12A50DB5D04E2DCC02BF0DBC01A
:100D20002AF0442A44500408D8B0AED2446A1F5076
:100D30001D5C0CE303E11E501C5C08E31E501C5CB0
:100D4000006E1F501D58036E005002D0036A000E43
:100D50002C6E03C02DF02C5034262D503522000E61
:100D6000362237222350215C0CE303E12250205C21
:100D700008E32250205C006E23502158036E00507F
:100D800002D0036A000E2E6E03C02FF02E503826BC
:100D90002F503922000E3A223B222750255C0CE3CB
:100DA00003E12650245C08E32650245C006E2750A3
:100DB0002558036E005002D0036A000E306E03C047
:100DC00031F030503C2631503D22000E3E223F2271
:100DD0002B50295C0CE303E12A50285C08E32A50DD
:100DE000285C006E2B502958036E005002D0036A15
:100DF000000E326E03C033F0325040263350412291
:100E0000000E42224322452AD8B4462A46501208F0
:100E1000D8B03AD2FF0A04E145508708D8B034D29E
:100E20001B8A466A456AD89237C0E2F036C0E1F0C4
:100E300035C0E0F034C0DFF0E66BE56B130EE46F15
:100E4000880EE36F84DE03C037F002C036F001C0C5
:100E500035F000C034F0D8923BC0E2F03AC0E1F087
:100E600039C0E0F038C0DFF0E66BE56B130EE46FDD
:100E7000880EE36F6CDE03C03BF002C03AF001C0A5
:100E800039F000C038F0D8923FC0E2F03EC0E1F047
:100E90003DC0E0F03CC0DFF0E66BE56B130EE46FA5
:100EA000880EE36F54DE03C03FF002C03EF001C085
:100EB0003DF000C03CF0D89243C0E2F042C0E1F007
:100EC00041C0E0F040C0DFF0E66BE56B130EE46F6D
:100ED000880EE36F3CDE03C043F002C042F001C065
:100EE00041F000C040F00E0EDD25E96E000EDE215F
:100EF000EA6EECCF03F0ED52EFCF01F037520EE186
:100F000036520CE13550035C09E303E10150345CD7
:100F100005E2006A016A026A036A15D00E0EDD2539
:100F2000E96E000EDE21EA6EECCF03F0ED52EF50D9
:100F3000345C006E03503558016E000E3658026E58
:100F4000000E3758036E03C037F002C036F001C000
:100F500035F000C034F0140EDD25E96E000EDE2100
:100F6000EA6EECCF03F0ED52EFCF01F03B520EE111
:100F70003A520CE13950035C09E303E10150385C5B
:100F800005E2006A016A026A036A15D0140EDD25C3
:100F9000E96E000EDE21EA6EECCF03F0ED52EF5069
:100FA000385C006E03503958016E000E3A58026EDC
:100FB000000E3B58036E03C03BF002C03AF001C084
:100FC00039F000C038F01A0EDD25E96E000EDE2182
:100FD000EA6EECCF03F0ED52EFCF01F03F520EE19D
:100FE0003E520CE13D50035C09E303E101503C5CDF
:100FF00005E2006A016A026A036A15D01A0EDD254D
:10100000E96E000EDE21EA6EECCF03F0ED52EF50F8
:101010003C5C006E03503D58016E000E3E58026E5F
:10102000000E3F58036E03C03FF002C03EF001C007
:101030003DF000C03CF0200EDD25E96E000EDE2103
:10104000EA6EECCF03F0ED52EFCF01F043520EE128
:1010500042520CE14150035C09E303E10150405C62
:1010600005E2006A016A026A036A15D0200EDD25D6
:10107000E96E000EDE21EA6EECCF03F0ED52EF5088
:10108000405C006E03504158016E000E4258026EE3
:10109000000E4358036E03C043F002C042F001C08B
:1010A00041F000C040F00C0EDD25E96E000EDE219F
:1010B000EA6E35C0ECFFED5234C0EFFF120EDD25B5
:1010C000E96E000EDE21EA6E39C0ECFFED5238C049
:1010D000EFFF180EDD25E96E000EDE21EA6E3DC041
:1010E000ECFFED523CC0EFFF1E0EDD25E96E000E59
:1010F000DE21EA6E41C0ECFFED5240C0EFFF0A0E68
:10110000DD25016E000EDE21036E01C0DFF0E06F11
:10111000080EDD25E96E000EDE21EA6EECCF03F04D
:10112000ED52EFCF01F0375209E1365207E103509B
:10113000355C06E303E10150345C02E3010E01D0AB
:10114000000EE0C0EAFFDFC0E9FFEF6E100EDD2504
:10115000016E000EDE21036E01C0DFF0E06F080EAD
:10116000DD25E96E000EDE21EA6EECCF03F0ED52D4
:10117000EFCF01F03B5209E13A5207E10350395CED
:1011800006E303E10150385C02E3010E01D0000EDA
:10119000E0C0EAFFDFC0E9FFEF6E160EDD25016E4D
:1011A000000EDE21036E01C0DFF0E06F080EDD25CA
:1011B000E96E000EDE21EA6EECCF03F0ED52EFCFC8
:1011C00001F03F5209E13E5207E103503D5C06E366
:1011D00003E101503C5C02E3010E01D0000EE0C0CF
:1011E000EAFFDFC0E9FFEF6E1C0EDD25016E000E89
:1011F000DE21036E01C0DFF0E06F080EDD25E96E31
:10120000000EDE21EA6EECCF03F0ED52EFCF01F0DD
:10121000435209E1425207E10350415C06E303E116
:101220000150405C02E3010E01D0000EE0C0EAFF75
:10123000DFC0E9FFEF6E020E1D6E1C6A1F6E1E6A94
:101240002D6A2C6A376A366A356A346A216E206ADA
:10125000236E226A2F6A2E6A3B6A3A6A396A386AB2
:10126000256E246A276E266A316A306A3F6A3E6AB2
:101270003D6A3C6A296E286A2B6E2A6A336A326A92
:10128000436A426A416A406A15EF0AF0F86AD09EE2
:10129000078E700ED36E9B8C9B9EB8868A0EAF6EA7
:1012A000000EB06EA60EAC6E900EAB6E93948A9448
:1012B000B8868A0EAF6E000EB06EA60EAC6E900EA3
:1012C000AB6E93948A940F01386B396B3A6B776AE3
:1012D000786A796A1B901B921B941B961B981B9A29
:1012E0001B9C1B9E11D002001900005C401C0012C8
:1012F00080532D436C617373440031384632364B52
:101300003232001F40BC0000000EF86E120EF76E65
:10131000E60EF66E0900F550006E000A13E00900B3
:10132000F550016EE8BE05D03F0BEA6E0900F5CF1F
:10133000E9FF01BC090001AC0900F5CFEEFF004E4A
:10134000E9D7F9D7F86A070ECD6ECC6AF30ECF6EE7
:101350006C0ECE6EC150F00BC16E0F0E386F000ECA
:10136000396F3A6FC050C00B3609C06EC08EC28054
:10137000C69A949A94889496010EC66E000EC76E13
:1013800094988B98949A8B9A93928A8293908A805D
:101390000C0E0001DB6FFA0E0101186F0001ADECBD
:1013A00000F0DB2FF8D793928A9293908A909494CE
:1013B0008B8494968B8694908B9094928B9286EFEC
:1013C00001F096EF02F0D180D1809D809D8AC00E01
:1013D000F212BF6B1B9E04001BA211D0ABA203D064
:1013E000AB980000AB881BAE09D0BF2BBF511408CF
:1013F00005E2AB981B9EBC6B1B8CBF6B1B921BAC9E
:1014000004D0E9EF02F0AB881B9C1BA003D01B901B
:101410004EEF05F01BA601D01B961BA401D01B9418
:0E1420001BA803D01B98EEEF05F0D5D70300F4
:020000040030CA
:0E00000000E8063700BF810000800FE00F40CF
:00000001FF
;PIC18F26K22
;CRC=9F75  CREATED="13-Aug-22 08:54"
