:0400000080313728EC
:100008007E1480310B1F09280A2835282E00191E56
:100018000E280F281A280F1E122813281A28220023
:100028003F088A003E080A0080313528991E1D289D
:100038001E2829288F1E21282228292822003D0829
:100048008A003C080A00803135281A1C2C282D28E3
:100058003528101C30283128352889313A2180313B
:1000680035287E1009008031392815308400893000
:1000780085005730860001308700123088319D2076
:100088008031FA01FB0120308400003085003230D5
:10009800883197208031DD308400003085001330AE
:1000A8008831972080312030840001308500373036
:1000B800883197208031A0308400013085003230AB
:1000C800883197208031203084000230850042300A
:1000D800883197208031A03084000230850040307C
:1000E80088319720803120308400033085004030EB
:1000F800883197208031A03084000330850040305B
:100108008831972080317E1020008731842F40303D
:100118002000E40000308931032180317308200079
:10012800E3007208E20063083F02031D9D2862088D
:100138003E020318A028A128A5286308BF0062086A
:10014800BE003D086302031DAB283C086202031889
:10015800AE28AF28B3286308BD006208BC00013090
:1001680089310321803173082000E3007208E2001E
:1001780063083B02031DC22862083A020318C52817
:10018800C628CA286308BB006208BA003908630297
:10019800031DD028380862020318D328D428D82889
:1001A8006308B9006208B800023089310321803140
:1001B80073082000E3007208E20063083702031D99
:1001C800E728620836020318EA28EB28EF286308B4
:1001D800B7006208B60035086302031DF528340825
:1001E80062020318F828F928FD286308B500620898
:1001F800B400033089310321803173082000E30003
:100208007208E20063083302031D0C2962083202F7
:1002180003180F29102914296308B3006208B200D3
:1002280031086302031D1A293008620203181D29C8
:100238001E2922296308B1006208B0000130D800E5
:100248005808C30714304302031C2B292C298A2C75
:10025800C3013D083F02031D33293C083E02031831
:10026800362937293B292200B401B50144293C0825
:100278003E022200B40020003D083F3B2200B500AA
:1002880034082000AC07220035082000AD3D0030BE
:10029800AE3DAF3D39083B02031D542938083A02E8
:1002A8000318572958295C292200B201B30165298E
:1002B80038083A022200B200200039083B3B2200ED
:1002C800B30032082000A807220033082000A93D07
:1002D8000030AA3DAB3D35083702031D75293408A7
:1002E80036020318782979297D292200B001B10145
:1002F8008629340836022200B00020003508373B32
:100308002200B10030082000A40722003108200094
:10031800A53D0030A63DA73D31083302031D9629AF
:1003280030083202031899299A299E292200AE0121
:10033800AF01A729300832022200AE0020003108A0
:10034800333B2200AF002E082000A00722002F0810
:100358002000A13D0030A23DA33D01302200AC07A2
:100368000030AD3D00302D02193003192C02031C5A
:10037800BE29BF29622C2100DE01DE0A2200AC0161
:10038800AD010030F5000030F4000030F300193002
:10039800F20020002F08F9002E08F8002D08F700B9
:1003A8002C08F6008C31A424803175082000AF0099
:1003B8007408AE007308AD007208AC000030F50098
:1003C8000030F4000030F3001930F2002B08F90077
:1003D8002A08F8002908F7002808F6008C31A42418
:1003E800803175082000AB007408AA007308A900C2
:1003F8007208A8000030F5000030F4000030F30067
:100408001930F2002708F9002608F8002508F70037
:100418002408F6008C31A424803175082000A70038
:100428007408A6007308A5007208A4000030F5003F
:100438000030F4000030F3001930F2002308F9000E
:100448002208F8002108F7002008F6008C31A424BF
:10045800803175082000A3007408A2007308A10069
:100468007208A00064080E3E860002308700403FF4
:10047800D800413FD9005808DA005908DB00DC01F0
:10048800DD015D082F02031D532A5C082E02031D9F
:10049800532A5B082D02031D532A5A082C02031CF9
:1004A800562A572A7F2A64080E3E860002308700A3
:1004B800403FD800413FD9005808DA005908DB000E
:1004C800DC01DD012C08DE002D08DF002E08E0002D
:1004D8002F08E1005A08DE025B08DF3B5C08E03BBE
:1004E8005D08E13B6108AF006008AE005F08AD0041
:1004F8005E08AC00872A0030AF000030AE00003044
:10050800AD000030AC006408143E8600023087005D
:10051800403FD800413FD9005808DA005908DB00AD
:10052800DC01DD015D082B02031DA42A5C082A02F8
:10053800031DA42A5B082902031DA42A5A082802BD
:10054800031CA72AA82AD02A6408143E8600023071
:100558008700403FD800413FD9005808DA005908C1
:10056800DB00DC01DD012808DE002908DF002A089D
:10057800E0002B08E1005A08DE025B08DF3B5C085C
:10058800E03B5D08E13B6108AB006008AA005F083A
:10059800A9005E08A800D82A0030AB000030AA00E5
:1005A8000030A9000030A80064081A3E8600023016
:1005B8008700403FD800413FD9005808DA00590861
:1005C800DB00DC01DD015D082702031DF52A5C085C
:1005D8002602031DF52A5B082502031DF52A5A0881
:1005E8002402031CF82AF92A212B64081A3E8600E3
:1005F80002308700403FD800413FD9005808DA0050
:100608005908DB00DC01DD012408DE002508DF00D5
:100618002608E0002708E1005A08DE025B08DF3BF5
:100628005C08E03B5D08E13B6108A7006008A600A4
:100638005F08A5005E08A400292B0030A700003041
:10064800A6000030A5000030A4006408203E860003
:1006580002308700403FD800413FD9005808DA00EF
:100668005908DB00DC01DD015D082302031D462B70
:100678005C082202031D462B5B082102031D462B42
:100688005A082002031C492B4A2B722B6408203E6F
:10069800860002308700403FD800413FD900580803
:1006A800DA005908DB00DC01DD012008DE00210842
:1006B800DF002208E0002308E1005A08DE025B0898
:1006C800DF3B5C08E03B5D08E13B6108A300600894
:1006D800A2005F08A1005E08A0007A2B0030A300EA
:1006E8000030A2000030A1000030A00064080C3ED9
:1006F8008600023087002C08C03F2D08C13F6408DF
:10070800123E8600023087002808C03F2908C13FF2
:100718006408183E8600023087002408C03F250878
:10072800C13F64081E3E8600023087002008C03F93
:100738002108C13F64080A3E860002308700640829
:10074800083E840002308500003FD800013FD900F0
:100758005808DA005908DB00DC01DD015D082F02CA
:10076800031DC02B5C082E02031DC02B5B082D0245
:10077800031DC02B5A082C020318C32BC52B0130AC
:10078800C62B003081006408103E860002308700C6
:100798006408083E840002308500003FD800013F0D
:1007A800D9005808DA005908DB00DC01DD015D08D2
:1007B8002B02031DE92B5C082A02031DE92B5B08A9
:1007C8002902031DE92B5A0828020318EC2BEE2BEB
:1007D8000130EF2B003081006408163E860002309D
:1007E80087006408083E840002308500003FD80076
:1007F800013FD9005808DA005908DB00DC01DD01A7
:100808005D082702031D122C5C082602031D122C0A
:100818005B082502031D122C5A0824020318152C04
:10082800172C0130182C0030810064081C3E86000B
:10083800023087006408083E840002308500003FCB
:10084800D800013FD9005808DA005908DB00DC015C
:10085800DD015D082302031D3B2C5C082202031DF9
:100868003B2C5B082102031D3B2C5A08200203186D
:100878003E2C402C0130412C003081000030AF006C
:100888000030AE000030AD000030AC000030AB00EE
:100898000030AA000030A9000030A8000030A700EE
:1008A8000030A6000030A5000030A4000030A300EE
:1008B8000030A2000030A1000030A0002000BE01DE
:1008C800BF01FF30BC000330BD002200B401B501F8
:1008D8002000BA01BB01FF30B8000330B900220084
:1008E800B201B3012000B601B701FF30B4000330F4
:1008F800B5002200B001B1012000B201B301FF3000
:10090800B0000330B1002200AE01AF01080023009F
:1009180020082100E0006003031D932C942C832FF2
:10092800230021082100DF006F2F23002308200067
:10093800E900EA01230022082000EB00EC016B0823
:10094800EC00EB0169086B042100D60020006A085E
:100958006C042100D700230025082000E900EA01E3
:10096800230024082000EB00EC016B08EC00EB01ED
:1009780069086B042100D20020006A086C04210079
:10098800D3005235D500A030F2000130F300063014
:10099800F4008B31BC23843173082100DA0072081B
:1009A800D9005A0823002706031DDE2C2100590808
:1009B800230026060319E12CE22CE32C832F0030B8
:1009C80021005702123003195602031CEC2CED2C9F
:1009D800EE2C832F53082000EA0021005208200043
:1009E800E900E935EA0D00306A0245300319690269
:1009F800031CFF2C002D012D832F21005508053ED7
:100A0800D400A001A00A0330A1005508A200563561
:100A1800403EF2000230F30055082000E900EA01E8
:100A28006908F4006A08F500A3308A313C22843151
:100A3800A030F2000030F30021005508033EF40016
:100A48008B31BC23843173082100DA007208D90085
:100A58005508033EA03E86008701590881005508C5
:100A6800043EA03E860087015A0881002A302000F3
:100A7800E9008D30890B3E2DE90B3E2D0032210017
:100A8800D8015B2D5808A03E860087010108200088
:100A9800E900EA016908D7006A08D8008831B72058
:100AA800843101302000E90069082100D807540882
:100AB8005802031C602D612D462D00302000E600F1
:100AC8009030E7008831D0208431832F2300230819
:100AD8002000E900EA01230022082000EB00EC01D5
:100AE8006B08EC00EB0169086B042100D6002000BC
:100AF8006A086C042100D700230024082100DB00C9
:100B08000F305B060319892D8A2D8B2D832FA0307A
:100B1800F2000130F3005B08053EF4008B31BC2382
:100B2800843173082100DA007208D9005B08A53EF9
:100B38008600013087005B08A63E840001308500EE
:100B48005A080006031DAA2D590801060319AD2DE0
:100B5800AE2DAF2D832FA530F2000130F3005B08D6
:100B68002000E900EA016908F4006A08F500E130AC
:100B78008A313C2284310130210061052000E900DE
:100B88000E086906FE3969068E00000021006136EC
:100B980001392000E900E90D0E086906FD396906EA
:100BA8008E00210067082400C9002100660824007F
:100BB800C800210069082400CF002100680824002B
:100BC800CE0021006B082400D50021006A0824000B
:100BD800D40021006D082400DB0021006C082400EB
:100BE800DA0021006F082400E10021006E082400CB
:100BF800E000210057082000D300210056082000FB
:100C0800D200E130D4000030D5000F30D6008C314E
:100C18004924843107302100D400A001A00A65309E
:100C2800A1005708A2005608A3005B08A400A03042
:100C3800F2000030F3000530F4008B31BC2384311E
:100C480073082100DA007208D9005908A5005A086B
:100C5800A6002A302000E9008D30890B312EE90BDF
:100C6800312E00322100D8014E2E5808A03E8600B1
:100C7800870101082000E900EA016908D7006A082D
:100C8800D8008831B720843101302000E900690894
:100C98002100D80754085802031C532E542E392E0D
:100CA800832F230023082000E900EA0123002208FB
:100CB8002000EB00EC016B08EC00EB0169086B0409
:100CC8002100D60020006A086C042100D700230008
:100CD80024082100DB00A030F2000130F3000530C9
:100CE800F4008B31BC23843173082100DA007208C8
:100CF800D9005A0823002606031D862E210059080C
:100D0800230025060319892E8A2E8B2E832F210076
:100D18005B0856072000E900210057080318570A06
:100D28002000EA0001306A02013003196902031C3D
:100D38009E2E9F2EA02E832F21005B08053E2000AB
:100D4800E900003003180130EA006A08803AEB0035
:100D580080306B02031DB22E33306902031CB52E9E
:100D6800B62EB72E832F2100DC015C08A03E86003A
:100D780087018101810A01302000E900690821000A
:100D8800DC075C08A03E86008701643081000130E2
:100D98002000E90069082100DC075C08A03E860005
:100DA80087015708810001302000E9006908210007
:100DB800DC075C08A03E86008701560881000130E8
:100DC8002000E90069082100DC075C08A03E8600D5
:100DD80087015B08810001302000E90069082100D3
:100DE800DC07D8011B2F5C08A03E86008701580845
:100DF80056072000E900210057080318570A200069
:100E0800EA006908003EF200F0306A3DF3008831DC
:100E1800AB208431810001302000E90069082100FD
:100E2800DC0701302000E90069082100D8075B08C9
:100E38005802031C202F212FF72EA030F20000307B
:100E4800F3005C08F4008B31BC2384317308210063
:100E5800DA007208D9005C08A03E860087015908AC
:100E6800810001302000E90069082100DC075C08E6
:100E7800A03E860087015A08810001302000E90061
:100E880069082100DC072A302000E9008D30890B31
:100E98004B2FE90B4B2F00322100D801682F58083F
:100EA800A03E8600870101082000E900EA016908E0
:100EB800D7006A08D8008831B72084310130200073
:100EC800E90069082100D8075C085802031C6D2F47
:100ED8006E2F532F832F5F082000E900EA016A086C
:100EE800003A0319782F832F6908033A0319992CBC
:100EF800673A0319552E013A03196A2D832F080002
:100F08008931272187318B170B178E31222687319C
:100F18006400200050080319922F932FD02F00301F
:100F280022009D1801301D0503199B2F9C2FAF2F00
:100F380000301D1A0130FF3A2000EE006E08220032
:100F48009D050000003022001D1A01302000EE002F
:100F58006E0822009D0420004A080319B42FB52FFB
:100F6800CF2F0130EE006E08CB0715304B02031C63
:100F7800BE2FBF2FCF2F003022001D1A0130FF3A9D
:100F88002000EE006E0822009D052000CA01CC0159
:100F9800C401C40ACB01D00144080319D42FD52FAA
:100FA800E32F84318B248731003022001D1A013051
:100FB8002000EE006E0822009D042000C4014E08A7
:100FC8000319E72FE82FE92FCE014D080319ED2F5C
:100FD800EE2FF22FCD0180318B20873120004F0872
:100FE8000319F72FF82F8C2FCF018D316625873104
:080FF8008C2F8031372808001E
:1010D600893169218831080022001D121D16080079
:1010E60073082200B7007208B600080073082200D1
:1010F600BB007208BA00080073082200B900720823
:10110600B800080073082200BD007208BC00080081
:1011160073082200BF007208BE0008007308220090
:10112600C5007208C4000800640080010131890B03
:1011360098280034FE0012001E00FE0B9E28003484
:101146002F0096019701980199019A019B010800C9
:10115600730830009B0072089A001E171E140000C8
:10116600000030001C08080020005808F600570848
:10117600F5000030F700F8008C31FF2488310800B4
:10118600103031008D008F019101053093009201DE
:10119600101CCE28CF28CB28080068302000E80095
:1011A6000030DF00E0006708E2006608E100683012
:1011B600E3008931BA218831080024000E1DE42895
:1011C600E528EC280E1071088D0070088C000E14AE
:1011D600F02871088D0070088C000800F4002000CB
:1011E6000D15A0300032890BF52874088A31652266
:1011F6008831A0300032890BFD2820000D1108002F
:10120600F400740821009E009317131313140000B2
:10121600210013180F2910290B290D08F3000C08BB
:10122600F200080031343634463431343834383438
:1012360035343534003453342D3443346C3461340E
:1012460073347334443400348831A32089318A31AD
:101256008E2289318831C3208931893151218931E2
:101266008931D82189318B317F23893108002E00BD
:10127600101020004108F1004008F0008831E020FD
:10128600893122004408450403194A294B2950296B
:1012960045088A0044080A008931080022008E01A8
:1012A6008F0190019101920193018D0121009E0110
:1012B6009B019C0194019501960197019A01990160
:1012C6000F309800843093009D0108007B08A03EF3
:1012D6008600033087002200190881000130F000E3
:1012E6007008FB0740307B02031C7A297B297C2986
:1012F600FB010130F00070082000C607080022003C
:101306001908F10020004C08A03E86000130870035
:10131600710881000130F0007008CC0733304C02B0
:10132600031C962997299829CC01CB01CA01CA0A20
:10133600080000308B1B0130F500730830009B005D
:1013460072089A0074089C001E171E158B135530E0
:101356009F00AA309F009E149E18B229B329AF2978
:101366001E11750C031C8B1303188B170800200025
:101376006208E5006108E400CB296008D8005F0830
:10138600D7006430D9006308DA008B31FC23893139
:10139600200064088400650885001200031DD42916
:1013A600D529C029DF01E001080024008F01900142
:1013B6000230910083308D008C012E001010240025
:1013C6000D082000C10024000C082000C0002E00DB
:1013D6001A14E730F2000A30F3008831912089317F
:1013E600013024008E00080020000D11003022007C
:1013F6001D1A0130FF3AF20072089D050000003008
:1014060022001D1A0130F20072089D0400309D1B57
:101416000130FF3AF20072089D05000000302200FC
:101426009D1B0130F20072089D0408004030200028
:10143600470203181F2A202A392A4808203E860018
:1014460003308700010822009A000130F00070087E
:101456002000C80740304802031C322A332A342AA7
:10146600C8010130F0007008C7073B2A2E00191288
:1014760008002000D6007308D4007208D30056086E
:10148600D500582A53088600540887000108D20060
:101496000130D3070030D43D550886008701520835
:1014A60081000130F6007608D5070130F4020030DD
:1014B600F53B740A031D632A750A031D632A642A11
:1014C600452A0800F3002000470803196B2A6C2AF6
:1014D600662A2E00191A702A712A752A73082200A4
:1014E6009A008B2A191220004908203E86000330F4
:1014F6008700730881000130F2007208C907403086
:101506004902031C872A882A892AC9010130C70291
:101516002E00191608002000960197019801FF3049
:101526009100F8309200803093003E00CE01F830F2
:10153600C3008F30B800E501C401B901CF01BA017B
:10154600C501D001FF30BB00FF30C600FF30D1001F
:10155600FF30BC00FF30C700FF30D2000830E80083
:1015660017303D00CB0010303E00A6000800F50005
:10157600C42A0130F4007408F5070130F400740839
:10158600F20772088600013087007508840085011D
:1015960000080106031DD02AD12AD92A750886001B
:1015A60087010108031DD82AD92ABC2A7508860096
:1015B6008701720884000130850000080102F200EC
:1015C600F301031CF30308002000D101D10AD00166
:1015D600D00ACF01CF0A01302200C2070030C33D36
:1015E60003304302E83003194202031CFB2AFC2A9B
:1015F600012BC201C3012000CE01CE0A0130220018
:10160600C0070030C13D00304102143003194002CA
:10161600031C0E2B0F2B142BC001C1012000CD0182
:10162600CD0A0800F9013D2B790874072000D20085
:1016360075080318750AD3005208003EF200F03010
:10164600533DF3008831AB208B312000D40079085C
:10165600D500D60155087607D7005608773DD8003D
:101666005708860058088700540881000130D200C8
:101676005208F90778087902031C422B432B172BD3
:1016860008007B08A03E8600023087008101220008
:101696001D1D4E2B4F2B5A2B7B08A03E8600023079
:1016A600870081143B088A003A080A008B31220021
:1016B6009D1C5E2B5F2B6A2B7B08A03E86000230AA
:1016C6008700011539088A0038080A008B317B0823
:1016D600A03E86000230870001080319732B742B85
:1016E6007B2B220037088A0036080A008B317E2BB6
:1016F600893182218B3108002E0099124430F20084
:101706000B30F300883185208B312E0019121930E9
:10171600F2000A30F30088318B208B31083022002A
:101726009F0090309D0024309E0044309B009C0119
:10173600FF30F2000730F300883179208B316F30AB
:10174600F2000830F30088317F208B316B30F200D5
:101756000830F300883173208B312000C501C901A0
:10176600C8014030C700FB01FA01C6012E009916D8
:101776000800FF302000D500FF30D600D301F12B42
:101786005308F500F6017508720786007608733D62
:1017960087000108F700F8017708D5067808D6060D
:1017A6000830D40055080139D2000130D636D50CA0
:1017B600890BD92B5203031DE12BE22BE62B0130BB
:1017C600D506A030D6060130D4025408031DEC2BF2
:1017D600ED2BD52B0130F5007508D307740853029D
:1017E600031CF62BF72BC32B5608F3005508F20003
:1017F60008002000590886008701403FDB00413F72
:10180600DC005B0884005C0885001200253A031D95
:101816000D2C0E2C2E2C59088600870101308107CD
:1018260041310318810A2200A001A10103100030F2
:10183600031801302100DD00FF302200A200FF3036
:10184600A300200059088600870101308107413135
:101856000318810A482C590886008701403FDB009F
:10186600413FDC005B0884005C0885000008DD0061
:10187600DE015D08F5005E08F6005808F800570816
:10188600F7008C31FF248B31242C08002000D8016E
:101896006C2C58085207F60053080318530AF70031
:1018A6007608003EF200F030773DF3005808F80065
:1018B600F9017808540786007908553D8700010824
:1018C600F40089319C218C310130F6007608200025
:1018D600D80756085802031C712C722C4C2CD701C1
:1018E600D8019D2C5808F600F701760854078600A3
:1018F6007708553D870058085207F8005308031823
:10190600530AF9007808003EF200F030793DF30002
:101916008831AB208C3101060319922C932C982C1C
:101926000130F60076082000D7070130F600760869
:101936002000D80756085802031CA22CA32C752C8D
:10194600080000302000D6000030D5000030D4005A
:101956000030D30075087404730472040319B42CA0
:10196600B52CF62CD701D70AC32C0130F235F30D6E
:10197600F40DF50D890BB92C0130D2005208D707AA
:10198600F51FC62CC72CB82C0130D335D40DD50D78
:10199600D60D890BC82C75087902031DDC2C74083A
:1019A6007802031DDC2C73087702031DDC2C7208F9
:1019B6007602031CDF2CE02CE92C7208F602730871
:1019C600F73B7408F83B7508F93B53140130F536BC
:1019D600F40CF30CF20C890BEA2C0130D702031D30
:1019E600F52CF62CC72C5608F5005508F4005408BB
:1019F600F3005308F2000800770878040319042D51
:101A0600052D0B2D77087804031D0A2D0B2D102D9F
:101A160075088831F1208C315D2D770886007808AD
:101A2600870049311600010403191A2D1B2D3C2D80
:101A360077088600780887004931403F2000D200A9
:101A4600413FD30077088600780887004231403F3F
:101A5600D400413FD5005508803AD6005308803A55
:101A66005602031D382D5208540203183B2D3C2DF7
:101A76005D2D770886007808870042317708840054
:101A860078088500403F00072000D2000131413F21
:101A9600003DD30052088600530887007508810070
:101AA6007708860078088700423101308107413186
:101AB6000318810A75082000D200D3015208F500E8
:101AC6005308F60008004030F30020000C1F6C2D70
:101AD6006D2D8F2D0130F2007208C207643042026C
:101AE600031C762D772D942D21006508031D7C2D72
:101AF6007D2D802D20000E16822D20000E12210035
:101B06006408031D872D882D8B2D20008E168D2DA4
:101B160020008E12C201942DC2010E120000200078
:101B26008E120C1E972D982DB52D2200A801A90105
:101B36000130AA070030AB3D07302B02D030031925
:101B46002A02031CA72DA82DDB2D7308023E860052
:101B5600023087008101810A20000D142200AA01AB
:101B6600AB01DB2D2200AA01AB0121006303031D9B
:101B7600BD2DBE2DC42D20000D142200A801A901E3
:101B8600DB2D01302200A8070030A93D1F302902B5
:101B9600403003192802031CD12DD22DDB2D7308EA
:101BA600023E860002308700810120000D10C02D04
:101BB60020008C1EDF2DE02DFC2D2200A401A501A6
:101BC6000130A6070030A73D07302702D0300319A1
:101BD6002602031CEF2DF02D212E20008D14730AF2
:101BE6008600023087008101810A2200A601A70132
:101BF600212E2200A601A70121006203031D042E47
:101C0600052E0B2E20008D142200A401A501212EE5
:101C160001302200A4070030A53D1F3025024030C8
:101C260003192402031C182E192E212E730A86006E
:101C360002308700810120008D10072E0800200049
:101C46000E12000020008E120D14000020008D14CC
:101C56007A302000DA00C130D9008130890B312E6C
:101C6600D90B312EDA0B312E003220000D10000078
:101C760020008D100E10000020008E108931F721F3
:101C86008E318030F4000030F500A030F6000030D0
:101C9600F7000930F8008B3115238E316030F200E1
:101CA600A0308A31BA228E317208730403195C2E71
:101CB6005D2EB42E2100E101E201E301E401E5011C
:101CC6000530E6000030E7000530E8000030E900A6
:101CD6000530EA000030EB000530EC000030ED0086
:101CE6000530EE000030EF0005302200D50001304F
:101CF600D60080302000D2000030D3006030D400FF
:101D06000130D5000930D6008C3149248E3100309F
:101D16002000D200D300E130D4000030D5000F30CF
:101D2600D6008C3149248E3190302000D20000300C
:101D3600D3005530D4000130D5000230D6008C31A6
:101D460049248E31A0302000D2000030D300573015
:101D5600D4000130D5000930D6008C3149248E31AB
:101D6600932F0030F400F5004630F6000130F700FE
:101D76000F30F8008B3115238E31033022004602D6
:101D86000318C62EC72ECB2E46082100B300CE2E32
:101D960002302100B3003308E1000230220047027E
:101DA6000318D62ED72EDB2E47082100B400DD2ED1
:101DB6002100B4013408E200023022004802031870
:101DC600E52EE62EEA2E48082100B500EC2E21006D
:101DD600B5013508E3000230220049020318F42E4B
:101DE600F52EF92E49082100B600FB2E2100B6017A
:101DF6003608E400023022004A020318032F042F9B
:101E0600082F4A082100B7000A2F2100B70137081A
:101E1600E500003022004C020B3003194B02031878
:101E2600152F162F1E2F4C082100AA0022004B0842
:101E36002100A900232F05302100A9000030AA00A7
:101E46002A08E7002908E600003022004E02153075
:101E560003194D020318302F312F392F4E08210058
:101E6600AC0022004D082100AB003E2F05302100BA
:101E7600AB000030AC002C08E9002B08E80000306D
:101E860022005002153003194F0203184B2F4C2F16
:101E9600542F50082100AE0022004F082100AD004B
:101EA600592F05302100AD000030AE002E08EB00A2
:101EB6002D08EA00003022005202153003195102A3
:101EC6000318662F672F6F2F52082100B0002200DB
:101ED60051082100AF00742F05302100AF000030FB
:101EE600B0003008ED002F08EC000030220054024C
:101EF6001530031953020318812F822F8A2F540895
:101F06002100B200220053082100B1008F2F0530B6
:101F16002100B1000030B2003208EF003108EE00B7
:101F26000130210061052000D9000E085906FE394E
:101F360059068E0000002100613601392000D900C3
:101F4600D90D0E085906FD3959068E0001302100BB
:101F560063052000D9000D085906FE3959068D0083
:101F660000002100620801392000D900D90D0D08B2
:101F76005906FD3959068D002100650801392000F2
:101F8600D900D90E0E085906EF3959068E00000001
:101F96002100640801392000D900D90ED90D0E0898
:101FA6005906DF3959068E00210067082400C9004A
:101FB600210066082400C800210069082400CF001B
:101FC600210068082400CE0021006B082400D500FB
:101FD60021006A082400D40021006D082400DB00DB
:101FE60021006C082400DA0021006F082400E100BB
:101FF60021006E082400E00008000D340A34003485
:020000040001F9
:08000000FF3FFF3FFF3FFF3F00
:0A000E009C3FFF3FED0FFF3FFF3F57
:00000001FF
