:0400000080313728EC
:1000060008007E1480310B1F09280A2835282E0087
:10001600191E0E280F281A280F1E122813281A2810
:1000260022003F088A003E080A0080313528991EC2
:100036001D281E2829288F1E21282228292822002B
:100046003D088A003C080A00803135281A1C2C28F5
:100056002D283528101C30283128352889316A2169
:10006600803135287E1009008031392830308400EF
:10007600893085005730860001308700123088317C
:10008600CC208031FA01FB0120308400003085004D
:1000960032308831C6208031DD3084000030850062
:1000A60013308831C620803120308400013085002D
:1000B60037308831C6208031A03084000130850079
:1000C60032308831C62080312030840002308500ED
:1000D60042308831C6208031A0308400023085004D
:1000E60040308831C62080312030840003308500BE
:1000F60040308831C6208031A0308400033085002E
:1001060040308831C62080317E1020008C31EB2CA7
:1001160040302000E300003089311E218031730811
:100126002000E2007208E100620821006C02031D53
:10013600A0282000610821006B020318A328A42828
:10014600AC28200062082100EC0020006108210094
:10015600EB006A0820006202031DB5282100690829
:10016600200061020318B828B928C02862082100B7
:10017600EA00200061082100E900013089311E21D2
:10018600803173082000E2007208E1006208210055
:100196006802031DD22820006108210067020318A7
:1001A600D528D628DE28200062082100E800200095
:1001B60061082100E700660820006202031DE728A7
:1001C60021006508200061020318EA28EB28F228BE
:1001D60062082100E600200061082100E5000230E7
:1001E60089311E21803173082000E2007208E10087
:1001F600620821006402031D042920006108210011
:100206006302031807290829102920006208210023
:10021600E400200061082100E30062082000620279
:10022600031D1929210061082000610203181C29F9
:100236001D29242962082100E2002000610821000E
:10024600E100033089311E21803173082000E2006D
:100256007208E100620821006002031D36292000B1
:10026600610821005F02031839293A294229200032
:1002760062082100E000200061082100DF005E081E
:1002860020006202031D4B2921005D082000610247
:1002960003184E294F29562962082100DE00200046
:1002A60061082100DD0001302000B307143033025D
:1002B600031C5E295F29C12CB30121006A086C0268
:1002C600031D672969086B0203186A296B296F29C0
:1002D6002200B401B501782969086B022200B40036
:1002E60021006A086C3B2200B50034082000AC07E8
:1002F600220035082000AD3D0030AE3DAF3D210067
:1003060066086802031D89296508670203188C2997
:100316008D2991292200B201B3019A296508670245
:100326002200B20021006608683B2200B3003208B2
:100336002000A807220033082000A93D0030AA3D6E
:10034600AB3D210062086402031DAB29610863020C
:100356000318AE29AF29B3292200B001B101BC2987
:10036600610863022200B00021006208643B22009B
:10037600B10030082000A407220031082000A53D66
:100386000030A63DA73D21005E086002031DCD2971
:100396005D085F020318D029D129D5292200AE01B4
:1003A600AF01DE295D085F022200AE0021005E0873
:1003B600603B2200AF002E082000A00722002F0875
:1003C6002000A13D0030A23DA33D01302200AC0734
:1003D6000030AD3D00302D02193003192C02031CEC
:1003E600F529F629992C01302100EE002200AC01F6
:1003F600AD010030F5000030F4000030F300193094
:10040600F20020002F08F9002E08F8002D08F7004A
:100416002C08F6008C313424803175082000AF009A
:100426007408AE007308AD007208AC000030F50029
:100436000030F4000030F3001930F2002B08F90008
:100446002A08F8002908F7002808F6008C31342419
:10045600803175082000AB007408AA007308A90053
:100466007208A8000030F5000030F4000030F300F8
:100476001930F2002708F9002608F8002508F700C9
:100486002408F6008C313424803175082000A7003A
:100496007408A6007308A5007208A4000030F500D1
:1004A6000030F4000030F3001930F2002308F900A0
:1004B6002208F8002108F7002008F6008C313424C1
:1004C600803175082000A3007408A2007308A100FB
:1004D6007208A00063080E3E860002308700403F87
:1004E600D700413FD8005708D9005808DA00DB0189
:1004F600DC015C082F02031D8A2A5B082E02031DFD
:100506008A2A5A082D02031D8A2A59082C02031C1E
:100516008D2A8E2AB62A63080E3E86000230870090
:10052600403FD700413FD8005708D9005808DA00A5
:10053600DB01DC012C08DD002D08DE002E08DF00C3
:100546002F08E0005908DD025A08DE3B5B08DF3B56
:100556005C08E03B6008AF005F08AE005E08AD00D7
:100566005D08AC00BE2A0030AF000030AE0000309F
:10057600AD000030AC006308143E860002308700F0
:10058600403FD700413FD8005708D9005808DA0045
:10059600DB01DC015C082B02031DDB2A5B082A0257
:1005A600031DDB2A5A082902031DDB2A59082802E3
:1005B600031CDE2ADF2A072B6308143E860002305E
:1005C6008700403FD700413FD8005708D900580858
:1005D600DA00DB01DC012808DD002908DE002A0834
:1005E600DF002B08E0005908DD025A08DE3B5B08F5
:1005F600DF3B5C08E03B6008AB005F08AA005E08D2
:10060600A9005D08A8000F2B0030AB000030AA003F
:100616000030A9000030A80063081A3E86000230A8
:100626008700403FD700413FD8005708D9005808F7
:10063600DA00DB01DC015C082702031D2C2B5B08BA
:100646002602031D2C2B5A082502031D2C2B5908A4
:100656002402031C2F2B302B582B63081A3E8600CE
:1006660002308700403FD700413FD8005708D900E5
:100676005808DA00DB01DC012408DD002508DE006D
:100686002608DF002708E0005908DD025A08DE3B8D
:100696005B08DF3B5C08E03B6008A7005F08A6003C
:1006A6005E08A5005D08A400602B0030A70000309E
:1006B600A6000030A5000030A4006308203E860096
:1006C60002308700403FD700413FD8005708D90085
:1006D6005808DA00DB01DC015C082302031D7D2BD0
:1006E6005B082202031D7D2B5A082102031D7D2B68
:1006F60059082002031C802B812BA92B6308203E5E
:10070600860002308700403FD700413FD800570897
:10071600D9005808DA00DB01DC012008DD002108D9
:10072600DE002208DF002308E0005908DD025A082F
:10073600DE3B5B08DF3B5C08E03B6008A3005F082C
:10074600A2005E08A1005D08A000B12B0030A30046
:100756000030A2000030A1000030A00063080C3E6B
:100766008600023087002C08C03F2D08C13F630871
:10077600123E8600023087002808C03F2908C13F84
:100786006308183E8600023087002408C03F25080B
:10079600C13F63081E3E8600023087002008C03F26
:1007A6002108C13F63080A3E8600023087006308BD
:1007B600083E840002308500003FD700013FD80084
:1007C6005708D9005808DA00DB01DC015C082F0263
:1007D600031DF72B5B082E02031DF72B5A082D026B
:1007E600031DF72B59082C020318FA2BFC2B01309A
:1007F600FD2B003081006308103E86000230870022
:100806006308083E840002308500003FD700013FA0
:10081600D8005708D9005808DA00DB01DC015C086B
:100826002B02031D202C5B082A02031D202C5A08CC
:100836002902031D202C590828020318232C252CD5
:100846000130262C003081006308163E86000230F7
:1008560087006308083E840002308500003FD70009
:10086600013FD8005708D9005808DA00DB01DC013F
:100876005C082702031D492C5B082602031D492C30
:100886005A082502031D492C5908240203184C2C2A
:100896004E2C01304F2C0030810063081C3E860030
:1008A600023087006308083E840002308500003F5E
:1008B600D700013FD8005708D9005808DA00DB01F5
:1008C600DC015C082302031D722C5B082202031D57
:1008D600722C5A082102031D722C59082002031893
:1008E600752C772C0130782C003081000030AF0059
:1008F6000030AE000030AD000030AC000030AB0080
:100906000030AA000030A9000030A8000030A7007F
:100916000030A6000030A5000030A4000030A3007F
:100926000030A2000030A1000030A0002100EB0141
:10093600EC01FF30E9000330EA002200B401B50102
:100946002100E701E801FF30E5000330E600220060
:10095600B201B3012100E301E401FF30E1000330FD
:10096600E2002200B001B1012100DF01E001FF3009
:10097600DD000330DE002200AE01AF0108002300D7
:1009860020082000B6003603031DCA2CCB2CAA2F44
:10099600230021082000B5009F2F230023082000F4
:1009A600E800E901230022082000EA00EB016A08BA
:1009B600EB00EA0168086A042100D60020006908F5
:1009C6006B042100D700230025082000E800E90178
:1009D600230024082000EA00EB016A08EB00EA0184
:1009E60068086A042100D200200069086B0421000F
:1009F600D3005235D500A030F2000130F3000630A6
:100A0600F4008B317123843173082100DA007208F7
:100A1600D9005A0823002706031D152D2100590861
:100A2600230026060319182D192D1A2DAA2F00307A
:100A360021005702123003195602031C232D242DC0
:100A4600252DAA2F53082000E90021005208200076
:100A5600E800E835E90D00306902453003196802FF
:100A6600031C362D372D382DAA2F21005508053E9B
:100A7600D4000130A0000330A1005508A200A33025
:100A8600F2000030F30057082000E9002100560864
:100A96002000E800E835E90D4030EA000230EB00BE
:100AA60068086A07EC0069086B3DED006C08F40005
:100AB6006D08F500210055082000EE00EF016E08D4
:100AC600F6006F08F7008A3168228431A030F20000
:100AD6000030F30021005508033EF4008B317123EA
:100AE600843173082100DA007208D9005508033EE4
:100AF600A03E86008701590881005508043EA03EA5
:100B0600860087015A0881002A302000E8008D30CF
:100B1600890B8B2DE80B8B2D00322100D801A82DD7
:100B26005808A03E8600870101082000E800E90178
:100B36006808F4006908F5000030F600F7008C310B
:100B46008D24843101302100D80754085802031C33
:100B5600AD2DAE2D932D00302000E6009030E7003D
:100B66008831EB208431AA2F230023082000E800D7
:100B7600E901230022082000EA00EB016A08EB00E5
:100B8600EA0168086A042100D600200069086B049F
:100B96002100D700230024082100DB000F305B066C
:100BA6000319D62DD72DD82DAA2FA030F20001304B
:100BB600F3005B08053EF4008B3171238431730822
:100BC6002100DA007208D9005B08A53E86000130D4
:100BD60087005B08A63E8400013085005A0800069F
:100BE600031DF72D590801060319FA2DFB2DFC2DBF
:100BF600AA2F4330F2000030F300A530F400013094
:100C0600F5005B082000E800E9016808F6006908BD
:100C1600F7008A3168228431013020004305E8005C
:100C26000E086806FE3968068E000000200043089C
:100C3600E8000130E836890B1D2E68080139E90005
:100C4600E90D0E086906FD3969068E00490824007B
:100C5600C900200048082400C80020004B082400D2
:100C6600CF0020004A082400CE0020004D082400B2
:100C7600D50020004C082400D40020004F08240092
:100C8600DB0020004E082400DA0020005108240072
:100C9600E100200050082400E00021005708200051
:100CA600D300210056082000D2004330D400003083
:100CB600D5000F30D6008731AB27843107302100AD
:100CC600D4000130A0006530A1005708A2005608E4
:100CD600A3005B08A400A030F2000030F30005304A
:100CE600F4008B317123843173082100DA00720815
:100CF600D9005908A5005A08A6002A302000E800A5
:100D06008D30890B842EE80B842E00322100D80109
:100D1600A12E5808A03E8600870101082000E800A1
:100D2600E9016808F4006908F5000030F600F700EC
:100D36008C318D24843101302100D80754085802A3
:100D4600031CA62EA72E8C2EAA2F230023082000D4
:100D5600E800E901230022082000EA00EB016A0806
:100D6600EB00EA0168086A042100D6002000690841
:100D76006B042100D700230024082100DB00A030EB
:100D8600F2000130F3000530F4008B317123843119
:100D960073082100DA007208D9005A0823002606D3
:100DA600031DD92E21005908230025060319DC2E20
:100DB600DD2EDE2EAA2F21005B0856072000E80054
:100DC600210057080318570A2000E900013069027C
:100DD600013003196802031CF12EF22EF32EAA2FFE
:100DE60021005B08053E2000E800003003180130B2
:100DF600E9006908803AEA0080306A02031D052F7F
:100E060033306802031C082F092F0A2FAA2F21004E
:100E1600DC015C08A03E86008701013081000130BC
:100E2600DC075C08A03E8600870164308100013043
:100E3600DC075C08A03E8600870157088100013068
:100E4600DC075C08A03E8600870156088100013059
:100E5600DC075C08A03E860087015B088100013044
:100E6600DC07D801532F5C08A03E8600870158088E
:100E760056072000E800210057080318570A2000EB
:100E8600E9006808003EF200F030693DF300883161
:100E9600D2208431810001302100DC070130D807DF
:100EA6005B085802031C582F592F362FA030F2002A
:100EB6000030F3005C08F4008B3171238431730831
:100EC6002100DA007208D9005C08A03E860087017E
:100ED600590881000130DC075C08A03E86008701C6
:100EE6005A0881000130DC072A302000E8008D30E6
:100EF600890B7B2FE80B7B2F00322100D801982F1E
:100F06005808A03E8600870101082000E800E90194
:100F16006808F4006908F5000030F600F7008C3127
:100F26008D24843101302100D8075C085802031C47
:100F36009D2F9E2F832FAA2F3508033A0319D02CF5
:100F4600673A0319A82E013A0319B72DAA2F0800EC
:100F5600F901C72F79085207F60053080318530AF8
:100F6600F7007608003EF200F030773DF30079088E
:100F7600540786000030553D87000108F40089318A
:100F8600CB2187310130F907200056087902031C6E
:100F9600CD2FCE2FAD2FF801F901F02F7908540788
:100FA60086000030553D870079085207F600530841
:100FB6000318530AF7007608003EF200F030773D3A
:100FC600F3008831D220873101060319EB2FEC2F6D
:100FD600EE2F0130F8070130F90720005608790294
:100FE600031CF62FF72FD12F08002F00960197012B
:0A0FF600980199019A019B0108007F
:10113400893155218831080022001D121D1608002E
:1011440073082200B7007208B60008007308220072
:10115400BB007208BA00080073082200B9007208C4
:10116400B800080073082200BD007208BC00080023
:1011740073082200BF007208BE0008007308220032
:10118400C5007208C4000800640080010131890BA5
:10119400C7280034FE0012001E00FE0BCD280034C8
:1011A400730830009B0072089A001E171E1400007A
:1011B400000030001C080800103031008D008F0141
:1011C4009101053093009201101CE928EA28E628D1
:1011D40008006830F90000302000DF00E0006708F4
:1011E400E2006608E1007930E3008931E9218831C1
:1011F400080024000E1DFF28002907290E1071087D
:101204008D0070088C000E140B2971088D00700875
:101214008C000800F30020000D15A0300032890B6B
:10122400102973088A318E228931A0300032890B4B
:10123400182920000D110800F400740821009E00F4
:101244009317131313140000210013182A292B29B0
:1012540026290D08F3000C08F20008003134363456
:101264004634313438343834353435340034533436
:101274002D3443346C346134733473344434003463
:101284008731F82789318A31DD2289318831DE209E
:1012940089318931992189318A31262289318B31E9
:1012A400AC23893108007B08A03E86000330870008
:1012B4002200190881000130FB0740307B02031C27
:1012C400642965296629FB0101302000B70708005D
:1012D4002E00101020003108F1003008F000883191
:1012E400FB20893122004408450403197A297B290B
:1012F400802945088A0044080A0089310800220030
:101304001908F00020003D08A03E86000130870047
:10131400700881000130BD0733303D02031C93295E
:1013240094299529BD01BC010130BB0008002200AD
:101334008E018F0190019101920193018D01210091
:101344009E019B019C0194019501960197019A01CC
:1013540099010F309800843093009D01080020000B
:101364000D11003022001D1A0130FF3A9D050000C6
:10137400003022001D1A01309D0400309D1B0130F5
:10138400FF3A9D050000003022009D1B01309D04A2
:1013940008000B0D0B0D0139F500730830009B009C
:1013A40072089A0074089C001E171E158B13553082
:1013B4009F00AA309F009E149E18E129E229DE298D
:1013C4001E11750C031C8B1303188B1708002000C7
:1013D4006208E5006108E400FA296008D8005F08A3
:1013E400D7006430D9006308DA008B31EA238931ED
:1013F400200064088400650885001200031D032A88
:10140400042AEF29DF01E0010800403020003802FF
:1014140003180D2A0E2A232A3908203E8600033099
:101424008700010822009A0001302000B9074030EB
:101434003902031C1E2A1F2A202AB9010130B807C9
:10144400252A2E001912080024008F019001023071
:10145400910083308D008C012E00101024000D08A3
:101464002000B10024000C082000B0002E001A1443
:101474000830F2000B30F3008831C0208A3101308B
:1014840024008E000800F901612A79087607860095
:101494000030773D8700790874072000D200750872
:1014A4000318750AD3005208003EF200F030533D91
:1014B400F3008831D2208A3181000130F90778089D
:1014C4007902031C662A672A472A08007508200047
:1014D400D4007408D3007208D500812A530886000A
:1014E400540887000108D2000130D3070030D43DEE
:1014F400550886008701520881000130D507013064
:10150400F6020030F73B760A031D8C2A770A031D86
:101514008C2A8D2A702A0800F2002000380803194A
:10152400942A952A8F2A2E00191A992A9A2A9E2AD1
:10153400720822009A00B22A191220003A08203EAA
:10154400860003308700720881000130BA074030FA
:101554003A02031CAE2AAF2AB02ABA010130B802FB
:101564002E0019160800BA2A0130F2070130F307D9
:101574007308860001308700720884008501000822
:101584000106031DC62AC72ACF2A720886008701CE
:101594000108031DCE2ACF2AB62A720886008701C5
:1015A400730884000130850000080102F200F30191
:1015B400031CF30308002000960197019801FF30F3
:1015C4009100E0309200803093003E00CE01C301D0
:1015D4000F30B800E501C401B901CF01BA01C5015A
:1015E400D001FF30BB00FF30C600FF30D100FF3018
:1015F400BC00FF30C700FF30D2000830E8001730CD
:101604003D00CB0010303E00A60008000130200051
:10161400C2000130C1000130C00001302200C20705
:101624000030C33D03304302E83003194202031C77
:101634001C2B1D2B222BC201C30101302000BF0033
:1016440001302200C0070030C13D00304102143097
:1016540003194002031C2F2B302B352BC001C10171
:1016640001302000BE0008007B08A03E8600023046
:101674008700810122001D1D402B412B4C2B7B0830
:10168400A03E86000230870081143B088A003A0895
:101694000A008B3122009D1C502B512B5C2B7B08A4
:1016A400A03E860002308700011539088A003808F8
:1016B4000A008B317B08A03E8600023087000108B7
:1016C4000319652B662B6D2B220037088A00360818
:1016D4000A008B31702B893181218B310800FF3056
:1016E4002000D500FF30D600D301A12B5308720788
:1016F40086000030733D87000108F500F601750887
:10170400D5067608D6060830D40055080139D2002B
:101714000130D636D50C890B8B2B5203031D932B2A
:10172400942B982B0130D506A030D6060130D40274
:101734005408031D9E2B9F2B872B0130D30774085D
:101744005302031CA62BA72B782B5608F30055082D
:10175400F20008002E0099123630F2000B30F3002C
:101764008831B4208B312E0019120730F2000A3070
:10177400F3008831BA208B31083022009F0090306A
:101784009D0024309E0044309B009C010330F200F5
:101794000030F3008831A8208B319E30F2000830ED
:1017A400F3008831AE208B319A30F2000830F30018
:1017B4008831A2208B312100EF012000BA01B90148
:1017C4004030B800FB01FA01B7012E009916080059
:1017D4002000590886008701403FDB00413FDC00C0
:1017E4005B0884005C0885001200253A031DFB2B6E
:1017F400FC2B192C590886008701013081074131DF
:101804000318810A2200A001A10100302100ED008B
:10181400FF302200A200FF30A300200059088600F8
:1018240087010130810741310318810A332C59089B
:1018340086008701403FDB00413FDC005B088400F9
:101844005C0885000008DD00DE015D08F4005E0828
:10185400F5005808F7005708F6008C318D248B31B9
:101864000F2C080000302000D5000030D4000030D8
:10187400D3000030D2007508740473047204031991
:10188400442C452C842C0130D600512C0130F235E7
:10189400F30DF40DF50D890B492C0130D607F51F16
:1018A400542C552C482C0130D235D30DD40DD50DE4
:1018B400890B562C75087902031D6A2C740878026A
:1018C400031D6A2C73087702031D6A2C72087602C2
:1018D400031C6D2C6E2C772C7208F6027308F73BF0
:1018E4007408F83B7508F93B52140130F536F40CD2
:1018F400F30CF20C890B782C0130D602031D832CD7
:10190400842C552C5508F5005408F4005308F300B2
:101914005208F2000800760877040319922C932CDD
:10192400992C76087704031D982C992C9E2C740806
:1019340089310C218C31EA2C7608860077088700DF
:101944004931160001040319A82CA92CCA2C7608C5
:101954008600770887004931403F2000D200413F8C
:10196400D30076088600770887004231403FD400D0
:10197400413FD5005508803AD6005308803A5602B4
:10198400031DC62C520854020318C92CCA2CEA2C75
:101994007608860077088700423176088400770845
:1019A4008500003F2000D200013FD300403F520792
:1019B4008400413F533D850074088000760886000A
:1019C4007708870042310130810741310318810AC9
:1019D4000800893142218C318B170B178E31102668
:1019E4008C316400200041080319F92CFA2C292DAC
:1019F400003022009D1801301D050319022D032D0E
:101A04000E2D00301D1A0130FF3A9D0500000030F4
:101A140022001D1A01309D0420003B080319132DD8
:101A2400142D282D0130BC0715303C02031C1B2D3E
:101A34001C2D282D003022001D1A0130FF3A9D056F
:101A44002000BB01BD010130B400BC01C101340858
:101A540003192D2D2E2D382D8431C2248C310030C4
:101A640022001D1A01309D042000B4013F0803190F
:101A74003C2D3D2D3E2DBF013E080319422D432D23
:101A8400472DBE0180318B208C3120004008031982
:101A94004C2D4D2DF32CC0018D3154258C31F32C5C
:101AA400803137284030F20020000C1F5A2D5B2D66
:101AB4007D2D0130B20764303202031C622D632D88
:101AC400842D4708031D672D682D6C2D1816971556
:101AD40017166F2D1812971117124608031D732D30
:101AE400742D782D9816981518157B2D9812981129
:101AF4001811B201842DB2019812181298111811FC
:101B0400971117120C1E872D882DA52D2200A801D0
:101B1400A9010130AA070030AB3D07302B02D030B9
:101B240003192A02031C972D982DCA2D200017147F
:101B34007208023E860002308700013081002200D4
:101B4400AA01AB01CA2D2200AA01AB012000450362
:101B5400031DAD2DAE2DB32D17142200A801A9012C
:101B6400CA2D01302200A8070030A93D1F302902E8
:101B7400403003192802031CC02DC12DCA2D20009A
:101B840017107208023E8600023087008101AF2DD3
:101B940020008C1ECE2DCF2DEB2D2200A401A501FB
:101BA4000130A6070030A73D07302702D0300319C3
:101BB4002602031CDE2DDF2D0F2E20009714720A3F
:101BC400860002308700013081002200A601A701AF
:101BD4000F2E2200A601A70120004403031DF32DAC
:101BE400F42DF92D97142200A401A5010F2E013024
:101BF4002200A4070030A53D1F3025024030031900
:101C04002402031C062E072E0F2E20009710720AA2
:101C14008600023087008101F52D080020000E1295
:101C2400000020008E120D14000020008D147A3064
:101C34002000D800C130D7008130890B1F2ED70B6C
:101C44001F2ED80B1F2E003220000D100000200084
:101C54008D100E10000020008E108931B1218E31BC
:101C64008030F4000030F500A030F6000030F700BA
:101C74000930F8008A3145228E31A030F2006030FC
:101C8400F3008A31B5228E317208730403194B2E86
:101C94004C2EA32E2000C301C401C501C601C701F7
:101CA4000530C8000030C9000530CA000030CB0040
:101CB4000530CC000030CD000530CE000030CF0020
:101CC4000530D0000030D10006302200D5000130AC
:101CD400D60080302000D2000030D3006030D40021
:101CE4000130D5000930D6008731AB278E31003062
:101CF4002000D200D3004330D4000030D5000F3090
:101D0400D6008731AB278E3190302000D2000030CE
:101D1400D3005530D4000130D5000230D6008731CD
:101D2400AB278E31A0302000D2000030D3005730D2
:101D3400D4000130D5000930D6008731AB278E316D
:101D4400962F0030F400F5004630F6000130F7001D
:101D54000F30F8008A3145228E31033022004602CA
:101D64000318B52EB62EBA2E46082100B300BD2E98
:101D740002302100B30033082000C30002302200E7
:101D840047020318C62EC72ECB2E47082100B400E5
:101D9400CD2E2100B40134082000C40002302200FA
:101DA40048020318D62ED72EDB2E48082100B50092
:101DB400DD2E2100B50135082000C50002302200C7
:101DC40049020318E62EE72EEB2E49082100B6003F
:101DD400ED2E2100B60136082000C6000230220094
:101DE4004A020318F62EF72EFB2E4A082100B700EC
:101DF400FD2E2100B70137082000C7000030220063
:101E04004C020B3003194B020318092F0A2F122F0F
:101E14004C082100AA0022004B082100A900172F1A
:101E240005302100A9000030AA002A082000C900BA
:101E3400210029082000C800003022004E0215307D
:101E440003194D020318272F282F302F4E08210085
:101E5400AC0022004D082100AB00352F05302100D5
:101E6400AB000030AC002C082000CB0021002B0874
:101E74002000CA00003022005002153003194F021E
:101E84000318452F462F4E2F50082100AE00220084
:101E94004F082100AD00532F05302100AD00003064
:101EA400AE002E082000CD0021002D082000CC001B
:101EB4000030220052021530031951020318632F17
:101EC400642F6C2F52082100B00022005108210019
:101ED400AF00712F05302100AF000030B000300892
:101EE4002000CF0021002F082000CE000030220067
:101EF40054021530031953020318812F822F8A2F9D
:101F040054082100B200220053082100B1008F2F91
:101F140005302100B1000030B20032082000D100A9
:101F2400210031082000D000013020004305D700F3
:101F34000E085706FE3957068E000000200043089D
:101F4400D7000130D736890BA42F57080139D800A0
:101F5400D80D0E085806FD3958068E000130450587
:101F6400D7000D085706FE3957068D0000002000E3
:101F740044080139D700D70D0D085706FD39570617
:101F84008D0047080139D700D70E0E085706EF39E0
:101F940057068E000000200046080139D700D70EEE
:101FA400D70D0E085706DF3957068E00490824005E
:101FB400C900200048082400C80020004B08240061
:101FC400CF0020004A082400CE0020004D08240041
:101FD400D50020004C082400D40020004F08240021
:101FE400DB0020004E082400DA0020005108240001
:101FF400E100200050082400E00008000D340A34F9
:022004000034A6
:020000040001F9
:08000000FF3FFF3FFF3FFF3F00
:0A000E009C3FFF3FED0FFF3FFF3F57
:00000001FF
