:0400000080313C28E7
:100008007E1480310B1F09280A283A282100111E66
:100018000E280F281B282000111E132814281B281F
:10002800220055088A0054080A0080313A28210025
:10003800911E1F2820282C282000911E24282528BE
:100048002C28220053088A0052080A0080313A28D6
:100058002100111C302831283A282000111C35288D
:1000680036283A289331E02380313A287E10090057
:1000780080313E289430840093308500C530860056
:10008800013087000030FF00113093317723803131
:1000980070308400233085008030FE000030FF007F
:1000A80093316B238031FA01FB01ED01EE01210050
:1000B800B301B401B501B601B701B801B9012030E7
:1000C8008400013085005030FE000030FF0093317D
:1000D8006B238031A0308400013085002530FE007C
:1000E8000030FF0093316B238031203084000230D0
:1000F80085003230FE000030FF0093316B238031E1
:10010800A0308400023085004230FE000030FF003D
:1001180093316B23803120308400033085004030D8
:10012800FE000030FF0093316B238031A030840043
:10013800033085004030FE000030FF0093316B2310
:10014800803120308400043085004030FE000030CB
:10015800FF0093316B2380317E10200089312B29D9
:10016800A0302000A6002608B2000030943179247F
:10017800803173082000B1007208B00031082200F5
:100188004702031DCB28200030082200460203182E
:10019800CE28CF28D728200031082200C700200009
:1001A80030082200C600450820003102031DE0285F
:1001B80022004408200030020318E328E428EB2832
:1001C80031082200C500200030082200C400013098
:1001D80094317924803173082000B1007208B0008E
:1001E800310822004302031DFD28200030082200A8
:1001F8004202031800290129092920003108220098
:10020800C300200030082200C2004108200031024B
:10021800031D122922004008200030020318152966
:1002280016291D2931082200C100200030082200AB
:10023800C000023094317924803173082000B10065
:100248007208B000310822003F02031D2F29200048
:10025800300822003E020318322933293B292000A6
:1002680031082200BF00200030082200BE003D08EF
:1002780020003102031D442922003C0820003002DE
:100288000318472948294F2931082200BD002000BA
:1002980030082200BC00033094317924803173087F
:1002A8002000B1007208B000310822003B02031D93
:1002B80061292000300822003A02031864296529C0
:1002C8006D29200031082200BB00200030082200E0
:1002D800BA00390820003102031D762922003808A7
:1002E80020003002031879297A298129310822004F
:1002F800B900200030082200B8002200D7014508C4
:100308004702031D89294408460203188C298D29B0
:100318009029B601B701962944084602B600450857
:10032800473BB7003608AC073708AD3D0030AE3D57
:10033800AF3D41084302031DA329400842020318A8
:10034800A629A729AA29B401B501B0294008420263
:10035800B4004108433BB5003408A8073508A93D57
:100368000030AA3DAB3D3D083F02031DBD293C08B6
:100378003E020318C029C129C5292300B001B101D3
:10038800CE293C083E022300B00022003D083F3B36
:100398002300B10030082200A407230031082200FE
:1003A800A53D0030A63DA73D39083B02031DDE29C7
:1003B80038083A020318E129E229E6292300AE01A8
:1003C800AF01EF2938083A022300AE0022003908AD
:1003D8003B3B2300AF002E082200A00723002F0874
:1003E8002200A13D0030A23DA33D01302300AC070F
:1003F8000030AD3D13302D02883003192C02031C48
:10040800062A072A672D2200D801D80A2300AC0142
:10041800AD010030F5000030F4001330F3008830EF
:10042800F20022002F08F9002E08F8002D08F70026
:100438002C08F6009731A527803175082200AF00F7
:100448007408AE007308AD007208AC000030F50007
:100458000030F4001330F3008830F2002B08F90064
:100468002A08F8002908F7002808F6009731A52778
:10047800803175082200AB007408AA007308A9002F
:100488007208A8000030F5000030F4001330F300C3
:100498008830F2002708F9002608F8002508F70038
:1004A8002408F6009731A527803175082200A70097
:1004B8007408A6007308A5007208A4000030F500AF
:1004C8000030F4001330F3008830F2002308F900FC
:1004D8002208F8002108F7002008F6009731A52720
:1004E800803175082200A3007408A2007308A100D7
:1004F8007208A000200032080E3E860002308700F5
:10050800403FA600413FA7002608A8002708A900E9
:10051800AA01AB012B0822002F02031DA32A2000E9
:100528002A0822002E02031DA32A200029082200DF
:100538002D02031DA32A2000280822002C02031CD8
:10054800A62AA72ADF2A200032080E3E860002309B
:100558008700403FA600413FA7002608A8002708BB
:10056800A900AA01AB0122002C082000AC0022003F
:100578002D082000AD0022002E082000AE00220029
:100588002F082000AF002808AC022908AD3B2A0834
:10059800AE3B2B08AF3B2F082200AF0020002E08EF
:1005A8002200AE0020002D082200AD0020002C08FB
:1005B8002200AC00E72A0030AF000030AE00003067
:1005C800AD000030AC0020003208143E8600023036
:1005D8008700403FA600413FA7002608A80027083B
:1005E800A900AA01AB012B0822002B02031D0C2B2A
:1005F80020002A0822002A02031D0C2B20002908AB
:1006080022002902031D0C2B2000280822002802A2
:10061800031C0F2B102B482B20003208143E860099
:1006280002308700403FA600413FA7002608A800E7
:100638002708A900AA01AB01220028082000AC0065
:10064800220029082000AD0022002A082000AE0060
:1006580022002B082000AF002808AC022908AD3B77
:100668002A08AE3B2B08AF3B2F082200AB00200026
:100678002E082200AA0020002D082200A900200030
:100688002C082200A800502B0030AB000030AA0034
:100698000030A9000030A800200032081A3E860069
:1006A80002308700403FA600413FA7002608A80067
:1006B8002708A900AA01AB012B0822002702031D65
:1006C800752B20002A0822002602031D752B200006
:1006D800290822002502031D752B20002808220066
:1006E8002402031C782B792BB12B200032081A3EE8
:1006F800860002308700403FA600413FA700260839
:10070800A8002708A900AA01AB012200240820009C
:10071800AC00220025082000AD0022002608200099
:10072800AE00220027082000AF002808AC022908E4
:10073800AD3B2A08AE3B2B08AF3B2F082200A70091
:1007480020002E082200A60020002D082200A50067
:1007580020002C082200A400B92B0030A70000308C
:10076800A6000030A5000030A40020003208203E7A
:10077800860002308700403FA600413FA7002608B8
:10078800A8002708A900AA01AB012B082200230210
:10079800031DDE2B20002A0822002202031DDE2B67
:1007A8002000290822002102031DDE2B2000280832
:1007B80022002002031CE12BE22B1A2C2000320815
:1007C800203E860002308700403FA600413FA70038
:1007D8002608A8002708A900AA01AB0122002008C2
:1007E8002000AC00220021082000AD0022002208D1
:1007F8002000AE00220023082000AF002808AC0229
:100808002908AD3B2A08AE3B2B08AF3B2F08220036
:10081800A30020002E082200A20020002D0822009C
:10082800A10020002C082200A000222C0030A300E8
:100838000030A2000030A1000030A00020003208E3
:100848000C3E86000230870022002C08C03F2D088D
:10085800C13F20003208123E860002308700220085
:100868002808C03F2908C13F20003208183E8600EA
:100878000230870022002408C03F2508C13F20001D
:1008880032081E3E86000230870022002008C03F42
:100898002108C13F20003208083E86000230870048
:1008A800403FA600413FA7002608A8002708A90046
:1008B800AA01AB012B0822002F02031D732C200074
:1008C8002A0822002E02031D732C2000290822006A
:1008D8002D02031D732C2000280822002C02031867
:1008E800762C782C0130792C00302000AC003208AE
:1008F8000A3E8600023087002C0881003208083E34
:10090800860002308700403FA600413FA700260826
:10091800A8002708A900AA01AB012B0822002B0276
:10092800031DA62C20002A0822002A02031DA62C3B
:100938002000290822002902031DA62C20002808CF
:10094800220028020318A92CAB2C0130AC2C003053
:100958002000AC003208103E8600023087002C08C8
:1009680081003208083E860002308700403FA6001A
:10097800413FA7002608A8002708A900AA01AB0143
:100988002B0822002702031DD92C20002A08220048
:100998002602031DD92C2000290822002502031D48
:1009A800D92C20002808220024020318DC2CDE2C75
:1009B8000130DF2C00302000AC003208163E8600E3
:1009C800023087002C0881003208083E8600023079
:1009D8008700403FA600413FA7002608A800270837
:1009E800A900AA01AB012B0822002302031D0C2D2C
:1009F80020002A0822002202031D0C2D20002908AD
:100A080022002102031D0C2D2000280822002002AC
:100A180003180F2D112D0130122D00302000AC00CD
:100A280032081C3E8600023087002C088100003006
:100A38002200AF000030AE000030AD000030AC0046
:100A48000030AB000030AA000030A9000030A80038
:100A58000030A7000030A6000030A5000030A40038
:100A68000030A3000030A2000030A1000030A00038
:100A78000030C6000230C7000030C4000230C50094
:100A8800B601B7010030C2000230C3000030C00018
:100A98000230C100B401B5010030BE000230BF0011
:100AA8000030BC000230BD002300B001B1010030AD
:100AB8002200BA000230BB000030B8000230B90092
:100AC8002300AE01AF01080020000E120000200034
:100AD8008E120D14000020008D147A302000AB0017
:100AE800C130AA008130890B772DAA0B772DAB0B6B
:100AF800772D003220000D10000020008D100E1000
:100B0800000020008E109431CF2485318030F5000C
:100B18001F30F6007030F7002330F80080302000D6
:100B2800AA002A08F9009531632585312C30F20096
:100B38000030F300B030F4002330F5000930F6003F
:100B48000030F7009531B8258531C5302000AA005E
:100B58002A08F2002C309531E52585317208730496
:100B68000319B72DB82D172E2200E101E201E30188
:100B7800E401E5010530E6000030E7001430E80044
:100B88000030E9001430EA000030EB001430EC00CB
:100B98000030ED001430EE000030EF000430230088
:100BA800C3000130C4007030F2002330F30061301C
:100BB800F4000130F5000F30F6000030F7009531F1
:100BC800B8258531B030F2002330F300C530F40089
:100BD8000130F5000930F6000030F7009531B825EE
:100BE8008531C030F2002330F300C330F400013007
:100BF800F5000230F6000030F7009531B825853150
:100C0800D030F2002330F300CE30F4000130F5008C
:100C18000830F6000030F7009531B8258531953158
:100C280015258531232FB430F2000130F3007030E0
:100C3800F4002330F5000F30F6000030F70095314E
:100C4800B825853103302300340203182C2E2D2EAD
:100C5800332E34082000AA002A08BF00382E02309C
:100C68002000AA002A08BF003F08AA002A0822007C
:100C7800E1000230230035020318432E442E4A2E89
:100C880035082000AA002A08C0004C2E2000C00108
:100C98004008AA002A082200E20002302300360297
:100CA8000318572E582E5E2E36082000AA002A0850
:100CB800C100602E2000C1014108AA002A082200B4
:100CC800E30002302300370203186B2E6C2E722EBD
:100CD80037082000AA002A08C200742E2000C2018A
:100CE8004208AA002A082200E40002302300380241
:100CF80003187F2E802E862E38082000AA002A0886
:100D0800C300882E2000C3014308AA002A08220035
:100D1800E500003023003A020630031939020318AF
:100D2800962E972E9F2E3A082000B60023003908E9
:100D38002000B500A42E05302000B5000030B60014
:100D480036082200E700200035082200E6000030BF
:100D580023003C02153003193B020318B42EB52EAC
:100D6800BD2E3C082000B80023003B082000B70037
:100D7800C22E14302000B7000030B8003808220016
:100D8800E900200037082200E800003023003E0276
:100D9800153003193D020318D22ED32EDB2E3E0840
:100DA8002000BA0023003D082000B900E02E1430CE
:100DB8002000B9000030BA003A082200EB002000F9
:100DC80039082200EA0000302300400215300319D8
:100DD8003F020318F02EF12EF92E40082000BC0027
:100DE80023003F082000BB00FE2E14302000BB006B
:100DF8000030BC003C082200ED0020003B08220027
:100E0800EC00003023004202153003194102031898
:100E18000E2F0F2F172F42082000BE002300410875
:100E28002000BD001C2F14302000BD000030BE0083
:100E38003E082200EF0020003D082200EE000130AD
:100E4800220061052000AA000E082A06FE392A069B
:100E58008E0000002200613601392000AA00AA0D88
:100E68000E082A06FD392A068E0001302200630585
:100E78002000AA000D082A06FE392A068D00000067
:100E88002200620801392000AA00AA0D0D082A06CE
:100E9800FD392A068D002200650801392000AA00C4
:100EA800AA0E0E082A06EF392A068E000000220034
:100EB800640801392000AA00AA0EAA0D0E082A0605
:100EC800DF392A068E00220067082500A9002200C3
:100ED80066082500A800220069082500AF00220046
:100EE80068082500AE0022006B082500B500220026
:100EF8006A082500B40022006D082500BB00220006
:100F08006C082500BA0022006F082500C1002200E5
:100F18006E082500C0000800E03075052000A2001A
:100F28001F307605A30000308B1B0130A400230876
:100F38007606031DA12F220875060319A42FA52FD5
:100F4800A72FFF30F12F8B137608F3007508F200F6
:100F58009431942487312300151315159516200014
:100F6800A501750823009100760892002000250845
:100F7800A000A1012008770786002108783D870096
:100F880001082300930094011F3020002506031D4B
:100F9800CE2FCF2FD12F2300951255302300960046
:100FA800AA3096009514000000000130F5070030C3
:100FB800F63D01302000A0002008A50720302502BA
:100FC800031CE72FE82FB52F230015112000240C50
:100FD800031C8B1303188B17003008002000270808
:100FE800F6002608F5002908F8002808F7008731D8
:080FF800902787310800080072
:1010040022008C018D018E01083021009000FF30F8
:101014008C00F8308D0080308E0023008E018D010D
:101024000F308C00240090018D018C018E01210071
:10103400971725008C018D018E01FF3026008C004E
:10104400FF308D00FF308E003F3027008C00F030E1
:101054008D00FF308E0017303C00BD000C30B9000D
:1010640024303D00A60008002000200821042204AA
:1010740023042404250426042704031942284328AE
:101084009628F301F30A5228A035A10DA20DA30D51
:10109400A40DA50DA60DA70D0130F2007208F307EB
:1010A400A71F55285628462827082F02031D7428F1
:1010B40026082E02031D742825082D02031D7428FA
:1010C40024082C02031D742823082B02031D7428F2
:1010D40022082A02031D742821082902031D7428EA
:1010E40020082802031C7728782888282008A802CA
:1010F4002108A93B2208AA3B2308AB3B2408AC3BAC
:101104002508AD3B2608AE3B2708AF3BA736A60C07
:10111400A50CA40CA30CA20CA10CA00C0130F3028E
:10112400031D9528962856282808A0002908A10000
:101134002A08A2002B08A3002C08A4002D08A5004F
:101144002E08A6002F08A7000800303086000030C3
:1011540087000830F20000301E00F20BAE28200099
:10116400200821042204230424042504260427043B
:101174000319BD28BE281A29B801B80ACD28A035FC
:10118400A10DA20DA30DA40DA50DA60DA70D013053
:10119400F2007208B807A71FD028D128C128B0359B
:1011A400B10DB20DB30DB40DB50DB60DB70D2708C5
:1011B4002F02031DF72826082E02031DF7282508F1
:1011C4002D02031DF72824082C02031DF7282308E9
:1011D4002B02031DF72822082A02031DF7282108E1
:1011E4002902031DF72820082802031CFA28FB28DB
:1011F4000C292008A8022108A93B2208AA3B23089D
:10120400AB3B2408AC3B2508AD3B2608AE3B270886
:10121400AF3B3014A736A60CA50CA40CA30CA20C4F
:10122400A10CA00C0130B802031D19291A29D128D8
:101234003008A0003108A1003208A2003308A3003E
:101244003408A4003508A5003608A6003708A7000E
:1012540008009331B72389318B170B178531682523
:101264008931640021003808031939293A297C2975
:10127400003023009D1801301D050319422943291C
:10128400562900301D1A0130FF3A2100AD002D0807
:1012940023009D050000003023001D1A01302100A9
:1012A400AD002D0823009D0422005D0803195B296D
:1012B4005C297A2901302100AD002D082200DE07C7
:1012C40015305E02031C672968297A29003023003F
:1012D4001D1A0130FF3A2100AD002D0823009D05A1
:1012E4002200DD012100B7012200D901D90ADE0163
:1012F4002100B80122005908031981298229902963
:101304008C3148248931003023001D1A013021001A
:10131400AD002D0823009D042200D9015F080319A4
:1013240094299529BC29DF0100302100A0009830C0
:10133400A100220065082100AD00AE012D08A20025
:101344002E08A300220064082100AF00B0012F087A
:10135400A4003008A50020000C0E890C890C01396A
:101364002100B100B2013108A6003208A700933170
:10137400CA238931210039080319C129C229C62980
:10138400B9018031B4208931220060080319CB29C6
:10139400CC293329E0018931D321893133298031A2
:1013A4003C28A030F2007208F30020000C1FDB2957
:1013B400DC29FF290130F20072082200D6076430CC
:1013C4005602031CE629E729062A6508031DEB29B2
:1013D400EC29EF2920000E16F12920000E1222001C
:1013E4006408031DF629F729FA2920008E16FC2922
:1013F40020008E122200D601062A2200D6012000E7
:101404000E12000020008E1220000C1E0A2A0B2A45
:10141400282A2300A801A9010130AA070030AB3D06
:1014240007302B02D03003192A02031C1A2A1B2A64
:101434004E2A7308023E8600023087008101810A29
:1014440020000D142300AA01AB014E2A2300AA0197
:10145400AB0122006303031D302A312A372A2000FE
:101464000D142300A801A9014E2A01302300A80766
:101474000030A93D1F302902403003192802031C03
:10148400442A452A4E2A7308023E86000230870009
:10149400810120000D10332A20008C1E522A532A69
:1014A4006F2A2300A401A5010130A6070030A73D3F
:1014B40007302702D03003192602031C622A632A4C
:1014C400942A20008D14730A86000230870081015B
:1014D400810A2300A601A701942A2300A601A701DB
:1014E40022006203031D772A782A7E2A20008D14A5
:1014F4002300A401A501942A01302300A40700308D
:10150400A53D1F302502403003192402031C8B2AF9
:101514008C2A942A730A86000230870081012000F5
:101524008D107A2A08002000E00051088600870107
:10153400403FD300413FD400530884005408850041
:101544001200253A031DA72AA82A352B5108860024
:1015540087010130810741310318810A2300A20168
:10156400A3012200B201B301FF30B000FF30B1008B
:101574002000510886008701403FD300413FD4003A
:1015840053088400540885001200753A031DCB2AC1
:10159400CC2A002B51088600870101308107413194
:1015A4000318810A52088600870101088400850116
:1015B40002308107003FD800013FD900DA01DB0186
:1015C400DC01DD01DE01DF015808B9005908BA0069
:1015D4005A08BB005B08BC005C08BD005D08BE0087
:1015E4005E08BF005F08C00060088B3159238A3150
:1015F40020003A08D2003908D100582B510886003F
:101604008701403FD300413FD4005308840054086D
:1016140085001200253A031D102B112B2A2B51088B
:10162400860087010130810741310318810A253082
:10163400F5000030F6006008D3005308F700973136
:1016440004278A3101302000D1000030D200582B09
:101654005108860087010130810741310318810A4E
:10166400D101D201582B510886008701403FD30095
:10167400413FD40053088400540885000008D50075
:10168400D6015508F5005608F6006008D70057083B
:10169400F700973104278A3120005108860087011A
:1016A4000130810741310318810A242B08002000EE
:1016B400C2002200B11B5F2B602B642BFD30B205EE
:1016C400FF30B3053108803A2000C1008030410268
:1016D400031D6F2B0130220030020318722B732B71
:1016E400792B01302000C3000030C400812B22007C
:1016F40031082000C400220030082000C300230069
:1017040023082000C600230022082000C500390851
:10171400C7003A08C8003B08C9003C08CA003D0895
:10172400CB003E08CC003F08CD004008CE001F305F
:10173400CF000030D0002500E101012CFF30200053
:10174400CF07FF30D03D0A30A000A101A201A301C0
:10175400A401A501A601A7014708A8004808A900FB
:101764004908AA004A08AB004B08AC004C08AD007D
:101774004D08AE004E08AF00883136208B31200072
:101784002008303EC1004F08C23E86000230870068
:1017940041088100FF30C307FF30C43DFF30C50757
:1017A400FF30C63D0A30A000A101A201A301A4019B
:1017B400A501A601A7014708A8004808A9004908EF
:1017C400AA004A08AB004B08AC004C08AD004D0819
:1017D400AE004E08AF008831A7208B3120002008CE
:1017E400C7002108C8002208C9002308CA00240829
:1017F400CB002508CC002608CD002708CE00200009
:101804004F0850040319072C082C342C47084804AB
:1018140049044A044B044C044D044E04031D132C88
:10182400142CA02B4408803AC10080304102031DCF
:101834001D2C013043020318202C212CA02B200046
:101844004608803AC10080304102031D2B2C013030
:101854004502031C2E2C2F2C342C2200B218332CBE
:10186400342CA02B20004F08C23EC1004108AC001C
:101874004608AE004508AD00420897314C278B312D
:1018840020002D08BA002C08B90008002400200804
:101894002100A80028082200DB005B03031D532C51
:1018A400542CFF2F240021082100A800280822001E
:1018B400DA00EB2F240023082100A800A90124004A
:1018C40022082100AA00AB012A08AB00AA012808BB
:1018D4002A042900DB00210029082B042900DC004C
:1018E400240025082100A800A901240024082100BF
:1018F400AA00AB012A08AB00AA0128082A0429007F
:10190400D200210029082B042900D30052352100DC
:10191400A80028082900D5002030F2000230F30086
:1019240006302100A8002808F4009631C0268C3126
:1019340073082900DA007208D9005A08240027061F
:10194400031DA82C29005908240026060319AB2CD2
:10195400AC2CAD2CFF2F003029005C02123003198F
:101964005B02031CB62CB72CB82CFF2F53082100A4
:10197400A900290052082100A800A835A90D0030AB
:101984002902453003192802031CC92CCA2CCB2C6C
:10199400FF2F29005508053E2100A800280829002A
:1019A400D400A001A00A03302100A80028082900BF
:1019B400A10055082100A80028082900A200A3308E
:1019C400F2000430F3005B35A03EF4000230F50071
:1019D40055082100A800A9012808F6002908F700E5
:1019E4009531B8258C31A030F2000430F300290081
:1019F4005508033E2100A8002808F4009631C026AB
:101A04008C3173082900DA007208D90059082100C2
:101A1400A80029005508033EA03E86000430870034
:101A240021002808810029005A082100A800290063
:101A34005508043EA03E8600043087002100280893
:101A440081002A302100A8008D30890B272DA80B96
:101A5400272D00322900D801452D5808A03E8600C4
:101A64000430870001082100A800A9012808F80013
:101A74002908F90093314D238C3101302100A8004D
:101A840028082900D80754085802031C4A2D4B2D56
:101A94002F2D3B302100A0009830A1009331CA23A0
:101AA4008C31FF2F240023082100A800A901240061
:101AB40022082100AA00AB012A08AB00AA012808C9
:101AC4002A042900DB00210029082B042900DC005A
:101AD400240024082100A800A90128082900D60010
:101AE400210029082900D7000F305606570403198E
:101AF4007C2D7D2D7E2DFF2F2030F2000230F3004F
:101B04005608053E2100A8002808F4009631C02696
:101B14008C3173082900DA007208D9005608253E72
:101B24008600023087005608263E84000230850075
:101B34005A080006031DA02D590801060319A32DF8
:101B4400A42DA52DFF2F6130F2000130F3002530C4
:101B5400F4000230F5005708F7005608F6009531F6
:101B6400B8258C310130220061052100A800200035
:101B74000E0821002806FE39280620008E000000E9
:101B84002200613601392100A800A80D20000E08AA
:101B940021002806FD39280620008E00220067084F
:101BA4002500A900220066082500A8002200690873
:101BB4002500AF00220068082500AE0022006B0853
:101BC4002500B50022006A082500B40022006D0833
:101BD4002500BB0022006C082500BA0022006F0813
:101BE4002500C10022006E082500C0000030290035
:101BF4005C02803003195B02031C012E022E062EA8
:101C04004030DB020030DC3B70302100A800233080
:101C1400A90029005B0821002807F20029005C08BC
:101C24002100293DF3006130F4000130F5000F304C
:101C3400F6000030F7009531B8258C319531152523
:101C44008C3107302100A80028082900D400A00105
:101C5400A00A65302100A80028082900A1005C081A
:101C64002100A80028082900A2005B082100A80080
:101C740028082900A30056082100A80028082900E4
:101C8400A400A030F2000430F30005302100A800C5
:101C94002808F4009631C0268C3173082900DA0034
:101CA4007208D90059082100A80028082900A500B5
:101CB4005A082100A80028082900A6002A3021007B
:101CC400A8008D30890B642EA80B642E00322900E5
:101CD400D801822E5808A03E8600043087000108EF
:101CE4002100A800A9012808F8002908F900933167
:101CF4004D238C3101302100A80028082900D80781
:101D040054085802031C872E882E6C2EFF2F2400A3
:101D140023082100A800A901240022082100AA0008
:101D2400AB012A08AB00AA0128082A042900DB0019
:101D3400210029082B042900DC00240024082100A8
:101D4400A800A90128082900D60021002908290093
:101D5400D7002030F2000230F30005302100A80043
:101D64002808F4009631C0268C3173082900DA0063
:101D74007208D9005A0824002606031DC52E29001E
:101D84005908240025060319C82EC92ECA2EFF2F70
:101D9400290056085B072100A800290057085C3D6C
:101DA4002100A90001302902013003192802031C73
:101DB400DC2EDD2EDE2EFF2F29005608053E2100E5
:101DC400A80000302900573D2100A9000030290255
:101DD400333003192802031CF02EF12EF22EFF2FAC
:101DE4002900DD015D08A03E8600043087008101E2
:101DF400810A01302100A80028082900DD07643089
:101E04002100A80029005D08A03E86000430870058
:101E14002100280881000130A80028082900DD07D6
:101E24005C082100A80029005D08A03E860004305B
:101E340087002100280881000130A8002808290013
:101E4400DD075B082100A80029005D08A03E86008C
:101E5400043087002100280881000130A8002808E8
:101E64002900DD0756082100A80029005D08A03ECE
:101E74008600043087002100280881000130A80072
:101E840028082900DD07D8017C2F003029005C02D6
:101E9400803003195B02031C502F512F552F403003
:101EA400DB020030DC3B5808703E2100A800A90189
:101EB4002330A93D29005B0821002807860029005A
:101EC4005C082100293D87000108AA0029005D085B
:101ED400A03E86000430870021002A0881000130DA
:101EE400A80028082900DD0701302100A8002808DF
:101EF4002900D80758082100A800A901290057087B
:101F040021002902031D8A2F2900560821002802D6
:101F1400031C8D2F8E2F472FA030F2000430F300C6
:101F240029005D082100A8002808F4009631C02685
:101F34008C3173082900DA007208D900590821008D
:101F4400A80029005D08A03E860004308700210017
:101F5400280881000130A80028082900DD075A0854
:101F64002100A80029005D08A03E860004308700F7
:101F74002100280881000130A80028082900DD0775
:101F84002A302100A8008D30890BC62FA80BC62F3C
:101F940000322900D801E42F5808A03E86000430FE
:101FA400870001082100A800A9012808F8002908D1
:101FB400F90093314D238C3101302100A800280809
:101FC4002900D8075D085802031CE92FEA2FCE2FF9
:101FD400FF2F5A082100A800A9012908003A031973
:101FE400F42FFF2F2808033A03195C2C673A0319CE
:0C1FF400892E013A0319542DFF2F08001C
:10263A0094315E249331080023001D121D160800F0
:10264A001A3021009900080073082200C900720894
:10265A00C800080073082200CD007208CC000800E8
:10266A0073082200CB007208CA000800730822000F
:10267A00D3007208D200080073082200D50072083D
:10268A00D400080073082200D1007208D0000800A4
:10269A007908F6007808F500F70197310427933195
:1026AA000800E0302900910092018E018F0101306B
:1026BA0090000800703021009B0080309C009A0135
:1026CA009D011C1F692B6A2B662B08006400800180
:1026DA0001310130FE020030FF3B7F087E04031DFA
:1026EA006C2B0034FE0012001E000130FE02003086
:1026FA00FF3B7F087E04031D782B003420001A1D3F
:10270A00872B882B8F2B1A10710899007008980054
:10271A001A14932B71089900700898000800533412
:10272A002D3443346C346134733473344434003498
:10273A00313436344634313437343734363400346D
:10274A00F40020000D15A0300032890BA92B740863
:10275A0095318D259331A0300032890BB12B2000A1
:10276A000D11080088310220933193315F23933190
:10277A009331252393319431442493319331562351
:10278A0093319631802693310800A2302000E90067
:10279A006908EC00210021082000E200210020083D
:1027AA002000E1006C30E9006908E300003096314E
:1027BA001226933108002000111021003408F1007C
:1027CA003308F000933183239331220050085104D7
:1027DA000319F02BF12BF62B51088A0050080A0036
:1027EA009331080000308B1B0130F4008B13720800
:1027FA0023009100730892001513151400000000BD
:10280A00740C031C8B1303188B1723001408F30092
:10281A001308F20008002100B901B90AB801B80A80
:10282A002200E001E00A0130CE070030CF3D03303C
:10283A004F02E83003194E02031C242C252C292CA4
:10284A00CE01CF01DF01DF0A0800F6007608F400A6
:10285A007408F500342C0130F4007408F607760881
:10286A008600023087000108031D3C2C3D2C302CC9
:10287A0075087602F200F301F21BF3030800200048
:10288A009B01E0309900C03098001110190821000E
:10289A00B400200018082100B30011141030F2000F
:1028AA001430F300933147239431013020009A0009
:1028BA00080023001908F0007B08203E8600043037
:1028CA008700700881000130F0007008FB07403073
:1028DA007B02031C712C722C732CFB010130F0005B
:1028EA0070082100B5070800F5007508F400F40D1A
:1028FA00F40D2900100874060339740690001014A8
:10290A000D30890B862C00002900901490188E2C0B
:10291A008F2C8B2C0F08F3000E08F20008000030F1
:10292A008B1B0130F4008B1372082300910073088B
:10293A00920015131516151555309600AA309600F3
:10294A0095140000000023001511740C031C8B134E
:10295A0003188B17080023001908F0007008F1000B
:10296A007108F00021003708203E860002308700F7
:10297A00700881000130F0007008B7073330370261
:10298A00031CC82CC92CCA2CB7012200DE01DD01A8
:10299A00DD0A080020000D11003023001D1A013045
:1029AA00FF3AF20072089D050000003023001D1A4C
:1029BA000130F20072089D0400309D1B0130FF3A7D
:1029CA00F20072089D050000003023009D1B0130B3
:1029DA00F20072089D0408004030210036020318F4
:1029EA00F72CF82C132D20006D08A03E860003302A
:1029FA008700010823009A000130F00070082000C7
:102A0A00ED0740306D02031C0B2D0C2D0D2DED0131
:102A1A000130F00070082100B607142D11120800C9
:102A2A0080302000A6001F30A7007030A800233095
:102A3A00A9008731F2279531C0302000A6001F3047
:102A4A00A700B030A8002330A9008731F2279531BA
:102A5A00E0302000A6001F30A700D030A8002330A5
:102A6A00A9008731F227953108002000AB00A9019F
:102A7A00AA01522D2808A500A6012508F500260856
:102A8A00F6007808A7002708F70097310427953140
:102A9A0001302000A9070030AA3D29082B07A5000C
:102AAA0025088600023087000108A6002608A8002B
:102ABA002808031D612D622D3F2D08002000A50165
:102ACA00862D25087507F20076080318760AF300A2
:102ADA009331F723953172082000A0002508A10040
:102AEA00A20121087707A3002208783DA400230841
:102AFA00860024088700200881000130A0002008F1
:102B0A00A50779082502031C8B2D8C2D662D08003C
:102B1A00F300210036080319932D942D8E2D111AD6
:102B2A00972D982D9C2D730823009A00B52D11120C
:102B3A007308F20020006E08A03E8600033087006A
:102B4A00720881000130F2007208EE0740306E020E
:102B5A00031CB02DB12DB22DEE0101302100B602B9
:102B6A0021001116080075082000A4007408A300AB
:102B7A007308A2007208A100D82D23088600240831
:102B8A0087000108F8007808A0000130A307003088
:102B9A00A43D210886002208870020088100013010
:102BAA00A1070030A23D0130F6020030F73B760A59
:102BBA00031DE32D770A031DE32DE42DC22D080022
:102BCA00F500EF2D0130F4007408F5070130F40028
:102BDA007408F207720886000130870075088400BD
:102BEA00850100080106031DFB2DFC2D042E750826
:102BFA00860087010108031D032E042EE72D7508A0
:102C0A0086008701720884000130850000080102ED
:102C1A00F200F301031CF30308002000E600620837
:102C2A00E8006108E7002300A001A101302E673007
:102C3A00E4006408D1006308E5006508D20066086C
:102C4A008A3195229631200051082300A0072000DE
:102C5A0052082300A13D2000670884006808850007
:102C6A001200031D392E3A2E1C2E230021082000A3
:102C7A00E200230020082000E10008007B08203E33
:102C8A00860003308700810123001D1D4D2E4E2E24
:102C9A005A2E7B08203E86000330870081142200CA
:102CAA004D088A004C080A00963123009D1C5E2EAE
:102CBA005F2E6B2E7B08203E8600033087000115AD
:102CCA0022004B088A004A080A0096317B08203EF7
:102CDA0086000330870001080319742E752E7C2E96
:102CEA00220049088A0048080A0096317F2E94314A
:102CFA00B02496310800210091124330F2001630B8
:102D0A00F30093313B23963121001112F130F20086
:102D1A001430F300933141239631083023009F0089
:102D2A0090309D0024309E0044309B009C01FF306F
:102D3A00F2000730F30093312F2396312130F2004D
:102D4A001330F3009331352396311D30F2001330DE
:102D5A00F3009331292396312200DC012000EE0191
:102D6A00ED014030F40074082100B600FB01FA01BD
:102D7A00B50191160800FF302000A300FF30A4001F
:102D8A00A101F92E2108F500F601750872078600DF
:102D9A007608733D87000108F700F8017708A30653
:102DAA007808A4060830F5007508A200230801393E
:102DBA00F5007508A0000130A436A30C890BE12E9A
:102DCA002003031DE92EEA2EEE2E0130A306A030C1
:102DDA00A4060130A2022208031DF42EF52EDB2ED2
:102DEA000130F5007508A10774082102031CFE2EA4
:102DFA00FF2EC72E2408F3002308F20008007708E4
:102E0A000319082F092F0E2F7708031D0D2F0E2FD8
:102E1A00132F75089331A5239731432F7708033E63
:102E2A00860087011600010403191C2F1D2F3B2F52
:102E3A007708033E86008701403F2000A000413FFB
:102E4A00A100770A86008701403FA200413FA30004
:102E5A002308803AA4002108803A2402031D372F50
:102E6A002008220203183A2F3B2F432F770A8600A5
:102E7A0087010130810741310318810A7508200052
:102E8A00A000A1012008F5002108F6000800200092
:102E9A00B3002200321C522F532F5C2F200033081C
:102EAA00F9007908F8002C0895313A259731200065
:102EBA00AE1B602F612F662F2E08B2002D08B100BD
:102ECA00682FB101B201AF01B0017C2F2030F500AB
:102EDA000030F60020003308F9007908F70097312E
:102EEA000427973101302000AF070030B03D300889
:102EFA00803AF9003208803A7902031D862F310898
:102F0A002F02031C892F8A2F6B2F220032188E2F33
:102F1A008F2F982F20003308F9007908F8002C0821
:102F2A0095313A25973120002C0894312A2497317B
:102F3A00200031087207AC003208733DAD0008006A
:102F4A0000302000A4000030A3000030A2000030AE
:102F5A00A10075087404730472040319B52FB62FFF
:102F6A00F72FA501A50AC42F0130F235F30DF40D90
:102F7A00F50D890BBA2F0130A0002008A507F51F0F
:102F8A00C72FC82FB92F0130A135A20DA30DA40D4B
:102F9A00890BC92F75087902031DDD2F7408780281
:102FAA00031DDD2F73087702031DDD2F72087602D9
:102FBA00031CE02FE12FEA2F7208F6027308F73B91
:102FCA007408F83B7508F93B21140130F536F40C06
:102FDA00F30CF20C890BEB2F0130A502031DF62F1F
:102FEA00F72FC82F2408F5002308F4002208F3005D
:102FFA002108F20008000D340A3420347034613498
:10300A005F346334663467342E346D347534743403
:10301A0065345F34723469346734683474343A34EA
:10302A00253475342C342034703461345F3463347D
:10303A00663467342E346D347534743465345F34D1
:10304A006C346534663474343A3420342534753437
:10305A002C3420344D347534743465342034493476
:10306A006E343A3420342534753400340D340A343D
:02307A00003420
:020000040001F9
:04000E007CFFFFFF75
:00000001FF
