:0400000080313C28E7
:1000060008007E1480310B1F09280A283A2821008F
:10001600111E0E280F281B282000111E1328142835
:100026001B2822004B088A004A080A0080313A2819
:100036002100911E1F2820282C282000911E2428EC
:1000460025282C28220049088A0048080A00803101
:100056003A282100111C302831283A282000111C8A
:10006600352836283A288831002080313A287E10F3
:10007600090080313E286C308400973085005F305F
:100086008600013087000030FF001130973142278B
:10009600803170308400233085008030FE000030CF
:1000A600FF00973136278031FA01FB0120308400AA
:1000B600003085002D30FE000030FF0097313627D6
:1000C6008031DE308400003085001230FE000030C2
:1000D600FF009731362780312030840001308500BB
:1000E6003F30FE000030FF00973136278031A030C8
:1000F6008400013085003230FE000030FF00973169
:100106003627803120308400023085004230FE00E0
:100116000030FF00973136278031A030840002304E
:1001260085004030FE000030FF00973136278031D1
:1001360020308400033085004030FE000030FF0090
:10014600973136278031A030840003308500403057
:10015600FE000030FF009731362780317E102000E8
:100166008B31652B40302000D3005308DF00003070
:1001760088313120803173082000DE007208DD00EE
:100186005E083D02031DC9285D083C020318CC2801
:10019600CD28D1285E08BD005D08BC003B085E0284
:1001A600031DD7283A085D020318DA28DB28DF2862
:1001B6005E08BB005D08BA0001308831312080310D
:1001C60073082000DE007208DD005E083902031D98
:1001D600EE285D0838020318F128F228F6285E0892
:1001E600B9005D08B80037085E02031DFC28360812
:1001F6005D020318FF28002904295E08B7005D0880
:10020600B600023088313120803173082000DE00CC
:100216007208DD005E083502031D13295D083402ED
:100226000318162917291B295E08B5005D08B400B6
:1002360033085E02031D212932085D0203182429B2
:10024600252929295E08B3005D08B20003308831EC
:100256003120803173082000DE007208DD005E0860
:100266003102031D38295D08300203183B293C2959
:1002760040295E08B1005D08B00022003B0820005E
:100286005E02031D4A2922003A0820005D02031877
:100296004D294E2955295E082200BB0020005D0825
:1002A6002200BA002200CC0120003B083D02031DBB
:1002B6005E293A083C020318612962296629220050
:1002C600B801B9016F293A083C022200B8002000A3
:1002D6003B083D3B2200B90038082000AC0722004D
:1002E60039082000AD3D0030AE3DAF3D370839023C
:1002F600031D7F2936083802031882298329872996
:100306002200B601B7019029360838022200B6004D
:1003160020003708393B2200B70036082000A8071E
:10032600220037082000A93D0030AA3DAB3D330826
:100336003502031DA029320834020318A329A42973
:10034600A8292200B401B501B129320834022200DD
:10035600B40020003308353B2200B50034082000E5
:10036600A407220035082000A53D0030A63DA73D84
:1003760022003B0820003102031DC52922003A084D
:10038600200030020318C829C929CD292200B2014C
:10039600B301D82922003A08200030022200B20018
:1003A6003B082000313B2200B30032082000A007A2
:1003B600220033082000A13D0030A23DA33D0130BC
:1003C6002200B0070030B13D1330310288300319E6
:1003D6003002031CEF29F029C82CCD01CD0AB0014B
:1003E600B1010030F5000030F4001330F30088301E
:1003F600F20020002F08F9002E08F8002D08F7005B
:100406002C08F6008B310A23803175082000AF00D6
:100416007408AE007308AD007208AC000030F50039
:100426000030F4001330F3008830F2002B08F90096
:100436002A08F8002908F7002808F6008B310A2355
:10044600803175082000AB007408AA007308A90063
:100456007208A8000030F5000030F4001330F300F5
:100466008830F2002708F9002608F8002508F7006A
:100476002408F6008B310A23803175082000A70076
:100486007408A6007308A5007208A4000030F500E1
:100496000030F4001330F3008830F2002308F9002E
:1004A6002208F8002108F7002008F6008B310A23FD
:1004B600803175082000A3007408A2007308A1000B
:1004C6007208A0005F080E3E860002308700403F9B
:1004D600D300413FD4005308D5005408D600D701B5
:1004E600D80158082F02031D822A57082E02031D21
:1004F600822A56082D02031D822A55082C02031C47
:10050600852A862AAE2A5F080E3E860002308700BC
:10051600403FD300413FD4005308D5005408D600CD
:10052600D701D8012C08D9002D08DA002E08DB00E7
:100536002F08DC005508D9025608DA3B5708DB3B82
:100546005808DC3B5C08AF005B08AE005A08AD00FB
:100556005908AC00B62A0030AF000030AE000030BB
:10056600AD000030AC005F08143E86000230870004
:10057600403FD300413FD4005308D5005408D6006D
:10058600D701D80158082B02031DD32A57082A027F
:10059600031DD32A56082902031DD32A550828020B
:1005A600031CD62AD72AFF2A5F08143E860002308B
:1005B6008700403FD300413FD4005308D50054087C
:1005C600D600D701D8012808D9002908DA002A0858
:1005D600DB002B08DC005508D9025608DA3B570821
:1005E600DB3B5808DC3B5C08AB005B08AA005A08FA
:1005F600A9005908A800072B0030AB000030AA005C
:100606000030A9000030A8005F081A3E86000230BC
:100616008700403FD300413FD4005308D50054081B
:10062600D600D701D80158082702031D242B5708E6
:100636002602031D242B56082502031D242B5508CC
:100646002402031C272B282B502B5F081A3E8600FA
:1006560002308700403FD300413FD4005308D50005
:100666005408D600D701D8012408D9002508DA0095
:100676002608DB002708DC005508D9025608DA3BB5
:100686005708DB3B5808DC3B5C08A7005B08A60064
:100696005A08A5005908A400582B0030A7000030BE
:1006A600A6000030A5000030A4005F08203E8600AA
:1006B60002308700403FD300413FD4005308D500A5
:1006C6005408D600D701D80158082302031D752BFC
:1006D60057082202031D752B56082102031D752B90
:1006E60055082002031C782B792BA12B5F08203E8E
:1006F600860002308700403FD300413FD4005308B4
:10070600D5005408D600D701D8012008D900210801
:10071600DA002208DB002308DC005508D902560857
:10072600DA3B5708DB3B5808DC3B5C08A3005B0858
:10073600A2005A08A1005908A000A92B0030A30066
:100746000030A2000030A1000030A0005F080C3E7F
:100756008600023087002C08C03F2D08C13F5F0885
:10076600123E8600023087002808C03F2908C13F94
:100776005F08183E8600023087002408C03F25081F
:10078600C13F5F081E3E8600023087002008C03F3A
:100796002108C13F5F08083E860002308700403FBF
:1007A600D300413FD4005308D5005408D600D701E2
:1007B600D80158082F02031DEA2B57082E02031DE5
:1007C600EA2B56082D02031DEA2B55082C020318A6
:1007D600ED2BEF2B0130F02B0030D9005F080A3EDD
:1007E600860002308700590881005F08083E8600AF
:1007F60002308700403FD300413FD4005308D50064
:100806005408D600D701D80158082B02031D152C11
:1008160057082A02031D152C56082902031D152CFC
:10082600550828020318182C1A2C01301B2C0030EE
:10083600D9005F08103E8600023087005908810003
:100846005F08083E860002308700403FD300413FE4
:10085600D4005308D5005408D600D701D80158084B
:100866002702031D402C57082602031D402C56085C
:100876002502031D402C550824020318432C452C41
:100886000130462C0030D9005F08163E8600023043
:100896008700590881005F08083E860002308700FD
:1008A600403FD300413FD4005308D5005408D6003A
:1008B600D701D80158082302031D6B2C57082202C2
:1008C600031D6B2C56082102031D6B2C55082002B4
:1008D60003186E2C702C0130712C0030D9005F0883
:1008E6001C3E860002308700590881000030AF00A8
:1008F6000030AE000030AD000030AC000030AB0080
:100906000030AA000030A9000030A8000030A7007F
:100916000030A6000030A5000030A4000030A3007F
:100926000030A2000030A1000030A0000030BC0062
:100936000230BD000030BA000230BB002200B80110
:10094600B90100302000B8000230B9000030B6000E
:100956000230B7002200B601B70100302000B40013
:100966000230B5000030B2000230B3002200B401FC
:10097600B50100302000B0000230B1000030220086
:10098600BA000230BB00B201B301080020000E120B
:100996008E120D148D147A302000D800C130D70085
:1009A6008130890BD42CD70BD42CD80BD42C003205
:1009B60020000D108D100E108E1088318620843187
:1009C6008030F5001F30F6007030F7002330F80055
:1009D60080302000D7005708F9008831F020843194
:1009E600A030F2000030F300B030F4002330F50000
:1009F6000930F6000030F7008931452184315F3037
:100A06002000D7005708F200A030893172218431C6
:100A1600720873040319102D112D702D2100E101A8
:100A2600E201E301E401E5010530E6000030E700FC
:100A36001430E8000030E9001430EA000030EB0022
:100A46001430EC000030ED001430EE000030EF0002
:100A560004302200DD000130DE007030F200233069
:100A6600F300E130F4000030F5000F30F6000030FE
:100A7600F700893145218431B030F2002330F3008C
:100A86005F30F4000130F5000930F6000030F70061
:100A9600893145218431C030F2002330F3005D30C6
:100AA600F4000130F5000230F6000030F70089311D
:100AB60045218431D030F2002330F3006830F40051
:100AC6000130F5000830F6000030F7008931452185
:100AD60084318831CB208431782E4E30F2000130BB
:100AE600F3007030F4002330F5000F30F6000030CC
:100AF600F700893145218431033022004E02031864
:100B0600852D862D8D2D4E082000D70057082100F3
:100B1600B300932D02302000D70057082100B30000
:100B260033082000D70057082100E10002302200D8
:100B36004F0203189F2DA02DA72D4F082000D70088
:100B460057082100B400A92D2100B4013408200063
:100B5600D70057082100E200023022005002031895
:100B6600B52DB62DBD2D50082000D7005708210001
:100B7600B500BF2D2100B50135082000D700570864
:100B86002100E3000230220051020318CB2DCC2DA8
:100B9600D32D51082000D70057082100B600D52DC7
:100BA6002100B60136082000D70057082100E400CE
:100BB6000230220052020318E12DE22DE92D5208DF
:100BC6002000D70057082100B700EB2D2100B70100
:100BD60037082000D70057082100E5000030220022
:100BE60054020630031953020318FA2DFB2D032E67
:100BF60054082100AA00220053082100A900082E4B
:100C060005302100A9000030AA002A08E7002908BB
:100C1600E60000302200560215300319550203186B
:100C2600152E162E1E2E56082100AC002200550841
:100C36002100AB00232E14302100AB000030AC00A5
:100C46002C08E9002B08E800003022005802153075
:100C5600031957020318302E312E392E5808210059
:100C6600AE00220057082100AD003E2E14302100B0
:100C7600AD000030AE002E08EB002D08EA00003073
:100C860022005A0215300319590203184B2E4C2E16
:100C9600542E5A082100B000220059082100AF0046
:100CA600592E14302100AF000030B0003008ED009E
:100CB6002F08EC00003022005C02153003195B029D
:100CC6000318662E672E6F2E5C082100B2002200E4
:100CD6005B082100B100742E14302100B1000030F1
:100CE600B2003208EF003108EE0001302100610544
:100CF6002000D7000E085706FE3957068E00210041
:100D0600613601392000D700D70D0E085706FD3988
:100D160057068E000130210063052000D7000D081C
:100D26005706FE3957068D0021006208013920005A
:100D3600D700D70D0D085706FD3957068D0021003F
:100D4600650801392000D700D70E0E085706EF397F
:100D560057068E002100640801392000D700D70EFF
:100D6600D70D0E085706DF3957068E002100670893
:100D76002400C900210066082400C8002100690873
:100D86002400CF00210068082400CE0021006B0853
:100D96002400D50021006A082400D40021006D0833
:100DA6002400DB0021006C082400DA0021006F0813
:100DB6002400E10021006E082400E0000800403015
:100DC600F2007208F30020000C1FEA2EEB2E0D2F06
:100DD6000130F2007208C00764304002031CF42E92
:100DE600F52E102F21006508031DFA2EFB2EFE2E70
:100DF60020000E16002F20000E1221006408031D8D
:100E0600052F062F092F20008E160B2F20008E127D
:100E1600C001102FC0010E128E120C1E132F142F9C
:100E2600312F2200AC01AD010130AE070030AF3DDD
:100E360007302F02D03003192E02031C232F242F34
:100E4600572F7308023E8600023087008101810A0F
:100E560020000D142200AE01AF01572F2200AE0173
:100E6600AF0121006303031D392F3A2F402F2000C5
:100E76000D142200AC01AD01572F01302200AC0742
:100E86000030AD3D1F302D02403003192C02031CEB
:100E96004D2F4E2F572F7308023E860002308700D3
:100EA600810120000D103C2F20008C1E5B2F5C2F33
:100EB600782F2200A801A9010130AA070030AB3D16
:100EC60007302B02D03003192A02031C6B2F6C2F1C
:100ED6009D2F20008D14730A860002308700810141
:100EE600810A2200AA01AB019D2F2200AA01AB01B3
:100EF60021006203031D802F812F872F20008D1470
:100F06002200A801A9019D2F01302200A807003068
:100F1600A93D1F302902403003192802031C942FD3
:100F2600952F9D2F730A86000230870081012000CD
:100F36008D10832F0800E03075052000CF001F308C
:100F46007605D00000308B1B0130D10050087606A4
:100F5600031DAF2F4F0875060319B22FB32FB52FF8
:100F6600FF30FF2F8B137608F3007508F2008831E7
:100F76004C20873123001513151595162000D20134
:100F86007508230091007608920020005208CD00D3
:100F9600CE014D08770786004E08783D8700010888
:100FA6002300930094011F3020005206031DDC2FFE
:100FB600DD2FDF2F23009512553023009600AA302F
:100FC60096009514000000000130F5070030F63D4C
:100FD60001302000CD004D08D20720305202031CFC
:100FE600F52FF62FC32F230015112000510C031CDB
:100FF6008B1303188B1700300800200011103F08D0
:10100600F1003E08F00097315B2788312200460840
:10101600470403190F281028152847088A00460890
:101026000A00883108002000CC01CC0ACB01CB0A8B
:10103600CA01CA0A01302200C4070030C53D033088
:101046004502E83003194402031C2A282B283028BD
:10105600C401C5012000C901C90A0800F5007508C8
:10106600F400F40DF40D2900100874060339740613
:10107600900010140D30890B3E28000029009014B2
:1010860090184628472843280F08F3000E08F20058
:10109600080000308B1B0130F4008B13720823000C
:1010A6009100730892001513151615155530960004
:1010B600AA30960095140000000023001511740C48
:1010C600031C8B1303188B17080023001908F00064
:1010D6007008F1007108F00020004808A03E860064
:1010E60001308700700881000130F0007008C807E1
:1010F60033304802031C802881288228C801C70192
:10110600C601C60A080020000D11003023001D1A72
:101116000130FF3AF20072089D05000000302300FE
:101126001D1A0130F20072089D0400309D1B01302B
:10113600FF3AF20072089D050000003023009D1B57
:101146000130F20072089D0408004030200043027E
:101156000318AE28AF28C8284408203E860003306E
:101166008700010823009A000130F0007008200073
:10117600C40740304402031CC128C228C328C40146
:101186000130F0007008C307CA28210011120800B8
:1011960080302000D3001F30D4007030D5002330BB
:1011A600D60097314E278831C0302000D3001F303B
:1011B600D400B030D5002330D60097314E27883181
:1011C600E0302000D3001F30D400D030D5002330CB
:1011D600D60097314E27883108002000D201132906
:1011E60052087507F20076080318760AF30097315D
:1011F600CC27883172082000CD005208CE00CF01DE
:101206004E087707D0004F08783DD1005008860079
:10121600510887004D0881000130CD004D08D207E6
:1012260079085202031C18291929F3280800F3002B
:10123600200043080319202921291B292100111AFE
:10124600252926292A29730823009A0042291112E2
:101256007308F20020004508203E86000330870010
:10126600720881000130F2007208C507403045025D
:10127600031C3E293F294029C5010130C302210034
:101286001116080075082000D1007408D0007308F4
:10129600CF007208CE0065295008860051088700E5
:1012A6000108F8007808CD000130D0070030D13DA4
:1012B6004E0886004F0887004D0881000130CE0792
:1012C6000030CF3D0130F6020030F73B760A031DB1
:1012D6007029770A031D702971294F290800F50026
:1012E6007C290130F4007408F5070130F400740815
:1012F600F2077208860001308700750884008501B0
:1013060000080106031D8829892991297508860088
:1013160087010108031D9029912974297508860003
:101326008701720884000130850000080102F2007E
:10133600F301031CF30308002000DD005908DF0059
:101346005808DE002200A001A101BA295E30DB00A8
:101356005B08F8005A08DC005C08F9005D088B3170
:10136600E023893178082200A0077908A13D2000F2
:101376005E0884005F0885001200031DC329C42986
:10138600A929220021082000D900220020082000D7
:10139600D800080022008C018D018E010830210042
:1013A6009000FF308C00F8308D0080308E002300D6
:1013B6008E018D010F308C00240090018D018C016F
:1013C6008E012100971725008C018D018E01FF30BB
:1013D60026008C00FF308D00FF308E003F30270046
:1013E6008C00F0308D00FF308E0017303C00BD00C1
:1013F6000C30B90024303D00A60008007B08A03E52
:10140600860002308700810123001D1D0B2A0C2A4D
:10141600182A7B08A03E860002308700811422002D
:1014260043088A0042080A008A3123009D1C1C2AB0
:101436001D2A292A7B08A03E860002308700011556
:10144600220041088A0040080A008A317B08A03E33
:1014560086000230870001080319322A332A3A2A05
:1014660022003F088A003E080A008A313D2A883158
:1014760068208A310800210091120130F2000A30FA
:10148600F300973106278A3121001112A830F200A5
:101496000830F30097310C278A31083023009F006B
:1014A60090309D0024309E0044309B009C01033008
:1014B600F2000030F3009631FA268A31EC30F20061
:1014C6001630F300973100278A31E830F2001630E3
:1014D600F3009631F4268A312100E0012000C5018F
:1014E600C4014030F4007408C300FB01FA01C201D4
:1014F600210091160800FF302000D000FF30D100F7
:10150600CE01B72A4E08F500F60175087207860067
:101516007608733D87000108F700F8017708D006C2
:101526007808D1060830F5007508CF005008013953
:10153600F5007508CD000130D136D00C890B9F2AF5
:101546004D03031DA72AA82AAC2A0130D006A030D5
:10155600D1060130CF024F08031DB22AB32A992AB9
:101566000130F5007508CE0774084E02031CBC2A2C
:10157600BD2A852A5108F3005008F20008007708B2
:101586000319C62AC72ACC2A7708031DCB2ACC2AD8
:10159600D12A750897317D278A31012B7708033EBA
:1015A60086008701160001040319DA2ADB2AF92AC4
:1015B6007708033E86008701403F2000CD00413F6B
:1015C600CE00770A86008701403FCF00413FD0001A
:1015D6005008803AD1004E08803A5102031DF52A80
:1015E6004D084F020318F82AF92A012B770A8600BC
:1015F60087010130810741310318810A75082000EF
:10160600CD00CE014D08F5004E08F600080000306A
:101616002000D1000030D0000030CF000030CE00D6
:10162600750874047304720403191A2B1B2B5C2BA4
:10163600D201D20A292B0130F235F30DF40DF50D46
:10164600890B1F2B0130CD004D08D207F51F2C2B1F
:101656002D2B1E2B0130CE35CF0DD00DD10D890B84
:101666002E2B75087902031D422B74087802031D80
:10167600422B73087702031D422B72087602031C65
:10168600452B462B4F2B7208F6027308F73B74085E
:10169600F83B7508F93B4E140130F536F40CF30CA3
:1016A600F20C890B502B0130D202031D5B2B5C2BF5
:1016B6002D2B5108F5005008F4004F08F3004E0892
:1016C600F20008009731A1278B318B170B17843155
:1016D600C9248B31640020004B080319732B742B2B
:1016E600B12B003023009D1801301D0503197C2BFA
:1016F6007D2B902B00301D1A0130FF3A2000EB00A5
:101706006B0823009D050000003023001D1A0130E0
:101716002000EB006B0823009D04200046080319F7
:10172600952B962BB02B0130EB006B08C7071530B5
:101736004702031C9F2BA02BB02B003023001D1A41
:101746000130FF3A2000EB006B0823009D052000C6
:10175600C601C801C101C10AC701CB01410803196D
:10176600B52BB62BC42B8C315C248B310030230077
:101776001D1A01302000EB006B0823009D04200099
:10178600C10149080319C82BC92BCA2BC9014C082A
:101796000319CE2BCF2BD32BCC018031B5208B3127
:1017A60020004A080319D82BD92B6D2BCA01863184
:1017B600E2268B316D2B80313C282000D70078083B
:1017C60086008701403FD200413FD3005208840083
:1017D600530885001200253A031DF22BF32B392CF2
:1017E6007808860087010130810741310318810A94
:1017F6002200A201A301A601A701FF30A400FF3029
:10180600A500780886008701403F2000D200413FAE
:10181600D30052088400530885001200253A031DA0
:10182600152C162C2E2C780886008701013081078E
:1018360041310318810A2530F5000030F6005708BB
:10184600D2005208F7008A31C2228B310130F800EB
:101856000030F9005B2C780886008701013081078B
:1018660041310318810AF801F9015B2C78088600DA
:101876008701403FD200413FD300520884005308FD
:1018860085000008D400D5015408F5005508F60077
:101896005708D6005608F7008A31C2228B317808DD
:1018A600860087010130810741310318810A292CFE
:1018B6000800230020082000E60066082100DF005B
:1018C6005F03031D672C682CFF2F230021082000CF
:1018D600E60066082100DE00EB2F23002308200027
:1018E600E600E701230022082000E800E901680875
:1018F600E900E801660868042100DB0020006708AB
:1019060069042100DC00230025082000E600E70129
:10191600230024082000E800E9016808E900E8013E
:10192600660868042100D2002000670869042100C7
:10193600D30052352000E60066082100D500A0300D
:10194600F2000130F30006302000E6006608F400DD
:101956008A317E228C3173082100DA007208D900A0
:101966005A0823002706031DBC2C21005908230012
:1019760026060319BF2CC02CC12CFF2F00302100D6
:101986005C02123003195B02031CCA2CCB2CCC2C34
:10199600FF2F53082000E700210052082000E60030
:1019A600E635E70D00306702453003196602031C71
:1019B600DD2CDE2CDF2CFF2F21005508053E2000F4
:1019C600E60066082100D400A001A00A033020002A
:1019D600E60066082100A10055082000E60066081A
:1019E6002100A200A330F2000030F3005B35403E38
:1019F600F4000230F50055082000E600E70166080D
:101A0600F6006708F700893145218C31A030F200D5
:101A16000030F30021005508033E2000E60066086A
:101A2600F4008A317E228C3173082100DA007208B4
:101A3600D90059082000E60021005508033EA03EC3
:101A46008600870120006608810021005A082000D0
:101A5600E60021005508043EA03E860087012000CE
:101A6600660881002A302000E6008D30890B392D6A
:101A7600E60B392D00322100D801562D5808A03E1C
:101A86008600870101082000E600E7016608F800E5
:101A96006708F900973118278C3101302000E600DD
:101AA60066082100D80754085802031C5B2D5C2DDC
:101AB600412D00302000E0009830E10097318F275B
:101AC6008C31FF2F230023082000E600E7012300C6
:101AD60022082000E800E9016808E900E801660834
:101AE60068042100DB002000670869042100DC008F
:101AF600230024082000E600E70166082100D6003E
:101B0600200067082100D7000F3056065704031936
:101B16008D2D8E2D8F2DFF2FA030F2000130F3007A
:101B26005608053E2000E6006608F4008A317E224B
:101B36008C3173082100DA007208D9005608A53ED8
:101B46008600013087005608A63E840001308500D5
:101B56005A080006031DB12D590801060319B42DB4
:101B6600B52DB62DFF2FE130F2000030F300A53081
:101B7600F4000130F5005708F7005608F6008931E1
:101B860045218C310130210061052000E6000E0858
:101B96006606FE3966068E00210061360139200090
:101BA600E600E60D0E086606FD3966068E00210083
:101BB60067082400C900210066082400C800210027
:101BC60069082400CF00210068082400CE00210007
:101BD6006B082400D50021006A082400D4002100E7
:101BE6006D082400DB0021006C082400DA002100C7
:101BF6006F082400E10021006E082400E000003098
:101C060021005C02803003195B02031C0B2E0C2E94
:101C1600102E4030DB020030DC3B70302000E60046
:101C26002330E70021005B0820006607F200210050
:101C36005C082000673DF300E130F4000030F50059
:101C46000F30F6000030F700893145218C3188319C
:101C5600CB208C3107302000E60066082100D40036
:101C6600A001A00A65302000E60066082100A10058
:101C76005C082000E60066082100A2005B08200040
:101C8600E60066082100A30056082000E600660864
:101C96002100A400A030F2000030F300053020003F
:101CA600E6006608F4008A317E228C317308210032
:101CB600DA007208D90059082000E60066082100FB
:101CC600A5005A082000E60066082100A6002A3072
:101CD6002000E6008D30890B6E2EE60B6E2E00324C
:101CE6002100D8018B2E5808A03E860087010108E6
:101CF6002000E600E7016608F8006708F90097315A
:101D060018278C3101302000E60066082100D8072C
:101D160054085802031C902E912E762EFF2F230076
:101D260023082000E600E701230022082000E8003F
:101D3600E9016808E900E801660868042100DB009B
:101D46002000670869042100DC0023002408200025
:101D5600E600E70166082100D6002000670821009A
:101D6600D700A030F2000130F30005302000E60075
:101D76006608F4008A317E228C3173082100DA006D
:101D86007208D9005A0823002606031DCE2E21000C
:101D96005908230025060319D12ED22ED32EFF2F44
:101DA600210056085B072000E600210057085C3D2D
:101DB6002000E70001306702013003196602031CA8
:101DC600E52EE62EE72EFF2F21005608053E2000C1
:101DD600E60000302100573D2000E7000030670292
:101DE600333003196602031CF92EFA2EFB2EFF2F41
:101DF6002100DD015D08A03E860087018101810A80
:101E060001302000E60066082100DD07643020006E
:101E1600E60021005D08A03E8600870120006608D6
:101E260081000130E60066082100DD075C0820001D
:101E3600E60021005D08A03E8600870120006608B6
:101E460081000130E60066082100DD075B082000FE
:101E5600E60021005D08A03E860087012000660896
:101E660081000130E60066082100DD0756082000E3
:101E7600E60021005D08A03E860087012000660876
:101E860081000130E60066082100DD07D8017F2FBA
:101E9600003021005C02803003195B02031C542FC2
:101EA600552F592F4030DB020030DC3B5808703E7E
:101EB6002000E600E7012330E73D21005B08200013
:101EC6006607860021005C082000673D8700010840
:101ED600E80021005D08A03E860087012000680812
:101EE60081000130E60066082100DD070130200090
:101EF600E60066082100D80758082000E600E7013A
:101F06002100570820006702031D8D2F2100560867
:101F160020006602031C902F912F4B2FA030F20059
:101F26000030F30021005D082000E6006608F4009A
:101F36008A317E228C3173082100DA007208D900BA
:101F460059082000E60021005D08A03E86008701B2
:101F56002000660881000130E60066082100DD07E2
:101F66005A082000E60021005D08A03E8600870191
:101F76002000660881000130E60066082100DD07C2
:101F86002A302000E6008D30890BC72FE60BC72FBD
:101F960000322100D801E42F5808A03E86008701B0
:101FA60001082000E600E7016608F8006708F90066
:101FB600973118278C3101302000E6006608210091
:101FC600D8075D085802031CE92FEA2FCF2FFF2FF1
:101FD6005E082000E600E7016708003A0319F42FBF
:101FE600FF2F6608033A0319702C673A0319922EDD
:0A1FF600013A0319652DFF2F0800C2
:102DD0009731E5279631080023001D121D160800C3
:102DE0001A3021009900080073082200BF00720801
:102DF000BE00080073082200C3007208C200080069
:102E000073082200C1007208C00008007308220085
:102E1000C9007208C800080073082200CB007208BD
:102E2000CA00080073082200C7007208C600080024
:102E30007908F6007808F500F7018A31C222973147
:102E40000800E0302900910092018E018F010130CD
:102E500090000800703021009B0080309C009A0197
:102E60009D011C1F342F352F312F08006400800175
:102E700001310130FE020030FF3B7F087E04031D5C
:102E8000372F0034FE0012001E000130FE02003019
:102E9000FF3B7F087E04031D432F003420005408AD
:102EA000F6005308F5005608F8005508F70087317A
:102EB0009E279731080020001A1D5F2F602F672F73
:102EC0001A1071089900700898001A146B2F710875
:102ED000990070089800080053342D3443346C3442
:102EE000613473347334443400343134363446340A
:102EF00031343734373436340034F40020000D15C3
:102F0000A0300032890B812F740889311A21973142
:102F1000A0300032890B892F20000D11080062308B
:102F20002000E2006208E5006108D9006008D800CE
:102F30006530E2006208DA00003089319F21973164
:102F400008008931CD21973197312A279731963161
:102F5000F02697319731B427973197312127973150
:102F60008A313E229731080020009B01E030990011
:102F7000C030980011101908BF001808BE002100C9
:102F800011141630F2000830F300973112279731F0
:102F9000013020009A00080000308B1B0130F40043
:102FA0008B137208230091007308920015131514F7
:102FB00000000000740C031C8B1303188B172300F4
:102FC0001408F3001308F200080023001908F000A9
:102FD0007B08A03E86000330870070088100013026
:102FE000F0007008FB0740307B02031CF82FF92F1C
:102FF000FA2FFB010130F00070082000C207080022
:063000000D340A34003417
:020000040001F9
:04000E007CFFFFFF75
:00000001FF
