:0400000061EF09F0B3
:08000800046ED8CF05F0E0CF33
:1000100006F00001E9CF0CF0EACF07F0E1CF08F0DD
:10002000E2CF09F0D9CF0AF0DACF0BF0F3CF12F01C
:10003000F4CF13F0FACF14F0F5CF15F0F6CF16F099
:10004000F7CF17F000C00EF001C00FF002C010F0A3
:1000500003C011F09DA030EF00F09EB072EF00F0F1
:100060009DAA36EF00F09EBA5DEF00F00EC000F0E2
:100070000FC001F010C002F011C003F00CC0E9FF86
:1000800007C0EAFF078E08C0E1FF09C0E2FF0AC00F
:10009000D9FF0BC0DAFF12C0F3FF13C0F4FF14C086
:1000A000FAFF15C0F5FF16C0F6FF17C0F7FF0450A2
:1000B00006C0E0FF05C0D8FF1000AECF2CF1BC5148
:1000C000BC2B036A8A0FE96E000E0320EA6E2CC176
:1000D000EFFFBC51320801E2BC6BBF6BC0819E9A3E
:1000E00036EF00F0F30ECF6EA40ECE6E1B88C32B3E
:1000F000D8B4C42BC45303E1C351040805E21B80E8
:100100001B821B8AC46BC36BC12BD8B4C22BC251D8
:10011000120808E2FF0A03E1C151870803E21B84C9
:10012000C26BC16B010EC527D8B0C62BD8B4C72B84
:10013000D8B4C82BC8530AE1C75308E1C651C20856
:100140000AE2FF0A03E1C5514F0805E21B86C86BAE
:10015000C76BC66BC56B9E9036EF00F0010EEA6E62
:10016000210EE96EEF500EE0140E016E006A002EB3
:10017000FED7012EFBD7BF0E006E002EFED700D09B
:10018000EF2EF2D71200F36BF251F35D1BE2F35145
:10019000F025016E000EF121036E0150E96E03C0DF
:1001A000EAFFF351EF25F66FF2CFF7F0F29EF6C0BB
:1001B000A9FFA69CA69EA680A850F7BFF28EEF6E60
:1001C000F32BE2D71200EDC0E9FFEEC0EAFFEFCF5C
:1001D000F1F0F0C003F0EFC0E9FFF0C0EAFFEF502C
:1001E000F15D15E1EEC003F0EDC0E9FF03C0EAFFE9
:1001F000EF5203E1000E016E1FD0EEC003F0ED518F
:10020000ED2BD8B4EE2BEF2BD8B4F02BDCD7EEC00F
:1002100003F0EDC0E9FFEEC0EAFFEFCFF1F0F0C070
:1002200003F0EFC0E9FFF0C0EAFFEF50F15D02E23A
:10023000FF0E01D0010E016E90EF01F00101276B5E
:100240002651275D27E227512325296F2751242591
:10025000016E000E2521036E0150E96E03C0EAFF16
:10026000EFCF2AF1F250006EF29E29C1A9FF2AC1F8
:10027000A8FFA69CA69EA6840F01550EA76EAA0EE7
:10028000A76EA682A6B2FED7A6940050F212010174
:10029000272BD6D7286B276B2651275D1FE22751C6
:1002A0002425016E000E2521036E0150E96E03C066
:1002B000EAFFEFCF29F1275123252A6FF2CF2BF147
:1002C000F29E2AC1A9FFA69CA69EA680A8502BBF7D
:1002D000F28E295D01E0282B272BDED7285304E07E
:1002E000000E016E03D002D0010E016E000112005B
:1002F000FF0E926EF80E936E800E946E0F013A6BA5
:10030000396B0001EF6FF16BE40EF06F090EF26FC5
:100310003ADFEE6BE40EED6FF06B780EEF6F53D7B4
:10032000015240E0696B6A6B6B6B6C6B6D6B6F6B52
:10033000050E6E6F716B140E706F736B726F756B51
:10034000746F776B766F010EE36F030EE26F800EB2
:100350000101236F256B780E246F090E266F0001B3
:100360006DDF690EED6F0101236B256B246F0F0E9E
:10037000266F000163DFE20EED6F900E0101236F27
:10038000256BEDC024F1020E266F000157DFA00E91
:100390000101236F256B810E246F090E266F00016A
:1003A0004DDF71D0D30EED6FEF6BF16BF06F0F0E71
:1003B000F26FE9DED351020802E2020E01D0D351FE
:1003C000696FD451010802E2000E01D0D4516A6F66
:1003D000D551010802E2000E01D0D5516B6FD65104
:1003E000010802E2000E01D0D6516C6FD75101080E
:1003F00002E2000E01D0D7516D6FD95303E1D851FD
:10040000050803E2036A050E03D0D9C003F0D851F2
:100410006E6F03C06FF0DB5303E1DA51140803E29F
:10042000036A140E03D0DBC003F0DA51706F03C00F
:1004300071F0DD5303E1DC51140803E2036A140E8A
:1004400003D0DDC003F0DC51726F03C073F0DF53E3
:1004500003E1DE51140803E2036A140E03D0DFC087
:1004600003F0DE51746F03C075F0E15303E1E05116
:10047000140803E2036A140E03D0E1C003F0E05154
:10048000766F03C077F069B102D08B9001D08B807A
:100490009490D8906931010B02E18B9201D08B824C
:1004A00094926BB102D08A9001D08A8093906AB105
:1004B00002D08A9201D08A8293926DB102D08B9839
:1004C00001D08B8894986CB102D08B9A01D08B8A22
:1004D000949A6FC050F06EC04FF071C056F070C06B
:1004E00055F073C05CF072C05BF075C062F074C010
:1004F00061F077C068F076C067F004EF0AF093947B
:100500008A94AB980000AB88AB9E0000AB8E06EFE0
:100510000AF0010127692669286B2551285D1CE234
:1005200028512325E96E000E2421EA6EEF50261B88
:10053000080E296F29530EE02651010B2A6FD8901F
:10054000273326332A2D04D0010E261BA00E271B8D
:100550002907F0D7282BE1D726C101F027C102F0E7
:100560000001120093948A849EA8FED793948A84F3
:10057000010122C1ADFF0000ACA2FED793948A9482
:100580000001120093948A849EA8FED793948A84D3
:10059000010121C1ADFF0000ACA2FED793948A9463
:1005A000000112008AC0BDF0BD2D52D28BC0BEF03A
:1005B000BE51030A07E0660AD8B4B7D0010AD8B41E
:1005C00068D140D28CC0E5F08DC0E4F08EC0E7F079
:1005D0008FC0E6F0D890E635026EE73502C0E8F04D
:1005E0000101246B8A0E236F060E256F000191DF37
:1005F00002C01DF101C01CF191C003F09051010136
:100600001C5D03E103501D5D04E0000E016E23D26A
:100610006DD00001E55303E1E451110806E2000E3C
:10062000016E010118D262D00001D890E6350101B7
:10063000216F0001E7350101226F225303E12151AF
:10064000440804E2000E016E06D250D0050E0001EF
:10065000E825E96F010EEA6F030EEB6FE8C0ECF0DE
:100660000101226B470E216FD8900001E435026E24
:10067000E535036E02500101212703502223EA6A67
:10068000ED0EE96E22C1E2FF21C1E1FF0001E85158
:10069000016E04E0E6CFEEFF012EFCD7030EE82545
:1006A0000101216F246BEA0E236F21C125F10001A6
:1006B00030DF02C01DF101C01CF1030EE825036A02
:1006C000EA0FE96E000E0320EA6E01011CC100F082
:1006D00000C0EFFF040E0001E825036AEA0FE96E8F
:1006E000000E0320EA6E01011D51EF6E040E216F12
:1006F000000134DDD26BE951D25D0CE2036AD251C4
:10070000EA0FE96E000E0320EA6EEFCF22F12ADF36
:10071000D22BF1D70D0E0101216F000133DF0A0E3C
:100720000101216F00012EDF92D18CC0E5F08DC058
:10073000E4F001011F6B8EC01EF11E510F0802E193
:100740001F5303E0000E016E86D1050E1E25216F9A
:10075000000E1F21226F246B8A0E236F21C125F109
:100760000001D7DE02C01DF101C01CF1900E010195
:100770001E25E96E000E1F21EA6EEFCF03F08F0EEB
:100780001E25E96E000E1F21EA6EEFCF26F12651DD
:100790001C5D03E103501D5D03E0000E016E5BD1A3
:1007A000EA6A690EE96EE26A8F0EE16E1FC102F01D
:1007B0001EC101F0015202E0022A02D0025206E0FC
:1007C000E6CFEEFF012EFCD7022EFAD7000169B169
:1007D00002D08B9001D08B809490D8906931010B1E
:1007E00002E18B9201D08B8294926FC050F06EC068
:1007F0004FF071C056F070C055F073C05CF072C01D
:100800005BF075C062F074C061F077C068F076C0CC
:1008100067F00101690E216FE4C023F1256B246F9D
:100820000F0E266F00010ADD070EE96F010EEA6F59
:10083000650EEB6FE5C0ECF00001E4C0EDF01EC109
:10084000EEF00101246BEA0E236F050E256F000107
:1008500060DE02C01DF101C01CF11CC1EFF00001FF
:100860001DC1F0F00001040E0101216F000176DCD2
:10087000D26BE951D25D0CE2036AD251EA0FE96E04
:10088000000E0320EA6EEFCF22F16CDED22BF1D7FF
:10089000DED08CC0E5F08DC0E4F001011F6B8EC08E
:1008A0001EF1246B8A0E236F050E256F000131DEC9
:1008B00002C01DF101C01CF190C003F08F51010175
:1008C0001C5D03E103501D5D04E0000E016EC3D00A
:1008D00023D01E510001E4250101216F1F510001A9
:1008E000E5210101226F000809E2FF0A03E121511D
:1008F000000804E2000E016EAED00ED0050E1E25DB
:10090000216F000E1F21226F225303E12151320873
:1009100003E2000E016E9FD0206B2051202B036A52
:10092000EA0FE96E000E0320EA6E010EEF6E205111
:10093000202B036AEA0FE96E000E0320EA6E640EB4
:10094000EF6E2051202B036AEA0FE96E000E0320A0
:10095000EA6E0001E5C0EFFF01012051202B036A80
:10096000EA0FE96E000E0320EA6E0001E4C0EFFF1B
:1009700001012051202B036AEA0FE96E000E0320CB
:10098000EA6E1EC1EFFF0001D26B01011F5305E1AA
:100990001E510001D25D1DE201012051202B036A8E
:1009A000EA0FE96E000E0320EA6E0001D251E42541
:1009B0000101236FF2CF24F1F29E23C1A9FFA69C6F
:1009C000A69EA680A85024BFF28EEF6E0001D22B07
:1009D000DCD70101246BEA0E236F20C125F1000151
:1009E00098DD02C01DF101C01CF101012051202B36
:1009F000036AEA0FE96E000E0320EA6E1CC1EFFFE6
:100A00002051202B036AEA0FE96E000E0320EA6EE4
:100A10001DC1EFFF040E216F0001AEEC00F0D26BA0
:100A2000010120510001D25D0CE2036AD251EA0FAC
:100A3000E96E000E0320EA6EEFCF22F193DDD22B98
:100A4000EFD705D0000E016E010105D0000103D0E3
:100A5000000E016E0101000126EF0AF0E56B470E62
:100A6000E46F928C80AC14D0C92BC95163080FE29B
:100A70006D5303E194988B8802D094988B986C53B3
:100A800003E1949A8B8A02D0949A8B9AC96B05D011
:100A9000C96B94988B98949A8B9A928880A81AD054
:100AA000CD6BCC6BCA2BD8B4CB2BCB51060811E243
:100AB000FF0A03E1CA51CF080CE2020EE425E96EF9
:100AC000000EE521EA6E010EEF6E93908A80CB6BEB
:100AD000CA6B1FD0CB6BCA6B6B2D05D093908A80ED
:100AE000CD6BCC6B16D0CC2BD8B4CD2BCD511E08F2
:100AF00010E2FF0A03E1CC513F080BE2020EE425AD
:100B0000E96E000EE521EA6EEF6A93908A90CD6B54
:100B1000CC6B928A80AA1AD0D16BD06BCE2BD8B472
:100B2000CF2BCF51060811E2FF0A03E1CE51CF08C7
:100B30000CE293928A82010EE425E96E000EE52113
:100B4000EA6E010EEF6ECF6BCE6B1FD0CF6BCE6B0C
:100B50006A2D05D093928A82D16BD06B16D0D02BA0
:100B6000D8B4D12BD1511E0810E2FF0A03E1D051B5
:100B70003F080BE2010EE425E96E000EE521EA6E66
:100B8000EF6A93928A92D16BD06B2DEF0AF0D8B2B4
:100B900003D0EA6AF00EE96E006A016A026A036A2B
:100BA000F06BF16BF26BF36BEF51EE11ED11EC1199
:100BB0002CE0200EF46FD890E837E937EA37EB37AE
:100BC000F037F137F237F337EF51F35D08E1EE51CB
:100BD000F25D05E1ED51F15D02E1EC51F05D0FE3F5
:100BE000EC51F05FED51D8A0ED3DF15FEE51D8A092
:100BF000EE3DF25FEF51D8A0EF3DF35FD8800036B5
:100C0000013602360336F42FD6D7F0C0EFFFF1C01D
:100C1000ECFFF2C0ECFFF3C0ECFF1200E76B470EF5
:100C2000E66F000E016EC250830B0110C26E0F0EF4
:100C3000006E002EFED700D0C282C2B2FED7C4CF53
:100C4000E5F0C3CFE4F01D50E55D08E303E1E451B6
:100C50001C5C04E2E5C01DF0E4C01CF0E5511F5C23
:100C600008E303E11E50E45D04E2E5C01FF0E4C0C8
:100C70001EF0040E016EC250830B0110C26E0F0EE7
:100C8000006E002EFED700D0C282C2B2FED7C4CF03
:100C9000E5F0C3CFE4F02150E55D08E303E1E45162
:100CA000205C04E2E5C021F0E4C020F0E551235CC3
:100CB00008E303E12250E45D04E2E5C023F0E4C070
:100CC00022F0080E016EC250830B0110C26E0F0E8F
:100CD000006E002EFED700D0C282C2B2FED7C4CFB3
:100CE000E5F0C3CFE4F02550E55D08E303E1E4510E
:100CF000245C04E2E5C025F0E4C024F0E551275C63
:100D000008E303E12650E45D04E2E5C027F0E4C017
:100D100026F00C0E016EC250830B0110C26E0F0E36
:100D2000006E002EFED700D0C282C2B2FED7C4CF62
:100D3000E5F0C3CFE4F02950E55D08E303E1E451B9
:100D4000285C04E2E5C029F0E4C028F0E5512B5C02
:100D500008E303E12A50E45D04E2E5C02BF0E4C0BF
:100D60002AF0446A1F501D5C0CE303E11E501C5C1A
:100D700008E31E501C5C006E1F501D58036E00508F
:100D800002D0036A000E2C6E03C02DF02C503426C6
:100D90002D503522000E362237222350215C0CE3E1
:100DA00003E12250205C08E32250205C006E2350B7
:100DB0002158036E005002D0036A000E2E6E03C04D
:100DC0002FF02E5038262F503922000E3A223B2287
:100DD0002750255C0CE303E12650245C08E32650F1
:100DE000245C006E27502558036E005002D0036A21
:100DF000000E306E03C031F030503C2631503D22A1
:100E0000000E3E223F222B50295C0CE303E12A50C6
:100E1000285C08E32A50285C006E2B502958036E8A
:100E2000005002D0036A000E326E03C033F032501D
:100E3000402633504122000E42224322452AD8B494
:100E4000462A46501208D8B03AD2FF0A04E145506B
:100E50008708D8B034D21B8C466A456AD89237C00E
:100E6000EBF036C0EAF035C0E9F034C0E8F0EF6BE3
:100E7000EE6B130EED6F880EEC6F89DE03C037F05A
:100E800002C036F001C035F000C034F0D8923BC04B
:100E9000EBF03AC0EAF039C0E9F038C0E8F0EF6BA7
:100EA000EE6B130EED6F880EEC6F71DE03C03BF03E
:100EB00002C03AF001C039F000C038F0D8923FC00B
:100EC000EBF03EC0EAF03DC0E9F03CC0E8F0EF6B6B
:100ED000EE6B130EED6F880EEC6F59DE03C03FF022
:100EE00002C03EF001C03DF000C03CF0D89243C0CB
:100EF000EBF042C0EAF041C0E9F040C0E8F0EF6B2F
:100F0000EE6B130EED6F880EEC6F41DE03C043F005
:100F100002C042F001C041F000C040F00E0EE625D4
:100F2000E96E000EE721EA6EECCF03F0ED52EFCF51
:100F300001F037520EE136520CE13550035C09E303
:100F400003E10150345C05E2006A016A026A036A47
:100F500015D00E0EE625E96E000EE721EA6EECCF05
:100F600003F0ED52EF50345C006E03503558016EC3
:100F7000000E3658026E000E3758036E03C037F06D
:100F800002C036F001C035F000C034F0140EE62582
:100F9000E96E000EE721EA6EECCF03F0ED52EFCFE1
:100FA00001F03B520EE13A520CE13950035C09E387
:100FB00003E10150385C05E2006A016A026A036AD3
:100FC00015D0140EE625E96E000EE721EA6EECCF8F
:100FD00003F0ED52EF50385C006E03503958016E4B
:100FE000000E3A58026E000E3B58036E03C03BF0F1
:100FF00002C03AF001C039F000C038F01A0EE62500
:10100000E96E000EE721EA6EECCF03F0ED52EFCF70
:1010100001F03F520EE13E520CE13D50035C09E30A
:1010200003E101503C5C05E2006A016A026A036A5E
:1010300015D01A0EE625E96E000EE721EA6EECCF18
:1010400003F0ED52EF503C5C006E03503D58016ED2
:10105000000E3E58026E000E3F58036E03C03FF074
:1010600002C03EF001C03DF000C03CF0200EE6257D
:10107000E96E000EE721EA6EECCF03F0ED52EFCF00
:1010800001F043520EE142520CE14150035C09E38E
:1010900003E10150405C05E2006A016A026A036AEA
:1010A00015D0200EE625E96E000EE721EA6EECCFA2
:1010B00003F0ED52EF50405C006E03504158016E5A
:1010C000000E4258026E000E4358036E03C043F0F8
:1010D00002C042F001C041F000C040F00C0EE62515
:1010E000E96E000EE721EA6E35C0ECFFED5234C028
:1010F000EFFF120EE625E96E000EE721EA6E39C019
:10110000ECFFED5238C0EFFF180EE625E96E000E39
:10111000E721EA6E3DC0ECFFED523CC0EFFF1E0E32
:10112000E625E96E000EE721EA6E41C0ECFFED52C4
:1011300040C0EFFF0A0EE625016E000EE721036EA8
:1011400001C0E8F0E96F080EE625E96E000EE72120
:10115000EA6EECCF03F0ED52EFCF01F0375209E128
:10116000365207E10350355C06E303E10150345C7D
:1011700002E3010E01D0000EE9C0EAFFE8C0E9FF7A
:10118000EF6E100EE625016E000EE721036E01C022
:10119000E8F0E96F080EE625E96E000EE721EA6E39
:1011A000ECCF03F0ED52EFCF01F03B5209E13A52A0
:1011B00007E10350395C06E303E10150385C02E3C8
:1011C000010E01D0000EE9C0EAFFE8C0E9FFEF6EB2
:1011D000160EE625016E000EE721036E01C0E8F051
:1011E000E96F080EE625E96E000EE721EA6EECCF06
:1011F00003F0ED52EFCF01F03F5209E13E5207E11B
:1012000003503D5C06E303E101503C5C02E3010E48
:1012100001D0000EE9C0EAFFE8C0E9FFEF6E1C0E46
:10122000E625016E000EE721036E01C0E8F0E96FCC
:10123000080EE625E96E000EE721EA6EECCF03F01A
:10124000ED52EFCF01F0435209E1425207E1035062
:10125000415C06E303E10150405C02E3010E01D072
:10126000000EE9C0EAFFE8C0E9FFEF6E020E1D6E56
:101270001C6A1F6E1E6A2D6A2C6A376A366A356AC6
:10128000346A216E206A236E226A2F6A2E6A3B6AB4
:101290003A6A396A386A256E246A276E266A316A84
:1012A000306A3F6A3E6A3D6A3C6A296E286A2B6E44
:1012B0002A6A336A326A436A426A416A406A35EF8F
:1012C0000AF0F86AD09E078E700ED36E9B8C9B9EA0
:1012D000B8868A0EAF6E000EB06EA60EAC6E900E83
:1012E000AB6E93948A94B8868A0EAF6E000EB06E81
:1012F000A60EAC6E900EAB6E93948A940F01386B71
:10130000396B3A6B776A786A796A1B901B921B94E7
:101310001B961B981B9A1B9C1B9E0001C09115D00D
:1013200002001900005C401C001280532D436C61C8
:101330007373440031384632344B3232000400BCFF
:10134000000000002340C1000000000EF86E130EE4
:10135000F76E200EF66E0900F550006E000A13E0DD
:101360000900F550016EE8BE05D03F0BEA6E09009A
:10137000F5CFE9FF01BC090001AC0900F5CFEEFF94
:10138000004EE9D7F9D7F86A070ECD6ECC6AF30E96
:10139000CF6E6C0ECE6EC150F00BC16E0F0E0F01F2
:1013A000386F000E396F3A6FC050C00B3609C06EEF
:1013B000C08EC280C69A949A94889496010EC66E86
:1013C000000EC76ED19094988B98949A8B9A9392B2
:1013D0008A8293908A800C0E0001E46FFA0E01015C
:1013E000216F0001AEEC00F0E42FF8D793928A92BF
:1013F00093908A9094948B8494968B8694908B90FF
:1014000094928B9278EF01F07FEF02F0D180D1803F
:101410009D809D8AC00EF212BF6BC09104001BA27A
:1014200011D0ABA203D0AB980000AB88C0A109D00B
:10143000BF2BBF51140805E2AB98C091BC6B1B8E4B
:10144000BF6B1B921BAE04D0D2EF02F0AB881B9E89
:101450001BA003D01B902EEF05F01BA401D01B9402
:0E1460001BAA03D01B9A0EEF06F0D8D703008C
:020000040030CA
:0E00000000E8063700BF8100008003E00340E7
:00000001FF
;PIC18F24K22
;CRC=443D  CREATED="05-Aug-22 16:55"
