:040000006BEF00F0B2
:100008005982FACF32F0FBCF33F0D9CF34F0DACFC0
:1000180035F0F2AC12EF00F014EF00F061EF00F0F1
:100028000E01C5A91AEF00F01CEF00F032EF00F046
:10003800CDA921EF00F023EF00F032EF00F002D855
:1000480030EF00F00500FA6E0001FC51FD6EFD5125
:10005800FE6EFF6AFA50120061EF00F0C5AB37EF91
:1000680000F039EF00F04FEF00F0CDAB3EEF00F0BD
:1000780040EF00F04FEF00F002D84DEF00F0050020
:10008800FA6E0001FA51FD6EFB51FE6EFF6AFA50DE
:10009800120061EF00F0C6A154EF00F056EF00F037
:1000A80061EF00F0CEA15BEF00F05DEF00F061EFD3
:1000B80000F0FCEC14F061EF00F035C0DAFF34C05A
:1000C800D9FF33C0FBFF32C0FAFF5992110018EF75
:0200D80014F022
:050F0000000D0A0000D5
:100F0600D20E4B6E010E4C6E000E6EEC15F036C016
:100F160049F037C04AF049501F5C4A502058D8B0B3
:100F260097EF07F099EF07F09DEF07F049C01FF024
:100F36004AC020F01D50495C1E504A58D8B0A6EF52
:100F460007F0A8EF07F0ACEF07F049C01DF04AC064
:100F56001EF0010E6EEC15F036C049F037C04AF0AF
:100F660049501B5C4A501C58D8B0BCEF07F0BEEF86
:100F760007F0C2EF07F049C01BF04AC01CF0195039
:100F8600495C1A504A58D8B0CBEF07F0CDEF07F0BE
:100F9600D1EF07F049C019F04AC01AF0020E6EEC04
:100FA60015F036C049F037C04AF04950175C4A5030
:100FB6001858D8B0E1EF07F0E3EF07F0E7EF07F0D6
:100FC60049C017F04AC018F01550495C16504A58E7
:100FD600D8B0F0EF07F0F2EF07F0F6EF07F049C0F0
:100FE60015F04AC016F0030E6EEC15F036C049F047
:100FF60037C04AF04950135C4A501458D8B006EF2F
:1010060008F008EF08F00CEF08F049C013F04AC0EA
:1010160014F01150495C12504A58D8B015EF08F038
:1010260017EF08F01BEF08F049C011F04AC012F0A4
:10103600000E00017C6F1D501F5C1E502058D8B05A
:1010460027EF08F029EF08F02FEF08F0000E796F70
:10105600000E786F35EF08F01D501F5C786F1E503C
:101066002058796F78510D2679510E22000E0F22E5
:10107600000E102219501B5C1A501C58D8B046EFAF
:1010860008F048EF08F04EEF08F0000E776F000EFC
:10109600766F54EF08F019501B5C766F1A501C5887
:1010A600776F7651092677510A22000E0B22000E21
:1010B6000C221550175C16501858D8B065EF08F07A
:1010C60067EF08F06DEF08F0000E756F000E746F95
:1010D60073EF08F01550175C746F16501858756F3B
:1010E6007451052675510622000E0722000E0822AD
:1010F6001150135C12501458D8B084EF08F086EFE4
:1011060008F08CEF08F0000E736F000E726F92EF0E
:1011160008F01150135C726F12501458736F7251AD
:10112600012673510222000E0322000E0422704B88
:10113600712B880E705D130E7159D8A0A5EF08F0BB
:10114600A7EF08F042EF0BF0010E7D6F000E716FF6
:10115600000E706F0DC036F00EC037F00FC038F0BD
:1011660010C039F0880E3A6E130E3B6E000E3C6EC0
:10117600000E3D6EF0EC11F036C00DF037C00EF0EB
:1011860038C00FF039C010F009C036F00AC037F089
:101196000BC038F00CC039F0880E3A6E130E3B6E59
:1011A600000E3C6E000E3D6EF0EC11F036C009F0FC
:1011B60037C00AF038C00BF039C00CF005C036F065
:1011C60006C037F007C038F008C039F0880E3A6E0E
:1011D600130E3B6E000E3C6E000E3D6EF0EC11F0F1
:1011E60036C005F037C006F038C007F039C008F041
:1011F60001C036F002C037F003C038F004C039F041
:10120600880E3A6E130E3B6E000E3C6E000E3D6E5F
:10121600F0EC11F036C001F037C002F038C003F030
:1012260039C004F020EE0EF04B50D9264C50DA228D
:10123600DECF43F0DDCF44F04350456E4450466E5A
:10124600476A486A45500D5C46500E5847500F583D
:1012560048501058D8A032EF09F034EF09F052EF99
:1012660009F020EE0EF04B50D9264C50DA22DECF94
:1012760043F0DDCF44F04350456E4450466E476A16
:10128600486A45500D5C0D6E46500E580E6E47501E
:101296000F580F6E48501058106E5AEF09F0000E96
:1012A6000D6E000E0E6E000E0F6E000E106E20EE0E
:1012B60014F04B50D9264C50DA22DECF43F0DDCF66
:1012C60044F04350456E4450466E476A486A45505E
:1012D600095C46500A5847500B5848500C58D8A03D
:1012E60077EF09F079EF09F097EF09F020EE14F0A7
:1012F6004B50D9264C50DA22DECF43F0DDCF44F0F6
:101306004350456E4450466E476A486A4550095CEC
:10131600096E46500A580A6E47500B580B6E4850D5
:101326000C580C6E9FEF09F0000E096E000E0A6E47
:10133600000E0B6E000E0C6E20EE1AF04B50D926E6
:101346004C50DA22DECF43F0DDCF44F04350456EF9
:101356004450466E476A486A4550055C46500658F2
:101366004750075848500858D8A0BCEF09F0BEEFC0
:1013760009F0DCEF09F020EE1AF04B50D9264C505C
:10138600DA22DECF43F0DDCF44F04350456E4450C1
:10139600466E476A486A4550055C056E46500658D3
:1013A600066E47500758076E48500858086EE4EF17
:1013B60009F0000E056E000E066E000E076E000E9A
:1013C600086E20EE20F04B50D9264C50DA22DECFA4
:1013D60043F0DDCF44F04350456E4450466E476AB5
:1013E600486A4550015C46500258475003584850D9
:1013F6000458D8A001EF0AF003EF0AF021EF0AF033
:1014060020EE20F04B50D9264C50DA22DECF43F0A6
:10141600DDCF44F04350456E4450466E476A486AF5
:101426004550015C016E46500258026E4750035803
:10143600036E48500458046E29EF0AF0000E016E40
:10144600000E026E000E036E000E046E20EE0CF00F
:101456004B50D9264C50DA220DC0DEFF0EC0DDFF00
:1014660020EE12F04B50D9264C50DA2209C0DEFF8E
:101476000AC0DDFF20EE18F04B50D9264C50DA2278
:1014860005C0DEFF06C0DDFF20EE1EF04B50D9265C
:101496004C50DA2201C0DEFF02C0DDFF20EE0AF06A
:1014A6004B50D9264C50DA2210EE08F04B50E1266C
:1014B6004C50E222E6CF43F0E5CF44F04350456E70
:1014C6004450466E476A486A45500D5C46500E5871
:1014D60047500F5848501058D8B074EF0AF077EFBD
:1014E6000AF0010E78EF0AF0000EDF6E20EE10F023
:1014F6004B50D9264C50DA2210EE08F04B50E1261C
:101506004C50E222E6CF43F0E5CF44F04350456E1F
:101516004450466E476A486A4550095C46500A5828
:1015260047500B5848500C58D8B09CEF0AF09FEF24
:101536000AF0010EA0EF0AF0000EDF6E20EE16F0A4
:101546004B50D9264C50DA2210EE08F04B50E126CB
:101556004C50E222E6CF43F0E5CF44F04350456ECF
:101566004450466E476A486A4550055C46500658E0
:101576004750075848500858D8B0C4EF0AF0C7EF8C
:101586000AF0010EC8EF0AF0000EDF6E20EE1CF026
:101596004B50D9264C50DA2210EE08F04B50E1267B
:1015A6004C50E222E6CF43F0E5CF44F04350456E7F
:1015B6004450466E476A486A4550015C4650025898
:1015C6004750035848500458D8B0ECEF0AF0EFEFF4
:1015D6000AF0010EF0EF0AF0000EDF6E000E0D6E3F
:1015E600000E0E6E000E0F6E000E106E000E096ECF
:1015F600000E0A6E000E0B6E000E0C6E000E056ECF
:10160600000E066E000E076E000E086E000E016ECE
:10161600000E026E000E036E000E046E020E206EA9
:10162600000E1F6E020E1E6E000E1D6E000E0001D5
:10163600796F000E786F020E1C6E000E1B6E020E86
:101646001A6E000E196E000E776F000E766F020E80
:10165600186E000E176E020E166E000E156E000E38
:10166600756F000E746F020E146E000E136E020E6E
:10167600126E000E116E000E736F000E726F120066
:10168600A0C17FF000017F05D8A44CEF0BF04EEF10
:101696000BF014EF0EF0A1C17EF0FBEF0DF001018F
:1016A600A351A2C155F0566A55C056F0556A551059
:1016B6000001D66F5650D76F0101A551A4C155F050
:1016C600566A55C056F0556A55100001D26F5650ED
:1016D600D36FD251D225D56FA00E366E010E376E5E
:1016E600060E386E16EC13F036C0DBF037C0DCF0B1
:1016F6000101A651A7C155F0566A55C056F0556A64
:101706005512000E56120001DB51551809E1DC5145
:101716005618D8B491EF0BF093EF0BF095EF0BF052
:1017260014EF0EF0D75109E1120ED65DD8A09EEF48
:101736000BF0A0EF0BF0A2EF0BF014EF0EF0D2C0FF
:1017460055F0D3C056F0D89055365636565009E166
:10175600450E555CD8A0B2EF0BF0B4EF0BF0B6EF28
:101766000BF014EF0EF0D551050FD46F010EA06FDC
:10177600030EA16FD5C0A2F0A30E366E000E376E13
:10178600D6C055F0D7C056F0D89055365636D20E3C
:101796005524386E010E5620396ED5C03AF03B6A94
:1017A6006DEC14F0A00E366E000E376E0001D551AA
:1017B600030F386E16EC13F036C0DBF037C0DCF0E2
:1017C6000001D551556E566A030E5526000E562257
:1017D600A00E5524D96E000E5620DA6EDBC0DFFF50
:1017E600D551556E566A040E5526000E5622A00E89
:1017F6005524D96E000E5620DA6EDC51DF6E540E7B
:10180600556E1C0EE82EFED7552EFCD700D0000EC6
:101816000001DA6F1EEF0CF0A00EDA25D96EDA6A37
:10182600000EDA22DF50556E5550416E426A0BECBF
:1018360016F00001DA2BD451DA5DD8A025EF0CF0B2
:1018460027EF0CF00FEF0CF0010E4F6E0F0E506EDF
:10185600C3EC15F014EF0EF00101A351A2C155F02F
:10186600566A55C056F0556A55100001D66F565047
:10187600D76FA4C1D8F0D96B0F0ED819D911D8B427
:1018860047EF0CF049EF0CF04BEF0CF014EF0EF0B5
:10189600A00E366E010E376ED851050F386E16EC57
:1018A60013F036C0DBF037C0DCF0A60E0001D825F9
:1018B600D96E010ED921DA6EDF50556E5550576E2E
:1018C600566AA50ED825D96E010ED921DA6EDF50DB
:1018D600586E58505612000E5712DB51561809E131
:1018E600DC515718D8B47AEF0CF07CEF0CF07EEF91
:1018F6000CF014EF0EF08F0E366E000E376EA50E3E
:10190600386E010E396ED8C03AF0D9C03BF06DEC96
:1019160014F08FC055F0010E55168F505518FE0B5A
:1019260055188F6E00F08FC055F0D8905532010EC5
:10193600551655468F505518FD0B55188F6E94C089
:10194600DAF195C0DBF196C0E0F197C0E1F198C0FD
:10195600E6F199C0E7F19AC0ECF19BC0EDF19CC0AD
:10196600F2F19DC0F3F1D6C03AF0D7C03BF08F0E2E
:101976003C6E000E3D6E0F0E3E6E90EC12F0070EA2
:101986000001D46F010EA06F650EA16FD751A26F33
:10199600D6C0A3F0D8C0A4F0A00E366E000E376EE7
:1019A600050E386E16EC13F036C0DBF037C0DCF0EF
:1019B600DBC0A5F00001DC51A66F540E556E1C0E5F
:1019C600E82EFED7552EFCD700D0000E0001DA6FA8
:1019D600FCEF0CF0A00EDA25D96EDA6A000EDA22D8
:1019E600DF50556E5550416E426A0BEC16F0000101
:1019F600DA2BD451DA5DD8A003EF0DF005EF0DF028
:101A0600EDEF0CF014EF0EF00101A351A2C155F059
:101A1600566A55C056F0556A55100001D66F565095
:101A2600D76FA4C1D8F0D96BA00E366E010E376EF3
:101A3600050E386E16EC13F036C0DBF037C0DCF05E
:101A46000101A551A6C155F0566A55C056F0556A12
:101A56005512000E56120001DB51551809E1DC51F2
:101A66005618D8B439EF0DF03BEF0DF03DEF0DF001
:101A760014EF0EF0D851D625556ED951D721566E92
:101A86005504010E5658D8A04BEF0DF04DEF0DF052
:101A96004FEF0DF014EF0EF0050ED825556E000E23
:101AA600D921566E565009E1330E555CD8A05EEF2B
:101AB6000DF060EF0DF062EF0DF014EF0EF0000E7A
:101AC600DD6FA00EDD25D96EDA6A000EDA22010E70
:101AD600DF6EDD2BA00EDD25D96EDA6A000EDA2266
:101AE600640EDF6EDD2BA00EDD25D96EDA6A000EE0
:101AF600DA22D751DF6EDD2BA00EDD25D96EDA6A2C
:101B0600000EDA22D6C0DFFFDD2BA00EDD25D96E52
:101B1600DA6A000EDA22D8C0DFFFDD2B000EDA6F9C
:101B2600A7EF0DF0A00EDD25D96EDA6A000EDA22D7
:101B3600DA51D625366E000ED721376EFFEC15F03A
:101B4600DF6E0001DD2BDA2BDA51556E566AD8515D
:101B5600555CD9515658D8A0B3EF0DF0B5EF0DF03E
:101B660095EF0DF0A00E366E000E376EDDC038F024
:101B760016EC13F036C0DBF037C0DCF0A00E000127
:101B8600DD25D96EDA6A000EDA22DBC0DFFFDD2B37
:101B9600A00EDD25D96EDA6A000EDA22DC51DF6E80
:101BA600DD2B540E556E1C0EE82EFED7552EFCD797
:101BB60000D0000E0001DA6FF0EF0DF0A00EDA256E
:101BC600D96EDA6A000EDA22DF50556E5550416E34
:101BD600426A0BEC16F00001DA2BDD51DA5DD8A073
:101BE600F7EF0DF0F9EF0DF0E1EF0DF014EF0EF059
:101BF6007E51556E566A5650000AD8B405EF0EF05F
:101C060014EF0EF05550030AD8B452EF0BF0670AE2
:101C1600D8B407EF0DF0010AD8B42FEF0CF014EF8B
:101C26000EF012008F9800F08F9A8E8000F08E8250
:101C3600F40E446E820E436E050EE82EFED7432E3A
:101C4600FCD7442EFAD700F08E9000F08E928F903B
:101C560000F08F921FEC16F0000E396E800E386E73
:101C6600A00E3A6E000E3B6E090E3C6E1BEC15F094
:101C7600A00E366E000E376EE70E386E000E396E09
:101C860052EC13F036503710D8B44CEF0EF04EEF3E
:101C96000EF0A3EF0EF0000E00018F6F000E906F96
:101CA600000E916F000E926F000E936F000E956FEF
:101CB600050E946F000E976F140E966F000E996FB7
:101CC600140E986F000E9B6F140E9A6F000E9D6F88
:101CD600140E9C6F010E9F6F040E9E6F000E3B6EDE
:101CE600800E3A6EE70E3C6E000E3D6E090E3E6E9D
:101CF60090EC12F0000E3B6E000E3A6E8F0E3C6EAC
:101D0600000E3D6E0F0E3E6E90EC12F0000E3B6E16
:101D1600900E3A6E9E0E3C6E000E3D6E020E3E6EAC
:101D260090EC12F0000E3B6EA00E3A6EDE0E3C6E8C
:101D3600000E3D6E090E3E6E90EC12F07DEF0FF038
:101D4600000E396E000E386E800E3A6E000E3B6E37
:101D56000F0E3C6E1BEC15F0030E00018061B6EF12
:101D66000EF0B8EF0EF0BCEF0EF080C0B3F0BEEF91
:101D76000EF0020EB36FB3C08FF0020E8161C6EF94
:101D86000EF0C8EF0EF0CCEF0EF081C0B4F0CEEF3F
:101D96000EF0000EB46FB4C090F0020E8261D6EF62
:101DA6000EF0D8EF0EF0DCEF0EF082C0B5F0DEEFED
:101DB6000EF0000EB56FB5C091F0020E8361E6EF2E
:101DC6000EF0E8EF0EF0ECEF0EF083C0B6F0EEEF9B
:101DD6000EF0000EB66FB6C092F0020E8461F6EFFA
:101DE6000EF0F8EF0EF0FCEF0EF084C0B7F0FEEF49
:101DF6000EF0000EB76FB7C093F0865107E1060EDE
:101E0600855DD8B009EF0FF00BEF0FF011EF0FF073
:101E160085C0A9F086C0AAF015EF0FF0000EAA6FD4
:101E2600050EA96FA9C094F0AAC095F0885107E1E4
:101E3600150E875DD8B022EF0FF024EF0FF02AEFD2
:101E46000FF087C0ABF088C0ACF02EEF0FF0000E9D
:101E5600AC6F140EAB6FABC096F0ACC097F08A5166
:101E660007E1150E895DD8B03BEF0FF03DEF0FF09F
:101E760043EF0FF089C0ADF08AC0AEF047EF0FF028
:101E8600000EAE6F140EAD6FADC098F0AEC099F0F7
:101E96008C5107E1150E8B5DD8B054EF0FF056EF5D
:101EA6000FF05CEF0FF08BC0AFF08CC0B0F060EFBE
:101EB6000FF0000EB06F140EAF6FAFC09AF0B0C047
:101EC6009BF08E5107E1150E8D5DD8B06DEF0FF0CA
:101ED6006FEF0FF075EF0FF08DC0B1F08EC0B2F05E
:101EE60079EF0FF0000EB26F140EB16FB1C09CF017
:101EF600B2C09DF08FC043F0010E43168F504318B9
:101F0600FE0B43188F6E00F08FC043F0D89043321B
:101F1600010E431643468F504318FD0B43188F6E30
:101F260091C043F0010E43168E504318FE0B431822
:101F36008E6E00F090C043F0010E431643468E505D
:101F46004318FD0B43188E6E93C043F0010E4316E3
:101F5600433A8F504318EF0B43188F6E00F092C030
:101F660043F0010E4316433A43468F504318DF0BA6
:101F760043188F6E94C0DAF195C0DBF196C0E0F19C
:101F860097C0E1F198C0E6F199C0E7F19AC0ECF18B
:101F96009BC0EDF19CC0F2F19DC0F3F11200D20E90
:101FA600366E010E376E8DACDBEF0FF0DDEF0FF006
:101FB60003EF10F0212A630E2164E4EF0FF0E6EF41
:101FC6000FF008EF10F000019351D8A4EDEF0FF0D9
:101FD600EFEF0FF0F2EF0FF08F88F3EF0FF08F981F
:101FE6009251D8A4F9EF0FF0FBEF0FF0FEEF0FF0D0
:101FF6008F8AFFEF0FF08F9A000E216E08EF10F018
:10200600000E216E8F9800F08F9A8DA80DEF10F0BC
:102016000FEF10F030EF10F0000E00016D6F000EA4
:102026006C6F6E4B6F2BD00E6E5D070E6F59D8A07E
:102036001FEF10F021EF10F05CEF10F020EE02F031
:102046003650D9263750DA22010EDF6E8E80000E0A
:102056006F6F000E6E6F5CEF10F0000E00016F6F79
:10206600000E6E6F9105D8A43BEF10F03DEF10F017
:1020760044EF10F08E80000E6D6F000E6C6F5CEFFB
:1020860010F06C4B6D2B400E6C5D1F0E6D59D8A079
:102096004FEF10F051EF10F05CEF10F020EE02F071
:1020A6003650D9263750DA22000EDF6E8E903EEF7C
:1020B60010F08DAA61EF10F063EF10F083EF10F0CF
:1020C600000E696F000E686F6A4B6B2BD00E6A5D4F
:1020D600070E6B59D8A072EF10F074EF10F0AEEF48
:1020E60010F08E8220EE01F03650D9263750DA22D3
:1020F600010EDF6E000E6B6F000E6A6FAEEF10F012
:10210600000E6B6F000E6A6F9005D8A48DEF10F06D
:102116008FEF10F096EF10F08E82000E696F000EB2
:10212600686FAEEF10F0684B692B400E685D1F0EAE
:102136006959D8A0A1EF10F0A3EF10F0AEEF10F0A0
:1021460020EE01F03650D9263750DA22000EDF6E27
:102156008E9290EF10F0120043C0D9FF44C0DAFF10
:10216600DECFF6FFDDCFF7FFF86A0800F550250A47
:10217600D8A4C0EF10F0C2EF10F00BEF11F043C07F
:10218600D9FF44C0DAFFDE2A000EDD22000E000170
:10219600636F000E626F62C066F063C067F06469C9
:1021A600656943C0D9FF44C0DAFFDECFF6FFDDCF55
:1021B600F7FFF86A0800F550250AD8A4E5EF10F0F5
:1021C600E7EF10F0FEEF10F043C0D9FF44C0DAFF8E
:1021D600DE2A000EDD22000E396E250E386E41C055
:1021E6003AF042C03BF042EC12F0000E426E010E95
:1021F600416E27EF11F043C0D9FF44C0DAFFDE2A53
:10220600000EDD22000E426E000E416E27EF11F029
:1022160043C0D9FF44C0DAFFDECFF6FFDDCFF7FFBC
:10222600F86A0800F550386E396A41C03AF042C083
:102236003BF042EC12F043C0D9FF44C0DAFFDE2A7D
:10224600000EDD22F8EF10F01200D6EC15F0F28E3B
:10225600F28C15EC0EF004002E50D8B435EF11F0C8
:1022660037EF11F05DEF11F09DA23CEF11F03EEF5C
:1022760011F041EF11F09D9800F09D882950D8B4D7
:1022860047EF11F049EF11F05BEF11F02A2A140E17
:102296002A6450EF11F052EF11F05BEF11F09D98A8
:1022A600000E296E000E2B6E010E226E000E2A6E97
:1022B600000E2E6E2250D8B463EF11F065EF11F0C8
:1022C6006AEF11F043EC0BF09D88000E226E2C5045
:1022D600D8B470EF11F072EF11F074EF11F0000E38
:1022E6002C6E2F50D8B47AEF11F07CEF11F080EFFE
:1022F60011F0000E2F6E83EC07F02D50D8B486EF48
:1023060011F088EF11F02EEF11F0000E2D6ED2ECC9
:102316000FF02EEF11F06BEF00F0000E2624D96EB1
:10232600DA6A010EDA22000EDF6E9DA49DEF11F02F
:102336009FEF11F0B4EF11F0000E2624D96EDA6A81
:10234600010EDA220101DF8202D8B4EF11F0050096
:10235600FA6E0001F451FD6EF551FE6EFF6AFA50F9
:1023660012009DA2B9EF11F0BBEF11F0D0EF11F002
:10237600000E2624D96EDA6A010EDA220101DF8404
:1023860002D8D0EF11F00500FA6E0001F251FD6E91
:10239600F351FE6EFF6AFA501200000E2624D96E23
:1023A600DA6A010EDA22DF50D8B4DCEF11F0DEEF84
:1023B60011F0EDEF11F002D8EBEF11F00500FA6E17
:1023C6000001F051FD6EF151FE6EFF6AFA501200E7
:1023D600EFEF11F054EC15F01200000E3E6E000EF9
:1023E6003F6E000E406E000E416E3A503B103C10A0
:1023F6003D10D8B401EF12F003EF12F039EF12F0EE
:10240600010E426E0DEF12F0D8903A363B363C364E
:102416003D36422A3DAE12EF12F014EF12F007EFEE
:1024260012F0D8903E363F36403641363A50365C4A
:102436003B5037583C5038583D503958D8A026EFB5
:1024460012F028EF12F031EF12F03A50365E3B50A0
:10245600375A3C50385A3D50395A3E80D8903D3212
:102466003C323B323A32422E14EF12F03EC036F086
:102476003FC037F040C038F041C039F012003A5042
:102486003B10D8B449EF12F04BEF12F054EF12F0B4
:102496003A503B10D8A452EF12F054EF12F059EF15
:1024A60012F0385085EC15F08CEF12F020EE04F0A7
:1024B6003A50D9263B50DA22DE50DE10D8B466EF09
:1024C60012F068EF12F083EF12F020EE04F03A50AB
:1024D600D9263B50DA2210EE02F03A50E1263B5064
:1024E600E222DE50E65CE650800A406EDE50800A4C
:1024F6004058D8B081EF12F083EF12F08CEF12F053
:1025060020EE02F03A50D9263B50DA22DE2A000E9F
:10251600DD2238C038F0396A1200000E426EA5EF8F
:1025260012F042503A24366E000E3B20376E42506F
:102536003C24D96E000E3D20DA6EDF50386EB8ECC2
:1025460014F0422A3E50425CD8A0ACEF12F0AEEF37
:1025560012F094EF12F0000E416E000E426ECEEFB6
:1025660012F042503C24D96E000E3D20DA6E4250E5
:102576003A24366E000E3B20376EFFEC15F0406EA7
:10258600DE504018D8B4CAEF12F0CCEF12F0CDEFFF
:1025960012F0412A422A3E50425CD8A0D5EF12F0F2
:1025A600D7EF12F0B4EF12F012000E01C59B200E09
:1025B600366E230E376E31EC16F00E01C599B40E49
:1025C600366E290E376E2CEC16F0080E9F6E900EA6
:1025D6009D6E240E9E6E8A0E9B6E000E9C6E9A0E4B
:1025E600366E2C0E376E3BEC16F08A0E366E2C0EBF
:1025F600376E36EC16F0900E366E2C0E376E40ECBB
:1026060016F0000E236E000E286E000E276E400E8A
:102616000001FE6F000E266E000E256E000E246E63
:102626000E01C58B12003D683E68000E3B6E44EFFE
:1026360013F03B503624D96E000E3720DA6EDF5089
:10264600396E39503D1A080E3C6E3D50010B3A6EFC
:10265600D8903E323D323A04D8A434EF13F036EF28
:1026660013F03AEF13F0010E3D1AA00E3E1A3C0687
:102676003C50D8A441EF13F043EF13F028EF13F0CA
:102686003B2A38503B5CD8A04BEF13F04DEF13F0CC
:102696001CEF13F03DC036F03EC037F0120058EF85
:1026A60013F0364A372A384A392A38C0D9FF39C092
:1026B600DAFF36C0E1FF37C0E2FFDE50E618D8A4E5
:1026C60067EF13F069EF13F075EF13F036C0D9FF1B
:1026D60037C0DAFFDF50D8A473EF13F075EF13F0AD
:1026E60054EF13F036C0D9FF37C0DAFFDF503A6E29
:1026F60038C0D9FF39C0DAFFDF503B6E3B503A5C39
:10270600366E376AD8A03706120049C04DF04AC067
:102716004EF0000E0001616F000E606FA6EF13F021
:1027260047C041F048C042F04D0E436E000E446E65
:102736004BC045F04CC046F0AFEC10F041500001E4
:102746006027425061234DC0F6FF4EC0F7FFF86A7E
:102756000800F5500009D8A4B3EF13F0B5EF13F055
:1027660093EF13F060C047F061C048F01200000E0E
:10277600836E000E846E000E856E7F0E886EF80ED8
:10278600896E800E8A6E000E0F01216FFC0E196F86
:102796000F0E116F000E2D6F000E186F000E106FCA
:1027A600000E206F000E0F6F000E176F000E1F6FCA
:1027B6000E6916691E690D6915691D69080E2A6F6D
:1027C600170E0E01B56F090EFD6F1200366E000171
:1027D600FE51D8B4F1EF13F0F3EF13F0EAEF13F074
:1027E6000E01C5B9F9EF13F0FBEF13F0FFEF13F08D
:1027F60036C09AFF15EF14F0C599400E2824D96EFD
:10280600DA6A010EDA2236C0DFFF282A3F0E286474
:102816000FEF14F011EF14F013EF14F0000E286E02
:102826000001FE070E01C58912002C0EF66E2C0E55
:10283600F76E000EF86E00EEDEF010EE12F00900F4
:10284600F5CFEEFFE550E150FAE102EE00F0400E62
:10285600EE6AE806FDE101EE00F0F40EEE6AE80627
:10286600FDE100EE60F0400EEE6AE806FDE100EEE6
:1028760001F02F0EEE6AE806FDE15990599200012B
:1028860028EF11F0000E6A6E000E6B6E000E6C6E75
:10289600000E6D6E000E686E000E696E000E666E9E
:1028A600000E0F015F6F000E5D6F000E5E6F000E73
:1028B600596F000E5A6F000E5B6F000E656E000EAC
:1028C600586F000E566F1F0E576F840E606E000E07
:1028D6005C6F120038C03EF039C03FF036C03CF0A5
:1028E60037C03DF087EF14F03EC0D9FF3FC0DAFF96
:1028F600DF50406E3E4A3F2A3CC0D9FF3DC0DAFF5A
:1029060040C0DFFF3C4A3D2A3A06D8A03B063A289B
:1029160006E13B28D8A492EF14F094EF14F077EF79
:1029260014F01200000ED06E000ED16E020ED26EA2
:10293600060ECE6E000ECD6E0E01CE91CD50CECFD0
:1029460038F0396A38C039F0386A38100001F86F43
:102956003950F96F0E01C681720E366E2A0E376E29
:1029660027EC16F0010ECF6E1200000EF2BE010E1D
:10297600396E3750030B7F6E36C07EFF38C080FF3E
:102986003F0E81168184F29E550E826EAA0E826ECD
:10299600818281B2D1EF14F0D3EF14F0CCEF14F0B2
:1029A600819439B002D0F29E01D0F28E1200400E10
:1029B6000001FE61E1EF14F0E3EF14F0F9EF14F01B
:1029C600400E2724D96EDA6A010EDA22DF509A6E9B
:1029D600272A3F0E2764F2EF14F0F4EF14F0F6EF17
:1029E60014F0000E276EFE2BFBEF14F00E01C599B6
:1029F60012000E01CE91F8C030F0F9C031F0AFEC04
:102A060015F00001F651F711D8B40CEF15F00EEFE2
:102A160015F01AEF15F002D81AEF15F00500FA6E48
:102A2600F651FD6EF751FE6EFF6AFA501200120063
:102A3600000E3D6E2FEF15F03D503A24D96E000E74
:102A46003B20DA6E3D503824366E000E3920376E44
:102A5600FFEC15F0DF6E3D2A3C503D5CD8A036EF0A
:102A660015F038EF15F01FEF15F01200010E2F6E5E
:102A7600010E2E6E010E2D6E00017A4B7B2BE80E99
:102A86007A5D030E7B59D8A04BEF15F04DEF15F08C
:102A960053EF15F0000E7B6F000E7A6F010E2C6E51
:102AA600120099CF30F0A00E2B24D96EDA6A010EEF
:102AB600DA2230C0DFFF2B2A320E2B6465EF15F0C9
:102AC60067EF15F069EF15F0000E2B6E000E2A6EFB
:102AD600010E296E12003A6E3AC05FFF608E609C4E
:102AE600608060B079EF15F07BEF15F074EF15F0AC
:102AF6006450396E386A63503824366E000E3920B9
:102B0600376E1200376E8E84E40E00D000D0E82EA9
:102B1600FCD700D000D03750E9EC13F0E40E00D01B
:102B260000D0E82EFCD700D000D08E941200000E04
:102B36002624D96EDA6A020EDA2299CFDFFF262A18
:102B46003F0E2664A9EF15F0ABEF15F0ADEF15F0CB
:102B5600000E266E242A1200CFA4B4EF15F0B6EFAD
:102B660015F0BEEF15F0CF903150CE6E30C0CDFFD0
:102B7600CF80C2EF15F03150CE6E30C0CDFF1200BF
:102B8600510E536E000E546E000E476E000E486EC8
:102B96004FC049F050C04AF0530E4B6E000E4C6EBB
:102BA60088EC13F012004BEC16F0E5EC15F0BAECDD
:102BB60013F0F3EC15F045EC14F095EC14F0D8ECAA
:102BC60012F01200000E0E01E16F000EE26F000E11
:102BD600E36F000EE46F000EE56F000EE66F120065
:102BE600600E0E01D86F000EDA6F000EDC6F080E55
:102BF600DE6F000EDD6F12003750030B7F6E36C09E
:102C06007EFF3F0E8116818000F000F0805012009A
:102C160041C038F042C039F0000E3A6E000E3B6EED
:102C260042EC12F0120031384632364B3430005343
:102C36002D436C61737344008E949D9800F09D88BB
:102C46009D9E00F09D8E120036C0F6F037C0F7F05C
:102C5600120036C0FCF037C0FDF0120036C0FAF0A4
:102C660037C0FBF0120036C0F2F037C0F3F01200A6
:102C760036C0F4F037C0F5F0120036C0F0F037C0B9
:102C8600F1F012009D989D8812009AEC15F0120042
:062C9600F29A1200120088
:020000040020DA
:10000000FF0FFF0FFF0FFF0FFF0FFF0FFF0FFF0F80
:020000040030CA
:0C0000008CFFFFFFCDCFFFFFFCFFFFFFD8
:00000001FF
